:020000040800F2
:100000000000022051200008810500088505000835
:10001000890500088D050008910500080000000012
:10002000000000000000000000000000990500082A
:1000300095050008000000009D050008A1050008C6
:1000400099200008992000089920000899200008AC
:100050009920000899200008A505000899200008AB
:10006000992000089920000899200008992000088C
:10007000992000089920000899200008992000087C
:10008000992000089920000899200008992000086C
:10009000992000089920000899200008992000085C
:1000A000992000089920000899200008992000084C
:1000B000992000089920000899200008992000083C
:1000C000992000089920000899200008992000082C
:1000D000992000089920000899200008992000081C
:1000E000992000089920000899200008992000080C
:1000F00099200008992000089920000899200008FC
:1001000099200008992000089920000899200008EB
:1001100099200008992000089920000899200008DB
:1001200099200008992000089920000899200008CB
:1001300099200008992000089920000899200008BB
:1001400099200008992000089920000899200008AB
:10015000992000089920000899200008992000089B
:10016000992000089920000899200008992000088B
:10017000992000089920000899200008992000087B
:080180009920000899200008F5
:1001880008B548F27040074BC2F200001B1A062B54
:1001980000D808BD40F20003C0F20003002BF8D0DD
:1001A8009847F6E77384002008B548F2704048F293
:1001B8007043C2F20003C2F200001B1A9B1003EB4B
:1001C800D373591000D108BD40F20002C0F20002FA
:1001D800002AF8D09047F6E710B548F27044C2F20A
:1001E8000004237873B9FFF7CBFF40F20003C0F295
:1001F80000032BB142F2E030C0F60000AFF30080FC
:100208000123237010BD00BF08B540F20003C0F2FF
:1002180000034BB142F2E03048F27441C0F60000EE
:10022800C2F20001AFF3008048F26C40C2F2000055
:1002380003682BB140F20003C0F2000303B19847F2
:10024800BDE80840B0E700BF134B002B08BF114BB7
:100258009D46A3F5803A00218B460F461148124A65
:10026800121A01F075FF0D4B002B00D098470C4B6C
:10027800002B00D098470020002104000D000B48F7
:1002880001F008FF01F036FF2000290001F0D0FE40
:1002980001F006FF00000800000000000000000058
:1002A800000000007084002098840020C920000805
:1002B80030B54FF4804085B0012100F059FD002190
:1002C800022000F049FE0823012500240DEB03005D
:1002D8008DF80D3002958DF80E508DF80C4000F019
:1002E800E3F9062301A88DF807508DF805408DF82D
:1002F80006408DF8043001F083FD05B030BD00BF25
:1003080070B50420012100F0FBFC48F28C43C2F2D6
:1003180000030726032502244FF4006000221E6014
:100328005D71DC711946C4F20200BDE870401A71B3
:100338009A7100F0C3BA00BF70B51020012100F017
:10034800DFFC48F28C43C2F200034FF47F460325DA
:1003580002244FF4805000221E605D71DC71194642
:10036800C4F20200BDE870401A719A7100F0A6BA92
:1003780070B50820012100F0C3FC48F28C43C2F29A
:1003880000034FF6FF76032502244FF44060002255
:100398001E605D71DC711946C4F20200BDE8704050
:1003A8001A719A7100F08ABA70B50120014600F0FE
:1003B800A7FC48F28C43C2F200030020064603253E
:1003C800022401229E715D71DC711946C4F202009B
:1003D800BDE870401A601A7100F070BA4FF46053AB
:1003E800C4F202030022196841F0010119609A6001
:1003F800186843F2100120F08470C2F2004120F422
:10040800803018605960196882B021F48021196021
:10041800DA60009201921A6842F480321A601A4631
:1004280003E0009BB3F5A06F09D0136803F4003311
:100438000193009B01330093019B002BF1D04FF4F3
:100448006053C4F202031B6813F4003318BF01237E
:100458000193019B012B08D04FF46D43CEF20003AA
:100468004FF000629A6002B070474FF46053C4F2D4
:1004780002034FF4E042196CC4F2000241F08051CB
:100488001964116841F4804111609A689A609A6809
:1004980042F400429A60996845F2084241F4A0513A
:1004A800C0F2407299605A601A6842F080721A600D
:1004B80019460A684FF460539201C4F20203F8D552
:1004C8004FF47052C4F2020240F2056111609A685A
:1004D80022F003029A609A6842F002029A609A68CF
:1004E80002F00C02082AFAD1B6E700BF4FF46053B5
:1004F800C4F202039A6802F00C02042A36D0082AD1
:1005080012D04FF41051C0F2F4014FF46052C4F20B
:10051800020240F204039268C2F20003C2F303121B
:100528009A5CD1401961704758685A6810F4800F76
:10053800586815BF4FF490534FF41053C0F27A0324
:10054800C0F2F40302F03F02B3FBF2F14FF4605340
:10055800C4F20203C0F388105B68C3F3014301339C
:1005680001FB00F15B00B1FBF3F1CEE74FF49051D2
:10057800C0F27A01C9E700BF704700BFFEE700BFBD
:10058800FEE700BFFEE700BFFEE700BF704700BF01
:10059800704700BF704700BF704700BF4FF47053EB
:1005A800C4F2010300B51A685B69D80783B058D54F
:1005B800D10756D500BF00BF00BF00BF00BF00BFB6
:1005C80000BF00BF4FF44062C4F202024FF4006360
:1005D8001269C4F2020392B2ADF806201A699207B2
:1005E80045D41B695B0742D54FF48053C4F202031C
:1005F8000022C5F255521A60BDF8062012B2002A30
:1006080009DBBDF8061040F2180289B2C2F20002F6
:10061800525C12025A6100BF00BF00BF00BF00BF9A
:1006280000BF00BF00BF00BF00BF00BF00BF00BFCA
:1006380000BF00BF00BF00BF00BF00BF00BF00BFBA
:1006480000BF00BF00BF00BF00BF00BF00BF00BFAA
:1006580000BF00BF00BF4FF48053C4F20203002262
:100668001A60012000F090F803B05DF804FB4FF425
:100678008053C4F202034FF47F425A61012000F014
:1006880083F803B05DF804FB4FF47053C4F2010320
:100698004FF6FF710022C0F27F011A605A609A601B
:1006A800DA605961704700BF837970B443B34FF47F
:1006B8007053C4F2010301681E6802794579CC437E
:1006C80026401E605E6802F1804202F59E32344088
:1006D8005C6014682143116002689868D14308403F
:1006E8009860D868102D01EA0001D96014D005F18E
:1006F800804505F59E352B681A432A6070BC704703
:100708000379016803F1804303F59E3370BC1A68CE
:1007180022EA01021A607047996811439960D96802
:100728000A43DA6070BC704700230C2242710360F0
:1007380003718371704700BF4FF47053C4F2010313
:100748001A691043186170474FF47053C4F20103DB
:100758005B6918420CBF0020012070474FF47053AA
:10076800C4F20103586170474FF47053C4F2010397
:100778001A685B69034004D010420CBF00200120B6
:1007880070471846704700BF4FF47053C4F2010316
:100798005861704708B50023C4F2020398423CD060
:1007A8004FF48063C4F20203984240D04FF40063D0
:1007B800C4F20203984244D04FF44063C4F20203E7
:1007C800984248D04FF48053C4F2020398424CD068
:1007D8004FF4A053C4F20203984250D04FF4C053D0
:1007E800C4F20203984254D04FF4E053C4F2020317
:1007F800984258D04FF40053C4F20203984200D0F4
:1008080008BD4FF48070012100F0C0FA4FF48070E9
:100818000021BDE8084000F0B9BA0120014600F007
:10082800B5FA01200021BDE8084000F0AFBA022067
:10083800012100F0ABFA02200021BDE8084000F0D9
:10084800A5BA0420012100F0A1FA04200021BDE886
:10085800084000F09BBA0820012100F097FA082010
:100868000021BDE8084000F091BA1020012100F0F5
:100878008DFA10200021BDE8084000F087BA20203A
:10088800012100F083FA20200021BDE8084000F093
:100898007DBA4020012100F079FA40200021BDE80E
:1008A800084000F073BA8020012100F06FFA802020
:1008B8000021BDE8084000F069BA00BF00222DE918
:1008C800F00713460E6801274FF0030804E00133D0
:1008D800102B02F102022ED007FA03F404EA0605EF
:1008E800A542F4D1D0F8009091F804C008FA02F4B7
:1008F800E44304EA0909C0F80090D0F800900CFA23
:1009080002FA0CF1FF3C5FFA8CFC4AEA0909BCF1D7
:10091800010FC0F8009011D9C56891F807C02C40A4
:10092800C460C5680CFA02F401332C43102BC46070
:1009380002F10202D0D1BDE8F0077047D0F808A054
:1009480091F8059091F806C004EA0A0AC0F808A0D0
:10095800D0F808A009FA02F949EA0A09C0F808908B
:10096800D0F8049029EA0505456045680CFA03FCAF
:100978001FFA8CFC4CEA05054560CDE700234FF6CD
:10098800FF720260037143718371C371704700BFC6
:1009980082B04FF480330193019B0B430193019B79
:1009A800C361C161019BC361C3690193C3690193B9
:1009B80002B07047036919420CBF0020012070473C
:1009C800006980B2704700BF436919420CBF00201C
:1009D80001207047406980B2704700BF01837047AB
:1009E800418370470AB9418370470183704700BF4C
:1009F800416170474369594041617047CB0800EB3A
:100A0800830001F0070110B48900046A0F238B40AA
:100A180024EA03030362036A5DF8044B8A40134324
:100A2800036270474FF46053C4F20203002219684E
:100A380041F0010119609A60186843F2100120F032
:100A48008470C2F2004120F480301860596019683F
:100A580021F480211960DA60704700BF43F6020371
:100A6800C4F2020300221A701870704782B0002383
:100A78004FF460520193C4F2020213689B030FD42F
:100A8800019B01330193019BB3F5A06FF5D14FF49E
:100A98006053C4F202031868C0F3404002B07047C4
:100AA800019B01330193019BF1E700BF4FF46053B1
:100AB800C4F202031A6822F0F80242EAC000186081
:100AC800704700BF0023C4F247231860704700BF77
:100AD80043F67003C4F20203002201281A701A7048
:100AE80005D0042802D105221A7070477047187083
:100AF800704700BF4FF46863C4F24723186070471B
:100B080010B4019C40EA04605B0801434FF4605450
:100B1800C4F20204013B41EA821242EA03436360E1
:100B28005DF8044B704700BF6023C4F24723186088
:100B3800704700BF4FF460530907C4F2020341EA4B
:100B48008010C3F8840070476823C4F247231860F4
:100B5800704700BF4C23C4F247231860704700BF9A
:100B68004FF46053C4F202039A6822F0EC62114316
:100B780008439860704700BF4FF46053C4F2020303
:100B88009A6822F07842114308439860704700BF82
:100B98004FF46053C4F202039A6822F00302104330
:100BA800986070474FF46053C4F20203986800F0ED
:100BB8000C0070474FF46053C4F202039A6822F0A5
:100BC800F0021043986070474FF46053C4F2020378
:100BD8009A6822F4E0521043986070474FF46053CB
:100BE800C4F202039A6822F4604242EAC0009860A4
:100BF800704700BF4FF46053C4F2020310B49A6800
:100C080002F00C02042A24D0082A28D04FF41051EC
:100C1800C0F2F40101604FF46052C4F2020248F2DB
:100C28001C039468C2F20003C4F303141C5DE14082
:100C380041609468C4F382241C5D21FA04F4846042
:100C480092685DF8044BC2F342329B5CD940C160A4
:100C580070474FF49051C0F27A010160DBE75C689D
:100C68005A6814F4800F5C6815BF4FF490534FF422
:100C78001053C0F27A03C0F2F40302F03F02B3FB50
:100C8800F2F14FF46053C4F20203C4F388145B68B2
:100C9800C3F30143013301FB04F15B00B1FBF3F142
:100CA8000160B8E700F44073B3F5407F0CD14FF40E
:100CB8006053C4F2020320F070419A6821F4407135
:100CC80022F4F8120A439A604FF46053C4F2020304
:100CD800C0F30B001A6F10431867704740F63C6367
:100CE800C4F24723186070474FF46463C4F2472383
:100CF800186070474FF4AE73C4F24723186070470A
:100D08004FF46053C4F202031A6B19B922EA0000C7
:100D18001863704710431863704700BF4FF460535F
:100D2800C4F202035A6B19B922EA000058637047EB
:100D380010435863704700BF4FF46053C4F2020376
:100D48009A6B19B922EA00009863704710439863B8
:100D5800704700BF4FF46053C4F202031A6C19B90C
:100D680022EA00001864704710431864704700BFF7
:100D78004FF46053C4F202035A6C19B922EA000016
:100D88005864704710435864704700BF4FF460536D
:100D9800C4F202031A6919B922EA000018617047FF
:100DA80010431861704700BF4FF46053C4F2020348
:100DB8005A6919B922EA000058617047104358610E
:100DC800704700BF4FF46053C4F202039A6919B91F
:100DD80022EA00009861704710439861704700BF8D
:100DE8004FF46053C4F202031A6A19B922EA0000E8
:100DF8001862704710431862704700BF4FF4605381
:100E0800C4F202035A6A19B922EA0000586270470C
:100E180010435862704700BF4FF46053C4F2020396
:100E28001A6D19B922EA0000186570471043186551
:100E3800704700BF4FF46053C4F202035A6D19B9EA
:100E480022EA00005865704710435865704700BF94
:100E58004FF46053C4F202039A6D19B922EA0000F4
:100E68009865704710439865704700BF4FF460530A
:100E7800C4F202031A6E19B922EA00001866704714
:100E880010431866704700BF4FF46053C4F2020362
:100E98005A6E19B922EA000058667047104358661E
:100EA800704700BF43F60D03C4F202031A7819B95C
:100EB80022EA00001870704710431870704700BF8E
:100EC8004309012B0ED0022B4FF46053C4F20203E6
:100ED80000F01F000CBF1B6F5B6F23FA00F000F0DF
:100EE800010070474FF46053C4F2020300F01F0082
:100EF8001B6823FA00F000F0010070474FF46053BC
:100F0800C4F202035A6F42F080725A67704700BFFA
:100F18004FF46053C4F20203DB6818420CBF002090
:100F28000120704743F60E03C4F20203187070479D
:100F380008B54FF480400121FFF760FF4FF480406F
:100F48000021BDE80840FFF759BF00BF4FF46053C8
:100F5800C4F201031860704701F0FC0303F18043F9
:100F680003F59C3301F0030110B489009C680F223B
:100F78008A4024EA02029A609A685DF8044B884025
:100F880002439A60704700BFDC23C4F2272318602D
:100F9800704700BF4FF48063C4F22723186070477E
:100FA8004FF46053C4F20103186AC0F3002070477D
:100FB80008B50023C4F2010398425BD0B0F1804F1A
:100FC80062D04FF48063C4F20003984266D04FF4B5
:100FD8000063C4F2000398426AD04FF44063C4F23D
:100FE800000398426ED04FF48053C4F20003984235
:100FF80072D04FF4A053C4F20003984276D04FF455
:101008008063C4F2010398427AD04FF48043C4F25B
:10101800010398427ED04FF48843C4F201039842FA
:1010280000F084804FF49043C4F20103984200F02A
:1010380089804FF4C053C4F20003984200F08E80B8
:101048004FF4E053C4F20003984200F091804FF44B
:101058000053C4F20003984200D008BD4FF48070DA
:101068000121FFF7BDFE4FF480700021BDE8084064
:10107800FFF7B6BE01200146FFF7C0FE01200021A0
:10108800BDE80840FFF7BABE01200146FFF7A8FEF9
:1010980001200021BDE80840FFF7A2BE022001217F
:1010A800FFF79EFE02200021BDE80840FFF798BE2A
:1010B80004200121FFF794FE04200021BDE8084028
:1010C800FFF78EBE08200121FFF78AFE08200021C5
:1010D800BDE80840FFF784BE10200121FFF780FE1D
:1010E80010200021BDE80840FFF77ABE202001212A
:1010F800FFF776FE20200021BDE80840FFF770BE0C
:1011080002200121FFF77AFE02200021BDE80840F5
:10111800FFF774BE4FF480300121FFF76FFE4FF4E4
:1011280080300021BDE80840FFF768BE4FF400306A
:101138000121FFF763FE4FF400300021BDE80840AD
:10114800FFF75CBE4FF480200121FFF757FE4FF4F4
:1011580080200021BDE80840FFF750BE4020012153
:10116800FFF73EFE40200021BDE80840FFF738BEEB
:1011780080200121FFF734FE80200021BDE80840CF
:10118800FFF72EBE70B400224FF48064C4F201024F
:101198000388C4F20104904218BFA0429BB214BF56
:1011A8000022012208D04FF48064C4F20004A04257
:1011B80018BFB0F1804F23D14FF68F754C881D4072
:1011C80045EA04034FF4A0564FF48055C4F20005D5
:1011D800C4F20006B04218BFA8421FBF0D894FF6DF
:1011E800FF441C4044EA05034D680C880380C5622F
:1011F80004850AB18B7A03860123838270BC704709
:101208004FF400654FF44064C4F20005C4F20004D2
:10121800A04218BFA842D5D1CEE700BF00234FF0A7
:10122800FF3242600380038143808372704700BFAE
:1012380001858282704700BF038823F070031B0476
:101248001B0C19430180704741627047C1627047A7
:10125800406A7047008D80B2704700BF038829B983
:1012680023F002031B041B0C038070479BB243F05E
:1012780002030380704700BF038829B923F00403E1
:101288001B041B0C038070479BB243F004030380CC
:10129800704700BF038829B923F080031B041B0C87
:1012A800038070479BB243F080030380704700BF00
:1012B800038823F008031B041B0C038003889BB2DC
:1012C80019430180704700BF038823F440731B044F
:1012D8001B0C038003889BB219430180704700BF31
:1012E800038829B923F001031B041B0C03807047F2
:1012F8009BB243F001030380704700BF2DE9F00162
:10130800048C8D89B1F802C00F8824F001042404EC
:10131800240C0484028C8488038B4CEA050C22F08C
:10132800020223F073034FF48066002512041B04A5
:10133800C4F20106C4F20105120C1FFA8CFC1B0C46
:10134800A84218BFB0424CEA0202A4B243EA07031B
:1013580017D14FF6F775B1F80EC0B1F812800E8AA2
:101368008F88154045EA0C0C4FF6FB7248EA0606D2
:101378004FF6FF450CEA0202B6B225403A4346EA68
:101388000504896884800383BDE8F0014163028411
:10139800704700BF2DE9F003048C8D89B1F802C0B5
:1013A8000F8824F010042404240C0484028C8488FC
:1013B800038B22F02002120423F4E643120C42EAC3
:1013C80005121B044FF4806600251B0CC4F20106AD
:1013D800C4F2010542EA0C1243EA0723A84218BFE7
:1013E800B04292B2A4B29BB219D14FF67F76B1F84F
:1013F8000E90B1F81080B1F804C04F8A16404FF231
:10140800FF3546EA09164FF6BF722540324045EAD5
:10141800880442EA0C1244EA870492B2A4B28968AA
:1014280084800383BDE8F00381630284704700BFB2
:101438002DE9F003048C8D89B1F802C00F8824F4DB
:1014480080742404240C0484028C8488838B22F402
:1014580000721204120C42EA052223F073034FF4BF
:10146800806600251B04C4F20106C4F2010542EAA5
:101478000C221B0CA84218BFB04292B2A4B243EA95
:10148800070319D14FF2FF76B1F80E90B1F810802A
:10149800B1F804C04F8A16404CF6FF7546EA092693
:1014A8004FF6FF322540324045EA081442EA0C2242
:1014B80044EA071492B2A4B2896884808383BDE8A1
:1014C800F003C16302847047F0B4048C8D890F88DF
:1014D800B1F802C024F480542404240C0484028C3F
:1014E8008488838B22F400521204120C42EA0532DB
:1014F8004FF480660025C4F20105C4F20106A84233
:1015080018BFB04223F4E64308BF0E8A8968A4B224
:1015180008BF4BF6FF754FEA034308BF25404FEA63
:10152800134308BF45EA861443EA072342EA0C320C
:1015380008BFA4B292B29BB284808383F0BC0164DA
:101548000284704700230380438083808360838103
:10155800C38103824382704730B4058C0124ADB245
:101568008C404FF6F77325EA04040B4004841830C6
:1015780073B10439C1F34E0148F6FF730C58234088
:101588000B5012020B5892B21A430A5030BC7047E3
:1015980049084FF68F7344582340435043581A4321
:1015A800425030BC704700BF416370478163704749
:1015B800C163704701647047038B23F070031B04F9
:1015C8001B0C194301837047038B23F4E0431B046E
:1015D8001B0C43EA01218BB203837047838B23F0F2
:1015E80070031B041B0C194381837047838B23F4FE
:1015F800E0431B041B0C43EA01218BB28383704731
:10160800038B23F008031B041B0C19430183704749
:10161800038B23F400631B041B0C43EA01218BB2E8
:1016280003837047838B23F008031B041B0C1943A7
:1016380081837047838B23F400631B041B0C43EAEC
:1016480001218BB283837047038B23F004031B04AF
:101658001B0C194301837047038B23F480631B041D
:101668001B0C43EA01218BB203837047838B23F061
:1016780004031B041B0C194381837047838B23F4D9
:1016880080631B041B0C43EA01218BB283837047E0
:10169800038B23F080031B041B0C19430183704741
:1016A800038BC3F30E0343EA01218BB20383704714
:1016B800838B23F080031B041B0C19438183704721
:1016C800838BC3F30E0343EA01218BB283837047F4
:1016D800038C23F002031B041B0C1943018470477D
:1016E800038C23F008031B041B0C19430184704767
:1016F800038C23F020031B041B0C43EA01118BB25B
:1017080003847047038C23F080031B041B0C43EAFB
:1017180001118BB203847047038C23F400731B04FC
:101728001B0C43EA01218BB203847047038C23F41A
:1017380000631B041B0C43EA01218BB2038470472E
:10174800038C23F400531B041B0C43EA01318BB2B6
:1017580003847047038C10B401248C409BB223EAA5
:1017680004030384038C5DF8044B8A4013439BB243
:1017780003847047038C10B404248C409BB223EA82
:1017880004030384038C5DF8044B8A4013439BB223
:10179800038470470B88F0B4002B32D0042B59D047
:1017A800082B4E88038C00F084808F880D89CC88A4
:1017B80023F480510904090C0184828B038C22F4E0
:1017C800407223F4005312055B04120D5B0C42EACD
:1017D800072243EA063342EA05329BB243F48053B8
:1017E80092B282830384838B23F440631B041B0C13
:1017F8008383838B9BB243EA04239BB28383F0BC2D
:101808007047038C4E888D880F89CC8823F001019E
:101818000904090C0184028B038C22F0F3021204E0
:10182800120C23F00A0342EA07121B0446F00101D6
:1018380092B21B0C2A430B4302830384038B23F0CD
:101848000C031B041B0C0383038B9BB223430383EE
:10185800F0BC7047038C4E888D880F89CC8823F0A4
:1018680010010904090C0184028B038C22F44072D4
:10187800120523F0A003120D1B0442EA07321B0CC9
:1018880043EA061392B242EA05229BB243F01003E0
:1018980092B202830384038B23F440631B041B0C62
:1018A8000383038B9BB243EA04239BB20383F0BCFC
:1018B80070478D880F89CC8823F480710904090C3E
:1018C8000184828B038C22F0F30223F42063120438
:1018D8001B04120C1B0C42EA071243EA062392B2BD
:1018E8009BB243F480732A4382830384838B23F05F
:1018F8000C031B041B0C8383838B9BB223438383BE
:101908007DE700BF00230122828003804380C380DB
:10191800038170472DE9F0014A888B880C88002ADA
:101928000CBF02260026012B14BF01270227002C1A
:1019380054D0058CB1F80880B1F806C025F0100520
:101948002D042D0C0584048B018C24F4407424058B
:1019580021F0A001240D090444EA0834090CA4B2BA
:1019680041EA021244EA032392B29BB242F0100207
:1019780003830284018B21F440610904090C01836B
:10198800038B9BB243EA0C239BB20383018C21F0A7
:1019980001010904090C0184028B038C22F0F30273
:1019A800120423F00A03120C1B0442EA08121B0C4F
:1019B80043F0010392B21E43174307830684038B47
:1019C80023F00C031B041B0C0383038B9BB243EA19
:1019D8000C0CA0F818C0BDE8F0017047048CB1F8F1
:1019E80008C0CD8824F001010904090C0184018B89
:1019F800048C21F0F3010904090C24F00A0441EADB
:101A08000C11240442F0010289B2240C14430B4344
:101A180003830484038B23F00C031B041B0C038334
:101A2800038B9BB22B430383038C23F010031B040B
:101A38001B0C0384028B038C22F44072120523F0E2
:101A4800A003120D1B0442EA0C321B0C43F01003D6
:101A580092B243EA061642EA072707830684038BF5
:101A680023F440631B041B0C0383038B9BB243EAE0
:101A78000525ADB20583BDE8F0017047406B70479E
:101A8800806B7047C06B7047006C7047038B23F006
:101A98000C031B041B0C0383038B9BB219430183A8
:101AA800704700BF038B23F440631B041B0C0383A4
:101AB800038B9BB243EA01218BB20383704700BFBB
:101AC800838B23F00C031B041B0C8383838B9BB237
:101AD80019438183704700BF838B23F440631B0441
:101AE8001B0C8383838B9BB243EA01218BB28383D4
:101AF800704700BFB1F802C00B888A89F0B48F889C
:101B0800CE880D894C894CEA03033B4333432B436E
:101B1800234313439BB2A0F84430F0BC704700BF86
:101B28000023038043808380C380038143818381B2
:101B3800704700BFB0F8443021B9C3F30E03A0F8D2
:101B4800443070476FEA43436FEA53439BB2A0F8AF
:101B580044307047838829B923F004031B041B0C05
:101B6800838070479BB243F004038380704700BFB3
:101B7800838829B923F001031B041B0C8380704759
:101B88009BB243F001038380704700BF83899BB2F7
:101B98001AB923EA0101818170471943818170478D
:101BA80081827047038A19420CBF002001207047C8
:101BB800C94389B201827047038A828911420CBFE6
:101BC8000020012019420CBF002000F001007047DE
:101BD800C94389B2018270470A43A0F84820704778
:101BE80083899BB21AB923EA01018181704719439D
:101BF80081817047838829B923F008031B041B0CD3
:101C0800838070479BB243F008038380704700BF0E
:101C1800038923F007031B041B0C0381704700BFD3
:101C2800038923F070031B041B0C194301810389EA
:101C38009BB243F007030381704700BF602970B46B
:101C480027D0068C26F001063604360C0684058B50
:101C5800048C25F0F3052D0424F00A042D0C24042B
:101C680045F00105240C45EA031344F001049BB236
:101C7800224303830284038923F070031B041B0C93
:101C88000B43038103899BB243F00703038170BCB4
:101C98007047048C24F010042404240C0484058B5D
:101CA800048C25F4407524F0A0042D0524042D0D82
:101CB800240C45F4807544F0100445EA033344EAE3
:101CC80002129BB292B203830284D4E710B404894F
:101CD80042EA0323E4B223439BB2194301810389F7
:101CE8005DF8044B23F077031B041B0C43F07703C8
:101CF8000381704710B4048942EA0323E4B2234302
:101D08009BB21943018103895DF8044B9BB243F4EC
:101D180080430381704700BF038923F070031B04CD
:101D28001B0C194301817047838823F070031B043F
:101D38001B0C838083889BB219438180704700BF46
:101D4800038923F007031B041B0C038103899BB23F
:101D580019430181704700BF038923F080031B04E6
:101D68001B0C038103899BB219430181704700BF93
:101D780010B40489E4B221430A4342EA03239CB223
:101D880004815DF8044B704770B40589048B068C98
:101D980024F4407426F0220624F003043604360C9A
:101DA80025F00705240432432D04240C2D0C44F49B
:101DB800807442EA0313294344F001049EB201816E
:101DC8000483068470BC7047838829B923F0800394
:101DD8001B041B0C838070479BB243F080038380F5
:101DE800704700BFA0F85010704700BF4FF46D4314
:101DF80040F0BF60CEF2000340F40030D860704776
:101E0800C37870B47BB902784FF46143510920312B
:101E180002F01F020120CEF2000300FA02F243F89A
:101E2800212070BC70474FF46D43CEF20003467812
:101E3800DA6884780378D243C2F30222C2F104013B
:101E48000F25C9B206FA01F145FA02F2C9B22240D9
:101E58000A4303F1604303F561431201D2B283F8E8
:101E6800002302784FF4614302F01F010120520958
:101E7800CEF2000300FA01F143F8221070BC70475B
:101E880021F060414FF46D4321F07F01CEF2000351
:101E980008439860704700BF4FF46D43CEF20003CB
:101EA8001A6919B922EA00001861704710431861CD
:101EB800704700BF4EF21003CEF2000304281A68E0
:101EC8000CBF42F0040222F004021A60704700BFFF
:101ED80030B542F2A834C0F60004054683B054F881
:101EE8002000012104EB4504FEF70AFF48F22C0309
:101EF800228AC2F20003009253F82500022201232D
:101F0800002469468DF804308DF807308DF80640B6
:101F18008DF80520FEF7D2FC03B030BD42F2A8339D
:101F2800C0F6000348F22C0203EB4003C2F20002A1
:101F3800198A52F820301983704700BF42F2A8333B
:101F4800C0F6000348F22C0203EB4003C2F2000281
:101F5800198A52F820305983704700BF48F22C0381
:101F6800C2F2000342F2A832C0F6000253F8203051
:101F780002EB40025969128A4A405A61704700BF11
:101F880030B50446012087B00D460146FEF7B8FE7D
:101F98004FF480400121FEF7EBFE06AB48F22C021D
:101FA8000121C2F2000202EB840243F8101D002452
:101FB80010698DF80C4019468DF80F40FEF77EFC2D
:101FC800012D01D007B030BD21462046FEF7C4FFE1
:101FD800082304A88DF8153004958DF814408DF861
:101FE8001650FEF761FB0F23062201A88DF8075053
:101FF8008DF804208DF805308DF80630FFF700FFC6
:1020080007B030BD08B548F22C03C2F2000303EB59
:10201800800001210069FEF7CDFC08BD10240008EE
:10202800000000206C840020708400209884002028
:1020380008B5FEF781F9FEF79BF9FEF761F9FEF79F
:10204800B3F9FEF735F9FEE7002103E00B4B5B58C7
:10205800435004310A480B4B42189A42F6D30A4AB5
:1020680002E0002342F8043B084B9A42F9D3FEF7FA
:10207800B5F900F03FF8FFF7DBFF704710240008C0
:10208800000000206C8400207084002098840020C8
:10209800FEE70000014600200246034600F0A2B811
:1020A80008B50021044600F0FFF842F2DC33C0F620
:1020B80000031868C36B03B19847204600F09AF9EB
:1020C80038B542F2104442F20C45C0F60005C0F69D
:1020D8000004641BA41018BF05EB840505D0013C5F
:1020E80055F8043D9847002CF9D1BDE8384000F078
:1020F8007BB900BF70B542F2044642F20445C0F60F
:102108000005C0F60006761BB6101CBF043D00246F
:1021180005D0013455F8043F9847A642F9D142F258
:102128000C4642F20445C0F60005C0F60006761BD0
:1021380000F054F9B6101CBF043D002406D0013449
:1021480055F8043F9847A642F9D170BD70BD00BF4D
:10215800F0B4840743D0541E002A3ED0CDB20346C3
:1021680003E0621E002C38D0144603F8015B9A077E
:10217800F7D1032C2AD9CDB245EA05250F2C45EA1B
:10218800054515D9A4F110073F0903F1100606EB20
:1021980007161A46156055609560D5601032B24230
:1021A800F8D104F00F040137032C03EB07130DD902
:1021B8001E462246043A032A46F8045BFAD8221F30
:1021C80022F003020432134404F003042CB1C9B210
:1021D8001C4403F8011BA342FBD1F0BC7047144612
:1021E8000346C6E7F0B542F2DC34C0F6000485B019
:1021F8002668D6F848410746002C44D065681F2D4C
:1022080021DD40F20004C0F200041CB94FF0FF3099
:1022180005B0F0BD4FF4C870039102920193AFF37B
:1022280000800399029A019B04460028EED0D6F854
:1022380048510020256060600546C6F84841C4F84A
:102248008801C4F88C013FB9AB1C002001356560DA
:1022580044F8231005B0F0BD04EB85004FF0010CE5
:10226800C0F88820D4F888610CFA05F21643022FCA
:10227800C4F88861C0F8083102BFD4F88C311A4319
:10228800C4F88C21E0E706F5A674C6F84841B5E71E
:1022980040F20003C0F200032BB142F2C900C0F6BD
:1022A8000000FFF7F7BE70472DE9F04F42F2DC332C
:1022B800C0F6000385B01B68029040F2000201934B
:1022C800C0F2000203F5A4730F46039300924FF087
:1022D8000109019AD2F84881B8F1000F1AD0DDF847
:1022E8000CA0D8F804305C1E5FBF08F188059E1C5E
:1022F80005EB830508EB86060AD477B1EB6FBB4282
:102308000BD0013C631CA5F10405A6F10406F4D129
:10231800009B7BBB05B0BDE8F08FD8F8042056F8C9
:10232800043C013AA24216BF0022C8F8044046F80D
:10233800042C002BE5D0D8F88811D8F804B009FA95
:1023480004F20A4210D0D8F88C110A420ED1029831
:1023580055F8041C9847D8F804305B45B9D1DAF829
:1023680000304345CDD0B4E79847F4E755F8040C5E
:102378009847F0E7D8F804306BB9D8F8003063B163
:102388004046CAF80030AFF30080DAF80080B8F1B0
:10239800000FA6D1BEE7D8F80030C2469846F6E747
:1023A8000800000008000000080000000800000005
:1023B800001000200040008006000000000000001F
:1023C8000000000001000000010000000100000002
:1023D800430000004080002000000000F8B500BF66
:1023E800F8BC08BC9E467047F8B500BFF8BC08BCEE
:0423F8009E46704746
:0823FC0054DEFF7F0100000028
:082404009922000811020008F2
:04240C00E1010008E2
:1024100000000000000000000000000001020304B2
:1024200006070809007A030A000000000000000007
:10243000000000000000000000000000000000009C
:10244000000000000000000000000000000000008C
:10245000000000000000000000000000000000007C
:102460000000000000000000D90000000000000093
:10247000D900000000000000D900000000000000AA
:10248000D900000000000000D9040C1801220D2022
:10249000FC0520F9C9040C18032A12130D20FA05B3
:1024A00020F7C9040C18052A121312130D20F80581
:1024B00020F5C9040C180BF5F3F041E60220FAF1FF
:1024C00022FB0D20F20520EFC9040C180BF3F0419C
:1024D000E60220FA2A12FB130D20F20520EFC900B4
:1024E00000000000000000000000000000000000EC
:1024F00000000000000000000000000000000000DC
:1025000000000000000000000000000000000000CB
:1025100000000000000000000000000000000000BB
:10252000000000000000000000C35209CEED666606
:10253000CC0D000B03730083000C000D0008111F6D
:102540008889000EDCCC6EE6DDDDD999BBBB676304
:102550006E0EECCCDDDC999FBBB9333E4558414D46
:10256000504C45000000000000000000000000008A
:102570000000013300A7F6E57E4242424242427E1D
:102580007E81A581BD99817E7EFFDBFFC3E7FF7E53
:102590006CFEFEFE7C38100010387CFE7C3810008B
:1025A000387C38FEFE7C387C1010387CFE7C387C11
:1025B0000000183C3C180000FFFFE7C3C3E7FFFF23
:1025C000003C664242663C00FFC399BDBD99C3FF13
:1025D0000F070F7DCCCCCC783C6666663C187E1825
:1025E0003F333F303070F0E07F637F636367E6C066
:1025F000995A3CE7E73C5A9980E0F8FEF8E0800001
:10260000020E3EFE3E0E0200183C7E18187E3C185C
:1026100066666666660066007FDBDB7B1B1B1B0055
:102620003E63386C6C38CC78000000007E7E7E0003
:10263000183C7E187E3C18FF183C7E1818181800AD
:10264000181818187E3C180000180CFE0C18000012
:10265000003060FE603000000000C0C0C0FE00001E
:10266000002466FF6624000000183C7EFFFF000087
:1026700000FFFF7E3C18000000000000000000008A
:1026800030303030300030006C6C6C0000000000E6
:102690006C6CFE6CFE6C6C00307CC0780CF830000A
:1026A00000C6CC183066C600386C3876DCCC7600B4
:1026B0006060C000000000001830606060301800EA
:1026C000603018181830600000663CFF3C6600005F
:1026D000003030FC3030000000000000003030607E
:1026E000000000FC0000000000000000003030008E
:1026F000060C183060C080007CC6CEDEF6E67C009A
:10270000307030303030FC0078CC0C3860CCFC00BD
:1027100078CC0C380CCC78001C3C6CCCFE0C1E0029
:10272000FCC0F80C0CCC78003860C0F8CCCC780039
:10273000FCCC0C183030300078CCCC78CCCC780085
:1027400078CCCC7C0C1870000030300000303000A9
:102750000030300000303060183060C06030180049
:102760000000FC0000FC00006030180C1830600015
:1027700078CC0C18300030007CC6DEDEDEC078007D
:102780003078CCCCFCCCCC00FC66667C6666FC0069
:102790003C66C0C0C0663C00F86C6666666CF800BB
:1027A0007E60607860607E007E606078606060005F
:1027B0003C66C0C0CE663E00CCCCCCFCCCCCCC00C1
:1027C00078303030303078001E0C0C0CCCCC7800D7
:1027D000E6666C786C66E6006060606060607E0053
:1027E000C6EEFEFED6C6C600C6E6F6DECEC6C600FD
:1027F000386CC6C6C66C3800FC66667C6060F0004B
:1028000078CCCCCCDC781C00FC66667C6C66E60080
:1028100078CCE0781CCC7800FC30303030303000A0
:10282000CCCCCCCCCCCCFC00CCCCCCCCCC78300040
:10283000C6C6C6D6FEEEC600C6C66C38386CC60024
:10284000CCCCCC7830307800FE060C183060FE001E
:102850007860606060607800C06030180C0602002C
:10286000781818181818780010386CC60000000086
:1028700000000000000000FF3030180000000000E1
:102880000000780C7CCC7600E060607C6666DC0042
:10289000000078CCC0CC78001C0C0C7CCCCC760032
:1028A000000078CCFCC07800386C60F06060F0000C
:1028B000000076CCCC7C0CF8E0606C766666E600B6
:1028C00030007030303078000C000C0C0CCCCC7820
:1028D000E060666C786CE600703030303030780044
:1028E0000000CCFEFED6C6000000F8CCCCCCCC005C
:1028F000000078CCCCCC78000000DC66667C60F010
:10290000000076CCCC7C0C1E0000DC766660F0000B
:1029100000007CC0780CF80010307C303034180097
:102920000000CCCCCCCC76000000CCCCCC783000F5
:102930000000C6D6FEFE6C000000C66C386CC600F7
:102940000000CCCCCC7C0CF80000FC983064FC007F
:102950001C3030E030301C0018181800181818000F
:10296000E030301C3030E00076DC00000000000079
:102970000010386CC6FE00003C66C0C0663C0818FB
:102980002800CCCCCCCC7600081078CCFCC07800E9
:102990001028780C7CCC76002800780C7CCC760053
:1029A0002010780C7CCC76001818780C7CCC760043
:1029B0000078CCC0CC781030102878CCFCC07800DF
:1029C000280078CCFCC07800201078CCFCC07800BF
:1029D00028007030303078001028703030307800A7
:1029E0001008703030307800283078CCFCCCCC0027
:1029F000304830CCFCCCCC0008107E6078607E0083
:102A000000006C127E907E003E50909CF0909E00E4
:102A1000102878CCCCCC7800280078CCCCCC7800AE
:102A2000201078CCCCCC78001028CCCCCCCC760044
:102A30002010CCCCCCCC76002800CCCCCC7C0CF8B4
:102A4000287CC6C6C6C67C0028C6C6C6C6C67C00CC
:102A5000001078CCC0CC7810384440F04040FE00E4
:102A6000C3663C7E187E1800FC66667C6060F000E1
:102A70001C30FC30303030E00810780C7CCC760014
:102A80001020703030307800102078CCCCCC78001A
:102A90001020CCCCCCCC7600324CF8CCCCCCCC00BA
:102AA000324CC6E6D6CEC60000380C3C6C36000070
:102AB00000384444380000001800183060663C00BC
:102AC0000000FE80800000000000FE020200000006
:102AD000424448562946881F424448562A5F820786
:102AE000300030303030300000244890482400005E
:102AF0000048241224480000882288228800882266
:102B0000AA55AA55AA00AA5577DD77DD77FF77DDAC
:102B10001010101010101010101010F010101010D5
:102B20001010F010F0101010282828E82828282865
:102B3000000000F8282828280000F010F0101010DD
:102B40002828E808E82828282828282828282828A5
:102B50000000F808E82828282828E808F8000000DD
:102B6000282828F8000000001010F010F0000000E5
:102B7000000000F0101010101010101F00000000D6
:102B8000101010FF00000000000000FF10101010D7
:102B90001010101F10101010000000FF00000000A7
:102BA000101010FF1010101010101F101F10101018
:102BB0002828282F2828282828282F203F000000F0
:102BC00000003F202F2828282828EF00FF000000C1
:102BD0000000FF00EF28282828282F202F28282849
:102BE0000000FF00FF0000002828EF00EF28282841
:102BF0001010FF00FF000000282828FF0000000040
:102C00000000FF00FF101010000000FF28282828F7
:102C10002828283F0000000010101F101F0000008F
:102C200000001F101F1010100000003F2828282847
:102C3000282828FF282828281010FF10FF1010101F
:102C4000101010F0000000000000001F1010101005
:102C5000FFFFFFFFFFFFFFFF00000000FFFFFFFF80
:102C6000F0F0F0F0F0F0F0F00F0F0F0F0F0F0F0F6C
:102C7000FFFFFFFF00000000000000728C883A0098
:102C80003048487C4242DC000000FE424040E00008
:102C90000000FE444444EE00FE4220102042FE00AC
:102CA0000000003E444438000000CC4444447A40D4
:102CB00000007C1010101C0000107C92927C100010
:102CC00000007C82BA827C000000007C82826C283A
:102CD000EE00007C20384444380000006C92926C76
:102CE000000000004C92927C100000003C403040FC
:102CF0003C0000003C424242420000FE00FE00FE5A
:102D000000001010FE1010FE00004010041040FEE5
:102D100000000410401004FE00000C1010101010F1
:102D20001010101010101010106000001000FE00A5
:102D3000100000629C00629C000030484830000097
:102D4000000000000030300000000000000008001B
:102D500000000102E2241418080000005824240096
:102D6000000030481020780000000000FFFFFFFF47
:102D700000000000000000000000F331FFFF3EE40F
:102D8000E0473E00E043E042CD99092150011100A7
:102D900080010008CD7B003E95E0403E2021009858
:102DA000010004CD8B00218F0911E398010A00CDA9
:102DB000A10076000018FB4C6F6F6B2C206168201F
:102DC00021F04007D0F044FE9120FAF040CBBFE064
:102DD00040C90000000000000000000000000000EA
:102DE00000000000000000000000000000000000E3
:102DF00000000000000000000000000000000000D3
:102E000000000000000000000000000000000000C2
:102E100000000000000000000000000000000000B2
:10A4200000000000000000000080000000000000AC
:10A43000010203040102030406070809000C02409C
:10A44000000C0240000C0240000C024000000240E0
:10A45000000000002C83002094830020FC83002057
:10A4600000000000000000000000000000000000EC
:10A4700000000000000000000000000000000000DC
:10A4800000000000D82300080000000000000000C9
:10A4900000000000000000000000000000000000BC
:10A4A00000000000000000000000000000000000AC
:10A4B000000000000000000000000000000000009C
:10A4C000000000000000000000000000000000008C
:10A4D000000000000000000000000000000000007C
:10A4E000000000000000000000000000000000006C
:10A4F000000000000000000001000000000000005B
:10A500000E33CDAB34126DE6ECDE05000B0000001F
:10A51000000000000000000000000000000000003B
:10A52000000000000000000000000000000000002B
:10A53000000000000000000000000000000000001B
:10A54000000000000000000000000000000000000B
:0CA87000000000000000000040800020FC
:04A87C0000000000D8
:04000005080020517E
:00000001FF
