:020000040800F2
:100000000000022051210008810500088505000834
:10001000890500088D050008910500080000000012
:10002000000000000000000000000000990500082A
:1000300095050008000000009D050008A1050008C6
:1000400099210008992100089921000899210008A8
:100050009921000899210008A505000899210008A8
:100060009921000899210008992100089921000888
:100070009921000899210008992100089921000878
:100080009921000899210008992100089921000868
:100090009921000899210008992100089921000858
:1000A0009921000899210008992100089921000848
:1000B0009921000899210008992100089921000838
:1000C0009921000899210008992100089921000828
:1000D0009921000899210008992100089921000818
:1000E0009921000899210008992100089921000808
:1000F00099210008992100089921000899210008F8
:1001000099210008992100089921000899210008E7
:1001100099210008992100089921000899210008D7
:1001200099210008992100089921000899210008C7
:1001300099210008992100089921000899210008B7
:1001400099210008992100089921000899210008A7
:100150009921000899210008992100089921000897
:100160009921000899210008992100089921000887
:100170009921000899210008992100089921000877
:080180009921000899210008F3
:1001880008B540F27040074BC2F200001B1A062B5C
:1001980000D808BD40F20003C0F20003002BF8D0DD
:1001A8009847F6E77304002008B540F2704040F223
:1001B8007043C2F20003C2F200001B1A9B1003EB4B
:1001C800D373591000D108BD40F20002C0F20002FA
:1001D800002AF8D09047F6E710B540F27044C2F212
:1001E8000004237873B9FFF7CBFF40F20003C0F295
:1001F80000032BB142F2E440C0F60200AFF30080E6
:100208000123237010BD00BF08B540F20003C0F2FF
:1002180000034BB142F2E44040F27441C0F60200E0
:10022800C2F20001AFF3008040F26C40C2F200005D
:1002380003682BB140F20003C0F2000303B19847F2
:10024800BDE80840B0E700BF134B002B08BF114BB7
:100258009D46A3F5803A00218B460F461148124A65
:10026800121A01F0F5FF0D4B002B00D098470C4BEC
:10027800002B00D098470020002104000D000B48F7
:1002880001F088FF01F0B6FF2000290001F03AFFD5
:1002980001F086FF000008000000000000000000D8
:1002A80000000000700400209C840020C921000880
:1002B80030B54FF4804085B0012100F0C3FD002126
:1002C800022000F0B3FE0823012500240DEB0300F3
:1002D8008DF80D3002958DF80E508DF80C4000F019
:1002E8004DFA062301A88DF807508DF805408DF8C2
:1002F80006408DF8043001F0EDFD05B030BD00BFBB
:1003080070B50420012100F065FD40F28C43C2F273
:1003180000030726032502244FF4006000221E6014
:100328005D71DC711946C4F20200BDE870401A71B3
:100338009A7100F02DBB00BF70B51020012100F0AC
:1003480049FD40F28C43C2F200034FF47F46032577
:1003580002244FF4805000221E605D71DC71194642
:10036800C4F20200BDE870401A719A7100F010BB27
:1003780070B50820012100F02DFD40F28C43C2F237
:1003880000034FF6FF76032502244FF44060002255
:100398001E605D71DC711946C4F20200BDE8704050
:1003A8001A719A7100F0F4BA70B50120014600F094
:1003B80011FD40F28C43C2F20003002006460325DB
:1003C800022401229E715D71DC711946C4F202009B
:1003D800BDE870401A601A7100F0DABA4FF4605341
:1003E800C4F202030022196841F0010119609A6001
:1003F800186843F2100120F08470C2F2004120F422
:10040800803018605960196882B021F48021196021
:10041800DA60009201921A6842F480321A601A4631
:1004280003E0009BB3F5A06F09D0136803F4003311
:100438000193009B01330093019B002BF1D04FF4F3
:100448006053C4F202031B6813F4003318BF01237E
:100458000193019B012B08D04FF46D43CEF20003AA
:100468004FF000629A6002B070474FF46053C4F2D4
:1004780002034FF4E042196CC4F2000241F08051CB
:100488001964116841F4804111609A689A609A6809
:1004980042F400429A60996845F2084241F4A0513A
:1004A800C0F2407299605A601A6842F080721A600D
:1004B80019460A684FF460539201C4F20203F8D552
:1004C8004FF47052C4F2020240F2056111609A685A
:1004D80022F003029A609A6842F002029A609A68CF
:1004E80002F00C02082AFAD1B6E700BF4FF46053B5
:1004F800C4F202039A6802F00C02042A36D0082AD1
:1005080012D04FF41051C0F2F4014FF46052C4F20B
:10051800020240F204039268C2F20003C2F303121B
:100528009A5CD1401961704758685A6810F4800F76
:10053800586815BF4FF490534FF41053C0F27A0324
:10054800C0F2F40302F03F02B3FBF2F14FF4605340
:10055800C4F20203C0F388105B68C3F3014301339C
:1005680001FB00F15B00B1FBF3F1CEE74FF49051D2
:10057800C0F27A01C9E700BF704700BFFEE700BFBD
:10058800FEE700BFFEE700BFFEE700BF704700BF01
:10059800704700BF704700BF704700BF4FF47053EB
:1005A800C4F2010300B51A685B69D80783B04FD558
:1005B800D1074DD500BF00BF00BF00BF00BF00BFBF
:1005C80000BF00BF4FF44062C4F202024FF4006360
:1005D8001269C4F2020392B2ADF806201A699207B2
:1005E8003CD41B695B0739D54FF48053C4F202032E
:1005F8000022C5F255521A60BDF8062092B2B2F533
:10060800804F6DD3BDF8062012B2002AC0F2858053
:1006180040F29642C2F20002BDF806001178013994
:10062800890342F2A84211FA80F1C0F60002525C36
:1006380012025A6100BF00BF00BF00BF00BF00BF69
:1006480000BF00BF4FF48053C4F2020300221A60B7
:10065800012000F003F903B05DF804FB4FF4805368
:10066800C4F202031B69DBB28DF80530BDF8063011
:100678009BB2B3F5005F1FD3BDF806309BB2B3F54C
:10068800804F25D3BDF806309BB2B3F5C04FDFD2FB
:1006980040F29743C2F200031B78002B33D040F29C
:1006A8009643C2F200039DF805201978520102F022
:1006B80060020A431A70CBE740F29443C2F2000387
:1006C80001221A70012000F0C9F803B05DF804FB9C
:1006D80040F29643C2F200039DF805201A70B7E76E
:1006E800BDF8061042F2A84289B2C0F60002525C78
:1006F80012025A6100BF00BF00BF00BF00BF00BFA9
:1007080000BF00BF96E79DF8052040F29543C2F26E
:10071800000302F003021A709AE7BDF8062092B2AD
:10072800B2F5204F86D3BDF8062092B2B2F5404FFD
:1007380080D240F29541C2F2000140F29842087816
:10074800BDF80610C2F2000202EB403212FA81F242
:10075800A2F52042127812025A616BE74FF47053E7
:10076800C4F201034FF6FF710022C0F27F011A6044
:100778005A609A60DA605961704700BF837970B433
:1007880043B34FF47053C4F2010301681E68027941
:100798004579CC4326401E605E6802F1804202F52E
:1007A8009E3234405C601468214311600268986886
:1007B800D14308409860D868102D01EA0001D9603B
:1007C80014D005F1804505F59E352B681A432A603B
:1007D80070BC70470379016803F1804303F59E33C9
:1007E80070BC1A6822EA01021A60704799681143BE
:1007F8009960D9680A43DA6070BC704700230C22FC
:100808004271036003718371704700BF4FF47053E6
:10081800C4F201031A691043186170474FF470530A
:10082800C4F201035B6918420CBF00200120704725
:100838004FF47053C4F20103586170474FF470537A
:10084800C4F201031A685B69034004D010420CBF6C
:100858000020012070471846704700BF4FF47053BE
:10086800C4F201035861704708B50023C4F20203BB
:1008780098423CD04FF48063C4F20203984240D0BF
:100888004FF40063C4F20203984244D04FF440632B
:10089800C4F20203984248D04FF48053C4F20203D2
:1008A80098424CD04FF4A053C4F20203984250D05F
:1008B8004FF4C053C4F20203984254D04FF4E053AB
:1008C800C4F20203984258D04FF40053C4F2020312
:1008D800984200D008BD4FF48070012100F0C0FAA2
:1008E8004FF480700021BDE8084000F0B9BA01203B
:1008F800014600F0B5FA01200021BDE8084000F0EB
:10090800AFBA0220012100F0ABFA02200021BDE8B5
:10091800084000F0A5BA0420012100F0A1FA042043
:100928000021BDE8084000F09BBA0820012100F032
:1009380097FA08200021BDE8084000F091BA10207D
:10094800012100F08DFA10200021BDE8084000F0D8
:1009580087BA2020012100F083FA20200021BDE879
:10096800084000F07DBA4020012100F079FA4020CB
:100978000021BDE8084000F073BA8020012100F092
:100988006FFA80200021BDE8084000F069BA00BF76
:1009980000222DE9F00713460E6801274FF00308DF
:1009A80004E00133102B02F102022ED007FA03F4FF
:1009B80004EA0605A542F4D1D0F8009091F804C0E5
:1009C80008FA02F4E44304EA0909C0F80090D0F8F0
:1009D80000900CFA02FA0CF1FF3C5FFA8CFC4AEA30
:1009E8000909BCF1010FC0F8009011D9C56891F848
:1009F80007C02C40C460C5680CFA02F401332C43CC
:100A0800102BC46002F10202D0D1BDE8F007704794
:100A1800D0F808A091F8059091F806C004EA0A0AEF
:100A2800C0F808A0D0F808A009FA02F949EA0A09AA
:100A3800C0F80890D0F8049029EA05054560456893
:100A48000CFA03FC1FFA8CFC4CEA05054560CDE75F
:100A580000234FF6FF720260037143718371C37103
:100A6800704700BF82B04FF480330193019B0B4362
:100A78000193019BC361C161019BC361C369019378
:100A8800C369019302B07047036919420CBF002083
:100A980001207047006980B2704700BF436919425E
:100AA8000CBF002001207047406980B2704700BF2A
:100AB80001837047418370470AB9418370470183B6
:100AC800704700BF416170474369594041617047B1
:100AD800CB0800EB830001F0070110B48900046A19
:100AE8000F238B4024EA03030362036A5DF8044B77
:100AF8008A401343036270474FF46053C4F2020301
:100B08000022196841F0010119609A60186843F2DF
:100B1800100120F08470C2F2004120F48030186087
:100B28005960196821F480211960DA60704700BFA4
:100B380043F60203C4F2020300221A7018707047C9
:100B480082B000234FF460520193C4F2020213688A
:100B58009B030FD4019B01330193019BB3F5A06F55
:100B6800F5D14FF46053C4F202031868C0F3404053
:100B780002B07047019B01330193019BF1E700BF6D
:100B88004FF46053C4F202031A6822F0F80242EAF2
:100B9800C0001860704700BF0023C4F247231860E4
:100BA800704700BF43F67003C4F202030022012815
:100BB8001A701A7005D0042802D105221A707047DD
:100BC80070471870704700BF4FF46863C4F247233A
:100BD8001860704710B4019C40EA04605B08014348
:100BE8004FF46054C4F20204013B41EA821242EA23
:100BF800034363605DF8044B704700BF6023C4F291
:100C080047231860704700BF4FF460530907C4F2C8
:100C1800020341EA8010C3F8840070476823C4F2D5
:100C280047231860704700BF4C23C4F2472318605D
:100C3800704700BF4FF46053C4F202039A6822F071
:100C4800EC62114308439860704700BF4FF460534B
:100C5800C4F202039A6822F078421143084398606C
:100C6800704700BF4FF46053C4F202039A6822F041
:100C780003021043986070474FF46053C4F20203B4
:100C8800986800F00C0070474FF46053C4F20203F8
:100C98009A6822F0F0021043986070474FF460534E
:100CA800C4F202039A6822F4E05210439860704735
:100CB8004FF46053C4F202039A6822F4604242EA95
:100CC800C0009860704700BF4FF46053C4F202033D
:100CD80010B49A6802F00C02042A24D0082A28D0FA
:100CE8004FF41051C0F2F40101604FF46052C4F2A5
:100CF800020240F218039468C2F20003C4F303141A
:100D08001C5DE14041609468C4F382241C5D21FAB3
:100D180004F4846092685DF8044BC2F342329B5C31
:100D2800D940C16070474FF49051C0F27A01016018
:100D3800DBE75C685A6814F4800F5C6815BF4FF4F1
:100D480090534FF41053C0F27A03C0F2F40302F048
:100D58003F02B3FBF2F14FF46053C4F20203C4F351
:100D680088145B68C3F30143013301FB04F15B00A2
:100D7800B1FBF3F10160B8E700F44073B3F5407FCD
:100D88000CD14FF46053C4F2020320F070419A680A
:100D980021F4407122F4F8120A439A604FF4605328
:100DA800C4F20203C0F30B001A6F104318677047B0
:100DB80040F63C63C4F24723186070474FF46463FD
:100DC800C4F24723186070474FF4AE73C4F2472348
:100DD800186070474FF46053C4F202031A6B19B9D4
:100DE80022EA00001863704710431863704700BF79
:100DF8004FF46053C4F202035A6B19B922EA000097
:100E08005863704710435863704700BF4FF46053EE
:100E1800C4F202039A6B19B922EA0000986370477A
:100E280010439863704700BF4FF46053C4F2020345
:100E38001A6C19B922EA0000186470471043186444
:100E4800704700BF4FF46053C4F202035A6C19B9DB
:100E580022EA00005864704710435864704700BF86
:100E68004FF46053C4F202031A6919B922EA000068
:100E78001861704710431861704700BF4FF4605302
:100E8800C4F202035A6919B922EA0000586170478E
:100E980010435861704700BF4FF46053C4F2020317
:100EA8009A6919B922EA000098617047104398615D
:100EB800704700BF4FF46053C4F202031A6A19B9AD
:100EC80022EA00001862704710431862704700BF9A
:100ED8004FF46053C4F202035A6A19B922EA0000B7
:100EE8005862704710435862704700BF4FF4605310
:100EF800C4F202031A6D19B922EA00001865704796
:100F080010431865704700BF4FF46053C4F20203E2
:100F18005A6D19B922EA00005865704710435865A0
:100F2800704700BF4FF46053C4F202039A6D19B9B9
:100F380022EA00009865704710439865704700BF23
:100F48004FF46053C4F202031A6E19B922EA000082
:100F58001866704710431866704700BF4FF4605317
:100F6800C4F202035A6E19B922EA000058667047A3
:100F780010435866704700BF43F60D03C4F20203DE
:100F88001A7819B922EA00001870704710431870CF
:100F9800704700BF4309012B0ED0022B4FF460535A
:100FA800C4F2020300F01F000CBF1B6F5B6F23FA33
:100FB80000F000F0010070474FF46053C4F20203E0
:100FC80000F01F001B6823FA00F000F001007047D2
:100FD8004FF46053C4F202035A6F42F080725A67AA
:100FE800704700BF4FF46053C4F20203DB68184235
:100FF8000CBF00200120704743F60E03C4F2020321
:101008001870704708B54FF480400121FFF760FF62
:101018004FF480400021BDE80840FFF759BF00BFEA
:101028004FF46053C4F201031860704701F0FC03E9
:1010380003F1804303F59C3301F0030110B48900E8
:101048009C680F228A4024EA02029A609A685DF836
:10105800044B884002439A60704700BFDC23C4F207
:1010680027231860704700BF4FF48063C4F227231A
:10107800186070474FF46053C4F20103186AC0F354
:101088000020704708B50023C4F2010398425BD0E2
:10109800B0F1804F62D04FF48063C4F200039842ED
:1010A80066D04FF40063C4F2000398426AD04FF44C
:1010B8004063C4F2000398426ED04FF48053C4F2E8
:1010C8000003984272D04FF4A053C4F20003984230
:1010D80076D04FF48063C4F2010398427AD04FF47B
:1010E8008043C4F2010398427ED04FF48843C4F28F
:1010F8000103984200F084804FF49043C4F2010346
:10110800984200F089804FF4C053C4F2000398421B
:1011180000F08E804FF4E053C4F20003984200F0D0
:1011280091804FF40053C4F20003984200D008BDE8
:101138004FF480700121FFF7BDFE4FF4807000214D
:10114800BDE80840FFF7B6BE01200146FFF7C0FE24
:1011580001200021BDE80840FFF7BABE0120014682
:10116800FFF7A8FE01200021BDE80840FFF7A2BE56
:1011780002200121FFF79EFE02200021BDE8084061
:10118800FFF798BE04200121FFF794FE04200021F8
:10119800BDE80840FFF78EBE08200121FFF78AFE50
:1011A80008200021BDE80840FFF784BE1020012177
:1011B800FFF780FE10200021BDE80840FFF77ABE47
:1011C80020200121FFF776FE20200021BDE80840FD
:1011D800FFF770BE02200121FFF77AFE02200021EE
:1011E800BDE80840FFF774BE4FF480300121FFF7D7
:1011F8006FFE4FF480300021BDE80840FFF768BE5D
:101208004FF400300121FFF763FE4FF40030002156
:10121800BDE80840FFF75CBE4FF480200121FFF7CE
:1012280057FE4FF480200021BDE80840FFF750BE6C
:1012380040200121FFF73EFE40200021BDE8084084
:10124800FFF738BE80200121FFF734FE80200021FF
:10125800BDE80840FFF72EBE70B400224FF480644A
:10126800C4F201020388C4F20104904218BFA042EC
:101278009BB214BF0022012208D04FF48064C4F24C
:101288000004A04218BFB0F1804F23D14FF68F75EC
:101298004C881D4045EA04034FF4A0564FF480558E
:1012A800C4F20005C4F20006B04218BFA8421FBF2E
:1012B8000D894FF6FF441C4044EA05034D680C882D
:1012C8000380C56204850AB18B7A03860123838271
:1012D80070BC70474FF400654FF44064C4F20005D9
:1012E800C4F20004A04218BFA842D5D1CEE700BF7F
:1012F80000234FF0FF3242600380038143808372F2
:10130800704700BF01858282704700BF038823F0C1
:1013180070031B041B0C194301807047416270471E
:10132800C1627047406A7047008D80B2704700BF45
:10133800038829B923F002031B041B0C03807047A0
:101348009BB243F002030380704700BF038829B9AA
:1013580023F004031B041B0C038070479BB243F06B
:1013680004030380704700BF038829B923F0800372
:101378001B041B0C038070479BB243F0800303805F
:10138800704700BF038823F008031B041B0C03806D
:1013980003889BB219430180704700BF038823F478
:1013A80040731B041B0C038003889BB21943018004
:1013B800704700BF038829B923F001031B041B0CE5
:1013C800038070479BB243F001030380704700BF5E
:1013D8002DE9F001048C8D89B1F802C00F8824F042
:1013E80001042404240C0484028C8488038B4CEAB2
:1013F800050C22F0020223F073034FF480660025E7
:1014080012041B04C4F20106C4F20105120C1FFAEF
:101418008CFC1B0CA84218BFB0424CEA0202A4B2D2
:1014280043EA070317D14FF6F775B1F80EC0B1F8C4
:1014380012800E8A8F88154045EA0C0C4FF6FB7215
:1014480048EA06064FF6FF450CEA0202B6B2254006
:101458003A4346EA0504896884800383BDE8F001BD
:1014680041630284704700BF2DE9F003048C8D8925
:10147800B1F802C00F8824F010042404240C04845A
:10148800028C8488038B22F02002120423F4E643A2
:10149800120C42EA05121B044FF4806600251B0C4F
:1014A800C4F20106C4F2010542EA0C1243EA07231A
:1014B800A84218BFB04292B2A4B29BB219D14FF65B
:1014C8007F76B1F80E90B1F81080B1F804C04F8A59
:1014D80016404FF2FF3546EA09164FF6BF7225400F
:1014E800324045EA880442EA0C1244EA870492B280
:1014F800A4B2896884800383BDE8F0038163028411
:10150800704700BF2DE9F003048C8D89B1F802C043
:101518000F8824F480742404240C0484028C8488A6
:10152800838B22F400721204120C42EA052223F083
:1015380073034FF4806600251B04C4F20106C4F24D
:10154800010542EA0C221B0CA84218BFB04292B215
:10155800A4B243EA070319D14FF2FF76B1F80E900F
:10156800B1F81080B1F804C04F8A16404CF6FF75E8
:1015780046EA09264FF6FF322540324045EA08146C
:1015880042EA0C2244EA071492B2A4B28968848021
:101598008383BDE8F003C16302847047F0B4048C10
:1015A8008D890F88B1F802C024F480542404240CD7
:1015B8000484028C8488838B22F400521204120C57
:1015C80042EA05324FF480660025C4F20105C4F2F0
:1015D8000106A84218BFB04223F4E64308BF0E8AAA
:1015E8008968A4B208BF4BF6FF754FEA034308BFEA
:1015F80025404FEA134308BF45EA861443EA072308
:1016080042EA0C3208BFA4B292B29BB284808383B0
:10161800F0BC016402847047002303804380838008
:1016280083608381C38103824382704730B4058C11
:101638000124ADB28C404FF6F77325EA04040B4041
:101648000484183073B10439C1F34E0148F6FF73AE
:101658000C5823400B5012020B5892B21A430A50EE
:1016680030BC704749084FF68F73445823404350A5
:1016780043581A43425030BC704700BF416370471B
:1016880081637047C163704701647047038B23F01F
:1016980070031B041B0C194301837047038B23F44D
:1016A800E0431B041B0C43EA01218BB20383704700
:1016B800838B23F070031B041B0C19438183704731
:1016C800838B23F4E0431B041B0C43EA01218BB2F8
:1016D80083837047038B23F008031B041B0C1943F7
:1016E80001837047038B23F400631B041B0C43EA3C
:1016F80001218BB203837047838B23F008031B04FB
:101708001B0C194381837047838B23F400631B04EC
:101718001B0C43EA01218BB283837047038B23F0B0
:1017280004031B041B0C194301837047038B23F428
:1017380080631B041B0C43EA01218BB203837047AF
:10174800838B23F004031B041B0C1943818370470C
:10175800838B23F480631B041B0C43EA01218BB2A7
:1017680083837047038B23F080031B041B0C1943EE
:1017780001837047038BC3F30E0343EA01218BB245
:1017880003837047838B23F080031B041B0C1943CE
:1017980081837047838BC3F30E0343EA01218BB225
:1017A80083837047038C23F002031B041B0C19432B
:1017B80001847047038C23F008031B041B0C194396
:1017C80001847047038C23F020031B041B0C43EA9D
:1017D80001118BB203847047038C23F080031B0430
:1017E8001B0C43EA01118BB203847047038C23F46A
:1017F80000731B041B0C43EA01218BB2038470475E
:10180800038C23F400631B041B0C43EA01218BB2F5
:1018180003847047038C23F400531B041B0C43EA16
:1018280001318BB203847047038C10B401248C40BF
:101838009BB223EA04030384038C5DF8044B8A40BB
:1018480013439BB203847047038C10B404248C4068
:101858009BB223EA04030384038C5DF8044B8A409B
:1018680013439BB2038470470B88F0B4002B32D02B
:10187800042B59D0082B4E88038C00F084808F8865
:101888000D89CC8823F480510904090C0184828BCA
:10189800038C22F4407223F4005312055B04120DEA
:1018A8005B0C42EA072243EA063342EA05329BB25E
:1018B80043F4805392B282830384838B23F440637E
:1018C8001B041B0C8383838B9BB243EA04239BB2C8
:1018D8008383F0BC7047038C4E888D880F89CC8831
:1018E80023F001010904090C0184028B038C22F006
:1018F800F3021204120C23F00A0342EA07121B0433
:1019080046F0010192B21B0C2A430B430283038465
:10191800038B23F00C031B041B0C0383038B9BB268
:1019280023430383F0BC7047038C4E888D880F894E
:10193800CC8823F010010904090C0184028B038C64
:1019480022F44072120523F0A003120D1B0442EA90
:1019580007321B0C43EA061392B242EA05229BB2F5
:1019680043F0100392B202830384038B23F4406391
:101978001B041B0C0383038B9BB243EA04239BB217
:101988000383F0BC70478D880F89CC8823F480715D
:101998000904090C0184828B038C22F0F30223F4DE
:1019A800206312041B04120C1B0C42EA071243EAC0
:1019B800062392B29BB243F480732A438283038442
:1019C800838B23F00C031B041B0C8383838B9BB238
:1019D800234383837DE700BF0023012282800380A5
:1019E8004380C380038170472DE9F0014A888B88C2
:1019F8000C88002A0CBF02260026012B14BF0127E1
:101A08000227002C54D0058CB1F80880B1F806C024
:101A180025F010052D042D0C0584048B018C24F46D
:101A28004074240521F0A001240D090444EA083477
:101A3800090CA4B241EA021244EA032392B29BB20F
:101A480042F0100203830284018B21F440610904EF
:101A5800090C0183038B9BB243EA0C239BB20383DB
:101A6800018C21F001010904090C0184028B038C0B
:101A780022F0F302120423F00A03120C1B0442EAB8
:101A880008121B0C43F0010392B21E43174307834D
:101A98000684038B23F00C031B041B0C0383038BAA
:101AA8009BB243EA0C0CA0F818C0BDE8F0017047DF
:101AB800048CB1F808C0CD8824F001010904090C90
:101AC8000184018B048C21F0F3010904090C24F032
:101AD8000A0441EA0C11240442F0010289B2240CE0
:101AE80014430B4303830484038B23F00C031B046C
:101AF8001B0C0383038B9BB22B430383038C23F0C0
:101B080010031B041B0C0384028B038C22F4407209
:101B1800120523F0A003120D1B0442EA0C321B0C21
:101B280043F0100392B243EA061642EA07270783F6
:101B38000684038B23F440631B041B0C0383038B71
:101B48009BB243EA0525ADB20583BDE8F0017047B5
:101B5800406B7047806B7047C06B7047006C704774
:101B6800038B23F00C031B041B0C0383038B9BB216
:101B780019430183704700BF038B23F440631B04A0
:101B88001B0C0383038B9BB243EA01218BB20383B3
:101B9800704700BF838B23F00C031B041B0C83834B
:101BA800838B9BB219438183704700BF838B23F4D7
:101BB80040631B041B0C8383838B9BB243EA012184
:101BC8008BB28383704700BFB1F802C00B888A8943
:101BD800F0B48F88CE880D894C894CEA03033B43C7
:101BE80033432B43234313439BB2A0F84430F0BC48
:101BF800704700BF0023038043808380C380038134
:101C080043818381704700BFB0F8443021B9C3F3E2
:101C18000E03A0F8443070476FEA43436FEA53431A
:101C28009BB2A0F844307047838829B923F0040395
:101C38001B041B0C838070479BB243F00403838012
:101C4800704700BF838829B923F001031B041B0CCC
:101C5800838070479BB243F001038380704700BFC5
:101C680083899BB21AB923EA01018181704719431C
:101C78008181704781827047038A19420CBF002016
:101C880001207047C94389B201827047038A82895B
:101C980011420CBF0020012019420CBF002000F0A7
:101CA80001007047C94389B2018270470A43A0F80E
:101CB8004820704783899BB21AB923EA01018181C0
:101CC8007047194381817047838829B923F0080335
:101CD8001B041B0C838070479BB243F0080383806E
:101CE800704700BF038923F007031B041B0C038103
:101CF800704700BF038923F070031B041B0C1943B2
:101D0800018103899BB243F007030381704700BF39
:101D1800602970B427D0068C26F001063604360CEC
:101D28000684058B048C25F0F3052D0424F00A04A1
:101D38002D0C240445F00105240C45EA031344F056
:101D480001049BB2224303830284038923F07003B6
:101D58001B041B0C0B43038103899BB243F007034D
:101D6800038170BC7047048C24F010042404240CF4
:101D78000484058B048C25F4407524F0A0042D05FB
:101D880024042D0D240C45F4807544F0100445EA14
:101D9800033344EA02129BB292B203830284D4E76B
:101DA80010B4048942EA0323E4B223439BB21943E3
:101DB800018103895DF8044B23F077031B041B0C96
:101DC80043F077030381704710B4048942EA032380
:101DD800E4B223439BB21943018103895DF8044BA4
:101DE8009BB243F480430381704700BF038923F00B
:101DF80070031B041B0C194301817047838823F06F
:101E080070031B041B0C838083889BB21943818059
:101E1800704700BF038923F007031B041B0C0381D1
:101E280003899BB219430181704700BF038923F0DE
:101E380080031B041B0C038103899BB21943018196
:101E4800704700BF10B40489E4B221430A4342EA50
:101E580003239CB204815DF8044B704770B4058974
:101E6800048B068C24F4407426F0220624F0030424
:101E78003604360C25F00705240432432D04240CBF
:101E88002D0C44F4807442EA0313294344F00104FE
:101E98009EB201810483068470BC7047838829B987
:101EA80023F080031B041B0C838070479BB243F014
:101EB80080038380704700BFA0F85010704700BFB0
:101EC8004FF46D4340F0BF60CEF2000340F40030A1
:101ED800D8607047C37870B47BB902784FF4614317
:101EE8005109203102F01F020120CEF2000300FA4E
:101EF80002F243F8212070BC70474FF46D43CEF2D4
:101F080000034678DA6884780378D243C2F3022261
:101F1800C2F104010F25C9B206FA01F145FA02F22D
:101F2800C9B222400A4303F1604303F56143120139
:101F3800D2B283F8002302784FF4614302F01F0104
:101F480001205209CEF2000300FA01F143F82210F1
:101F580070BC704721F060414FF46D4321F07F0160
:101F6800CEF2000308439860704700BF4FF46D43FA
:101F7800CEF200031A6919B922EA00001861704705
:101F880010431861704700BF4EF21003CEF20003F1
:101F980004281A680CBF42F0040222F004021A60F6
:101FA800704700BF30B542F2AC44C0F602040546A3
:101FB80083B054F82000012104EB4504FEF70AFF22
:101FC80040F22803228AC2F20003009253F8250047
:101FD80002220123002469468DF804308DF8073069
:101FE8008DF806408DF80520FEF7D2FC03B030BD11
:101FF80042F2AC43C0F6020340F2280203EB40036E
:10200800C2F20002198A52F820301983704700BFC3
:1020180042F2AC43C0F6020340F2280203EB40034D
:10202800C2F20002198A52F820305983704700BF63
:1020380040F22803C2F2000342F2AC42C0F60202A8
:1020480053F8203002EB40025969128A4A405A611B
:10205800704700BF30B50446012087B00D460146E1
:10206800FEF7B8FE4FF480400121FEF7EBFE06AB09
:1020780040F228020121C2F2000202EB840243F876
:10208800101D002410698DF80C4019468DF80F407A
:10209800FEF77EFC012D01D007B030BD2146204659
:1020A800FEF7C4FF082304A88DF8153004958DF8B1
:1020B80014408DF81650FEF761FB0F23062201A885
:1020C8008DF807508DF804208DF805308DF806300E
:1020D800FFF700FF07B030BD08B540F22803C2F291
:1020E800000303EB800001210069FEF7CDFC08BD69
:1020F80014250208000000206C0400207004002051
:102108009C84002008B5FEF717F940F29644FEF7C4
:102118002FF9FEF7F5F8FEF747F9FEF7C9F840F290
:10212800954040F2944140F29743C2F20004C2F253
:102138000000C2F20001C2F200030022012525704E
:1021480002700A701A70FEE7002103E00B4B5B581F
:10215800435004310A480B4B42189A42F6D30A4AB4
:1021680002E0002342F8043B084B9A42F9D3FEF7F9
:1021780035F900F03FF8FFF7C5FF7047142502084E
:10218800000000206C040020700400209C840020C3
:10219800FEE70000014600200246034600F0A2B810
:1021A80008B50021044600F0FFF842F2E043C0F60B
:1021B80002031868C36B03B19847204620F09CF9C6
:1021C80038B542F2145442F21055C0F60205C0F672
:1021D8000204641BA41018BF05EB840505D0013C5C
:1021E80055F8043D9847002CF9D1BDE8384020F057
:1021F8007DB900BF70B542F2085642F20855C0F6E4
:102208000205C0F60206761BB6101CBF043D00246A
:1022180005D0013455F8043F9847A642F9D142F257
:10222800105642F20855C0F60205C0F60206761BA3
:1022380020F056F9B6101CBF043D002406D0013426
:1022480055F8043F9847A642F9D170BD70BD00BF4C
:10225800F0B4840743D0541E002A3ED0CDB20346C2
:1022680003E0621E002C38D0144603F8015B9A077D
:10227800F7D1032C2AD9CDB245EA05250F2C45EA1A
:10228800054515D9A4F110073F0903F1100606EB1F
:1022980007161A46156055609560D5601032B2422F
:1022A800F8D104F00F040137032C03EB07130DD901
:1022B8001E462246043A032A46F8045BFAD8221F2F
:1022C80022F003020432134404F003042CB1C9B20F
:1022D8001C4403F8011BA342FBD1F0BC7047144611
:1022E8000346C6E7F0B542F2E044C0F6020485B002
:1022F8002668D6F848410746002C44D065681F2D4B
:1023080021DD40F20004C0F200041CB94FF0FF3098
:1023180005B0F0BD4FF4C870039102920193AFF37A
:1023280000800399029A019B04460028EED0D6F853
:1023380048510020256060600546C6F84841C4F849
:102348008801C4F88C013FB9AB1C002001356560D9
:1023580044F8231005B0F0BD04EB85004FF0010CE4
:10236800C0F88820D4F888610CFA05F21643022FC9
:10237800C4F88861C0F8083102BFD4F88C311A4318
:10238800C4F88C21E0E706F5A674C6F84841B5E71D
:1023980040F20003C0F200032BB142F2C910C0F6AC
:1023A8000000FFF7F7BE70472DE9F04F42F2E04317
:1023B800C0F6020385B01B68029040F20002019348
:1023C800C0F2000203F5A4730F46039300924FF086
:1023D8000109019AD2F84881B8F1000F1AD0DDF846
:1023E8000CA0D8F804305C1E5FBF08F188059E1C5D
:1023F80005EB830508EB86060AD477B1EB6FBB4281
:102408000BD0013C631CA5F10405A6F10406F4D128
:10241800009B7BBB05B0BDE8F08FD8F8042056F8C8
:10242800043C013AA24216BF0022C8F8044046F80C
:10243800042C002BE5D0D8F88811D8F804B009FA94
:1024480004F20A4210D0D8F88C110A420ED1029830
:1024580055F8041C9847D8F804305B45B9D1DAF828
:1024680000304345CDD0B4E79847F4E755F8040C5D
:102478009847F0E7D8F804306BB9D8F8003063B162
:102488004046CAF80030AFF30080DAF80080B8F1AF
:10249800000FA6D1BEE7D8F80030C2469846F6E746
:1024A800C350010020002800C350010000000000B4
:1024B800C350010000000000C350010000000000EC
:1024C800C350010000000000C350010000000000DC
:1024D800C350010000000000C350010000000000CC
:1024E800C336030000000000C39C03000000000086
:1024F800C39D030000000000C39E0300000000000D
:10250800C39F03000000000000000000000000005E
:1025180000000000000000000000000000000000B3
:1025280000000000000000000000000000000000A3
:102538000000000000000000000000000000000093
:102548000000000000000000000000000000000083
:102558000000000000000000000000000000000073
:102568000000000000000000000000000000000063
:102578000000000000000000000000000000000053
:102588000000000000000000000000000000000043
:102598000000000000000000000000000000000033
:1025A80000C35001CEED6666CC0D000B03730083AB
:1025B800000C000D0008111F8889000EDCCC6EE6A7
:1025C800DDDDD999BBBB67636E0EECCCDDDC999F72
:1025D800BBB9333E444D472A502D303120202020AE
:1025E8002020202000000001020000000004F0A5C7
:1025F800F3211DC2F9CD0040CD03403E00CD0C4073
:102608003EFFE047E048F044FE9020FA21B1031174
:1026180080FF012000CDBB033E40E0412165037CE3
:10262800EA04C07DEA03C03E01EA06C03E00EA02B1
:10263800C03E01E0FFFBCDFF032190057CEA0AC004
:102648007DEA09C02166037CEA04C07DEA03C0FA7A
:1026580002C0FE0120F93EFFE047E0482165037C07
:10266800EA04C07DEA03C03E02EA06C0EA0020CDC3
:102678000040216F037CEA04C07DEA03C0FA02C06F
:10268800FE0220F93EFFE047E0482165037CEA04AA
:10269800C07DEA03C03E01EA06C0EA0020CDFF0380
:1026A80021E3057CEA0AC07DEA09C02166037CEAC9
:1026B80004C07DEA03C0FA02C0FE0320F93EFFE031
:1026C80047E0482165037CEA04C07DEA03C03E0375
:1026D800EA06C0EA0020CD00402178037CEA04C065
:1026E8007DEA03C0FA02C0FE0420F93EFFE047E09D
:1026F800482165037CEA04C07DEA03C03E01EA067E
:10270800C0EA0020CDFF032139067CEA0AC07DEA31
:1027180009C02166037CEA04C07DEA03C0FA02C04E
:10272800FE0520F93EFFE047E0482165037CEA0406
:10273800C07DEA03C03E04EA06C0EA0020CD00409E
:102748002181037CEA04C07DEA03C0FA02C0FE06C8
:1027580020F93EFFE047E0482165037CEA04C07D9C
:10276800EA03C00632FA14C0FE0120F93E00EA145A
:10277800C00520F13E05EA06C0EA0020CD00402150
:102788008A037CEA04C07DEA03C0CD4F40FA02C048
:10279800FE0720F93EFFE047E0482165037CEA0494
:1027A800C07DEA03C03E06EA06C0EA0020CD00402C
:1027B8002193037CEA04C07DEA03C0FA02C0FE0844
:1027C80020F93EFFE047E0482165037CEA04C07D2C
:1027D800EA03C0C33303F5C5D5E53E01EA14C0CD0D
:1027E8005C03FA02C0FE08280E3E01EA0020CD0074
:1027F80041FA06C0EA0020E1D1C1F1D9FA03C06F5D
:10280800FA04C067E9C93E01EA0020CD4D04C93E7B
:1028180002EA0020CD6640C93E03EA0020CD4240CE
:10282800C93E04EA0020CD7040C93E05EA0020CD2B
:10283800AD40C93E06EA0020CDAF40C9D9D9D9D9A3
:10284800F0FFF5E6FEE0FFF040E67FE040F1E0FF54
:10285800C93EC7E0463E283D20FDC9040C18032A9E
:1028680012130D20FA0520F7C9040C1809F041E6E7
:102878000220FA2A12130D20F40520F1C9040C18BD
:102888000212130D20FB0520F8C9040C180AF5F0F4
:1028980041E60220FAF112130D20F30520F0C901D8
:1028A800200021009A3EE0CDEA033E00E042E043EA
:1028B8003EFFEA07C03E14EA08C03E00EA0DC02108
:1028C800E90B11008001000CCDC90321C9161100C4
:1028D8008C010004CDC90321E90711009801000407
:1028E800CDC9033E00EA05C03E91E040C9CD4B0585
:1028F80021EB060600FA0DC04F09545D7EE047FA49
:1029080005C0FE01280EFA0DC0FE80281C3CEA0D09
:10291800C0C38904FA0DC0FE0028073DEA0DC0C3F4
:102928008904FA02C03CEA02C02100C8060AF04441
:10293800B820FB3E50F041E603FE0020F87EE0435D
:102948001AE04723130478FE6020E33E00E043FAD0
:1029580002C0FE002006CD0305C3C904FE022006FE
:10296800CD1005C3C904CD2805F044FE6F20FA3EFA
:1029780050F041E603FE0020F8F044FE7F20FA3EC6
:1029880050F041E603FE0020F8FA07C0E043F044A7
:10299800FE8720FA3E50F041E603FE0020F83E0094
:1029A800E043C93E001100C8065612130520FBC9B2
:1029B8002100201100C8FA0BC03CEA0BC06F065674
:1029C8007E1213230520F9C92100221100C8FA0B31
:1029D800C03CEA0BC06F062B7E12137DC6806F7E4B
:1029E800127DD67F6F23130520EEC9FA07C03CEA93
:1029F80007C0E607FE002801C921009A0600FA0868
:102A0800C04F09E5D13CE61FEA08C0FA0AC067FAD8
:102A180009C06F7EFE0020093E01EA05C021BA0602
:102A28007EE63FF6C012237CEA0AC07DEA09C0C9E7
:102A380020202020202020202057454C434F4D4562
:102A480020544F205448452046495253542047416A
:102A58004D45424F592044454D4F20425920474546
:102A68004E455349532050524F4A45435421202044
:102A7800202020202020202020202020202020204E
:102A880020200020202020202020202050524F47A6
:102A980052414D4D494E4720425920534841444FD9
:102AA800572E204752415048494353204259204904
:102AB8004C4C4D2E204D55534943204259205A2DF8
:102AC8004E4558582E20202020202020202020202D
:102AD800202020202020202000202020202020200E
:102AE800202054484520454E44204F46205448490C
:102AF80053204C4954544C452044454D4F2049538C
:102B080020414C52454144592044524157494E476F
:102B1800204E4541522E204752454554494E475371
:102B280020544F20414C4C204441544153544F525F
:102B38004D2056495349544F525321205343454E33
:102B480045204F4E212020202020202020202020FA
:102B5800202020202020202020002020202020208D
:102B6800202020202020202020202020202020205D
:102B7800202020202020202020202020202020204D
:102B88002020202020202020202020FFFFFFFFFFE2
:102B9800FFFFFFFFFFFFFFFFFFFFFFFFFFFFFFFF3D
:102BA800FFFFFFFFFFFFFFFFFFFFFFFFFFFFFFFF2D
:102BB800FFFFFFFFFFFFFFFFFFFFFFFFFFFFFFFF1D
:102BC800FFFFFFFFFFFFFFFFFFFFFFFFFFFFFFFF0D
:102BD800FFFFFFFFFFFFFFFFFFFFFFFFFFFFFFFFFD
:102BE800FFFFFFFFFFFFFFFFFFFFFFFFFFFFFFFFED
:102BF800FFFFFFFFFFFFFFFFFFFFFFFFFFFFFFFFDD
:102C0800FEFFFFFEFEEDFEEDEDD8D8D8D8D8D8D817
:102C1800D8D8D8D8D8D8D8D8D8D8D8D8D8D8D8D82C
:102C2800D8D8D8D8D8D8D8D8D8D8D8D8D8D8D8D81C
:102C3800D8D8D8D8D8D8D8D8D8D8D8D8D8D8D8D80C
:102C4800D8D8D8D8D8D8D8D8D8D8D8D8D8D8D8D8FC
:102C5800D8D8D8D8D8D8D8D8D8D8D8D8D8D8D8D8EC
:102C6800D8D8D8D8D8D8D8D8D8D8D8D8D8D8D8D8DC
:102C7800D8D8D8D8D8D8D8D8D8D8D8D8D8D8D8D8CC
:102C8800D8D8D8D8D8D8D8D8D800000000000000A4
:102C9800000000000000000000000000000000002C
:102CA800000000000000000000000000000000001C
:102CB800000000000000000000000000000000000C
:102CC80000000000000000000000000102030405ED
:102CD800060708090A0B0C0D0E0F10000000000073
:102CE800000000000000000000000011121314157D
:102CF800161718191A1B1C1D1E1F200000000000A3
:102D0800000000000000000000000021222324250C
:102D1800262728292A2B2C2D2E2F300000000000D2
:102D2800000000000000000000000031323334359C
:102D3800363738393A3B3C3D3E3F40000000000002
:102D4800000000000000000000000041424344452C
:102D5800464748494A4B4C4D4E4F50000000000032
:102D680000000000000000000000005152535455BC
:102D780056575800595A5B5C5D5E5F0000000000C2
:102D880000000000000000000000006061626300B5
:102D98006465666768696A0000000000000000005A
:102DA80000000000000000000000006B6C6D6E6FFA
:102DB80070717273747576000000000000000000E6
:102DC80000000000000000000000007778797A7B9E
:102DD8007C7D7E007F8081000000000000000000F4
:102DE80000000000000000000000000000000000DB
:102DF80000000000000000000000000000000000CB
:102E080000000000000000000000000000000000BA
:102E180000000000000000000000000000000000AA
:102E2800000000000000000000000000000000009A
:102E3800000000000000000000000000000000008A
:102E480000000000000000000082838485868788D7
:102E5800898A8B8C8D8E8F90919293949500000027
:102E6800000000000000000000969798999A9B9730
:102E78009C9D97979E9F97A0A19797A2A30000005B
:102E88000000000000000000009797979797979719
:102E9800979797979797979797979797970000007F
:102EA80000000000000000000097A4A5A6A797A8AE
:102EB800979797979797A9AAAB97AC97AD000000FB
:102EC80000000000000000000000000000000000FA
:102ED80000000000000000000000000000000000EA
:102EE80000000000000000000000000000000000DA
:102EF80000000000000000000000000000000000CA
:102F080000000000000000000000000000000000B9
:102F180000000000000000000000000000000000A9
:102F28000000000000000000000000000000000099
:102F38000000000000000000000000000000000089
:102F48000000000000000000000000000000000079
:102F58000000000000000000000000000000000069
:102F68000000000000000000000000000000000059
:102F78000000000000000000000000000000000049
:102F88000000000000000000000000000000000039
:102F98000000000000000000000000000000000029
:102FA8000000000000000000000000000000000019
:102FB8000000000000000000000000000000000009
:102FC80000000000000000000000000000000000F9
:102FD80000000000000000000000000000000000E9
:102FE80000000000000000000000000000000000D9
:102FF80000000000000000000000000000000000C9
:1030080000000000000000000000000000000000B8
:1030180000000000000000000000000000000000A8
:103028000000000000000000000000000000000098
:103038000000000000000000000000000000000088
:103048000000000000000000000000000000000078
:103058000000000000000000000000000000000068
:103068000000000000000000000000000000000058
:103078000000000000000000000000000000000048
:10308800000000000000000000FFFFFFFFFFFFFF3F
:10309800FFFFFFFFFFFFFFFFFFFFFFFFFFFFFFFF38
:1030A800FFFFFEF8FCF0FAF0F5FFFFFFFFFFFFFC63
:1030B800F20081005F15EAAB54FFFFFFFFFFFF003E
:1030C80020005D04FB6B94FF01FFFFFFFFFF1F0360
:1030D800070975B54AFF31FF59FFFFFFFFC0E18BB4
:1030E800143F417FABFF56FF2FFFFFFFFF0040F962
:1030F80006FF51FFBBFFFFFFF3FFFFFFFF0009FAC9
:1031080005FFA8FF7DFFB6FFFFFFFFFFFFFF7F3F23
:103118007F9F5FDF2FEF9FEF47FFFFFFFFFFFFFF5F
:10312800FFFFFFFEFFFEFEFCFEFFFFF8F6C2E5977D
:10313800AB2F161F271F0F1F2BFFFF0000ED12FFDD
:10314800FAFFFFFFBFFFCFFFE7FFFF1FAF38C6FF44
:1031580018FF2DFFFBFFF3FFF7FFFFFFFF1F2FA84F
:1031680054F04BF3ACF7C9FFA2FFFFFFFFFFFE00CF
:10317800039768CB35D728EF91FFFFFFF98060FFF1
:103188000BFFDDFF7BFFFDFF7BFFFFFFFF3FFFDF47
:103198003FEF9FEF0FCFAFEF8FF0F3F0E7F1E6F0DF
:1031A800F7F1FAF8FDFEFEFCFF5FA1FF0A7F80EB56
:1031B8001455AAFF7E2AD55FA0FF58FDA2EA15FF85
:1031C800007F8AFFD4F02FDC28FF2D7F9DFF3DFF75
:1031D80059FDA3F10E00510000FF5DFF3B7FAD7F5D
:1031E80082AE5195EA80CE60C3FFE5FFFFFF5EFF28
:1031F800A1FB5437C2028E0244FFFFFFFFFFD7FF37
:103208002DFF40F50A007E0000E78FE717C7A7C724
:103218001787670787070F0FA7FCFCFCFDFCFCFC62
:10322800FCFCFCFCFDFCFEFFFE3F871FA33F8B3F21
:103238000517281F2F315E27D8FFFAFFFFFF7FFFF2
:10324800AEFF01FFE06A95FD02FFAFFF7FFFFFFFC2
:10325800FAFF00CA35E07E10E8EFD9FF8BEB5DFF7F
:10326800886B9D935C215240A4FF82FFD5FFEBFF42
:10327800FFFF5FFFAACF3038D5FFF3FFF6FFEFFF60
:103288009EFF2DFEC1FF7FBF40CF2FCFA7CF27CFF7
:10329800AFAF5F5FBFFFBFDF3FFCFDFCFFFCFDFC86
:1032A800FDFCFDFCFDFCF9FCF9BF4A7F95FF2BFFF7
:1032B8001DFF5EFF2FFF7EFF5DF60DDB25E09FE81B
:1032C80095D0AAE01DF088E01800058040FFBF7F78
:1032D800BF3FFF1F7F1FDF1F5F30E81E2DFFFFFF6F
:1032E800FFFFFFFFFFFFFFFFFF00020080FFFFFF60
:1032F800FFFFFFFFFFFFFFFFFF00150002C030FFC9
:10330800FFFFFFFFFFFFFFFFFF0FCF1F1F3FFFFF65
:10331800FFFFFFFFFFFFFFFFFFFFFFFFFFFEFFFEB7
:10332800FCFCFEFCFCFCFCFCFC8F921F251F630FC1
:10333800371F470F330F171F83FF28FF7EFFFDFF3F
:10334800BEFF5FFFBEFF7FFFEE8051DF139F5FDF91
:103358009FDF1FDF9F9F5FDF1FE0C1F0F9FEFDFECB
:10336800FEFEFFFFFEFFFFFFFF41F6822D01560024
:103378002701060251012201A8FF15FF3EFF5FFF4A
:103388003F7F9FBF4F5FA5E71AEF1FEF87EFC7EF9C
:103398008FEFDFEFBFEFDFEFBFFCFDFCFDFCFFFEB3
:1033A800FCFFFFFEFFFCFCF8FDFF2A7F90BD4257A3
:1033B800A8FF7F053A2BD45FA0D028A05800F4C0FE
:1033C80030E0F470BBB85E73871F1F1F5F1F1F1F9D
:1033D8003F3F1F3F7F7FBFFFFFFFFFFFFFFFFFFF55
:1033E800FFFFFFF0E882DD1768FFFFFFFFFFFFFF29
:1033F800FFF8E6057ABF40FF57FFFFFFFFFFFFFF1B
:10340800FF0102708FFD2AFF54FFFFFFFFFFFFFF40
:10341800FFFFFF7FFF3FBF9F5FFCFCFCFEFEFCFE43
:10342800FCFEFEFEFFFFFFFFFF0F15178A0A95013E
:103438001E0F37186F34DBCBF4FFDFFFBEFF557F5D
:103448008AFFC0FF7E56A9F9069F7FBF5FBF3FBFB7
:103458007F7FFFFFFF81637A85FFFFFFFFFFFFFF8D
:10346800FFFFFFFFFFFFF3C0E0800980C101920268
:1034780021030C07BA9F6F053AF36D7BB43DDA3D23
:10348800D23ED9FF10FFFFCE31EF4FEF8FCF3F5F16
:103498008F9F7F3FBF7FFF9F5FF8F9F8FBF8F9F830
:1034A800FBF8FBF9FAF8FFF9FAFF0A7F9DFF3E7F68
:1034B8009FFF3E7FFFFF3AFF55E039E050F028F0CC
:1034C80009E098F049E09AF0A1FEFEFC7F7DFC7DC2
:1034D8007C7C7D7C7D7C7D7D7C3FC2FF15FFAEFFC3
:1034E8007BFF3CFF7EFF2E7F95FFBCFFE9FF7FFF40
:1034F8002FFFD7FF6BFFB5FF5AFFFAFFFCFFECFF6A
:1035080076FFBCFFFEFF7CFFAACF0F47A78367C3E8
:1035180021837143A7875703E7FFFFFFFFFFFFFFE3
:10352800FFFFFFFFFEFFFEFFFE87E887390FE30F6F
:1035380051070B0F010709032CFDFAFED1FFEFFF1E
:10354800FFFFDFFFCFFFEFFFD7FFF0BF5C9F6EEFFE
:1035580094FFCEFFD6FFECFFDA14ABBF4AFF11BFD2
:10356800D3FF0FFF9FFFCFFF9F7FA8FF15FF4FFFE0
:10357800F7FFFDFFBFFFDFFFDEFFCBFFB6FFFFFF5B
:10358800FFFFFFFFF7FFCFFFAACF2FAFCFCF3FFF40
:103598004FEFBFEFC7EFA7EF4FF9FAFCFBFEFDFFB8
:1035A800FFFEFDFCFCF8FDF8FBFFB9FF5A7EB5FFF6
:1035B8003F2F5015EA7E81FF1DE01BC035A052C089
:1035C800EDE51B50ADE014F04A7C7F7E7E7FFFFF67
:1035D8007FFFFFFFFF7FFF7FBFBF4016E900C3E00B
:1035E800D0FFF9FFFFFFFFFFFFF50AA25DFF7F385D
:1035F80057E1FEE2EDE5EAE3ECFE15FC03FFFF759B
:10360800AA2FD0AF52EF11AF73835303C183E16385
:10361800D7BF6FC72F8767C7A7055A07180FB79B6C
:103628006CC78A8F951F830F17FF0E5FA0FDE2BF3F
:103638004BFA85FF54FFEBFFFCFEADF50AA957E1F5
:10364800DA874A5FBFDF1FDFBFBFD6DFABA55A00EF
:10365800D40081FFFFFFFFFFFFFFA8FF00D42B006E
:10366800001F67FFFFFFFFFFFFFF045FA0000003CD
:103678008DFFFFFFFFFFFFFFFFEF1F9F4F7FBFFF84
:10368800FFFFFFFFFFFFFFFFFFF9FAF9FAF9FAF86A
:10369800FBF9FCFCF9FCFEFEFFFF7FFF3DFF7BFF13
:1036A80073FF56FF25BF407F8BE0B9F068F8E5F05F
:1036B800CCF8A5F44AE815F6C93F7F3F3F3F3F3FA6
:1036C8009F3F1F3FBF3F7F7FBFE7C8C3DDCFD0C746
:1036D800D9CFD2E7C8F3E4FFFFAFF1FF23EF72FFC2
:1036E8006777EA77F9FF72FCFBC7A3C327E383C3B5
:1036F8002BE30BC323C32BE353FEFFFEFEFEFEFEAC
:10370800FEFEFEFEFFFFFFFFFF1F070F131F270F21
:10371800130738014A049A9FEEFFE2FF4FFFFFFFAD
:10372800FAFFB4FE0178B5D728DF0FDF8FDF1F9FC0
:103738007F3FBF7F7FFFFF3FBFFFFFFEFDFCFEFC1B
:10374800FCFCFDFDF8FCF9FDF8CDB216293DD27E52
:10375800A9FF5CFF38FF73FFAB6095857A5EA1FF18
:103768000AFF17FFEEFFF5EF9B004150ACBC43FE8C
:1037780011FF6AFFF6FFCAFF1CF87400234F90BFC1
:1037880045FF8BFF97FF8FFF8E0007BF40FF05FFA8
:10379800ABFFD6FFA9DF22AF57BF40FFCAFF84CFD8
:1037A80032AF54FF00FF95FF2FF7EB9F6F478F83D2
:1037B80047C30B8363C321C321FFFFFFFFFFFFFF45
:1037C800FFFFFEFFFEFFFEFFFFC2AD8592038D07E0
:1037D8000B0F050F030F270F02AF52FF15FFAAFFAC
:1037E800F7FFEBFFE7FFCFBF5E9F5FDF3FFF9FEF76
:1037F800DFEFBFEFCFCFFFAFCFFDFCFCFDFCFEFE40
:10380800FFFFFFFFFFFFFFFFFFFFDBFF657F800775
:1038180098FEFDFFFFFFFFFFFFCF361FEBFF06FF00
:103828000000A3FFF7FFFFFFFFFFFAFFF4FEA9FC6C
:103838000200CCFFFFFFFFFFFFBFC5DFA2AF504371
:10384800BC31CAFEFDFFFFFFFFDF2EFF5CFFA0FDBE
:103858000268960F17FFFFFFFFFF17FF4A5FE06A36
:10386800B5306FFFFFFFFFFFFF836103C3438B8307
:1038780053070BFFFFFFFFFFFF072E0F4707AB871D
:10388800C9E3D4FCFAFFFFFFFF3FCDFF1EFFFDFF9A
:103898006AFF000089FFFFFFFFCF2F8F674FA78FB9
:1038A8006F0FDF3F5FFFFFFFFF0052008000000146
:1038B800021E0F7F36FE68FD700A1026044C989091
:1038C800A8005000E47F80FF0000510000000000C5
:1038D80001010403A9FF03FF031025603040818024
:1038E80001800000823E417D022274CC489008008D
:1038F800200005002AFF00FF0008A01D081009008D
:10390800B00024204AED72FF40A041702040100012
:10391800480000018AFF00FF000014002000600139
:1039280040028180563EC37F8100454080804080B0
:1039380000000000147A85FF000442001408050006
:1039480009004000207F80FF000095000200000071
:10395800000094804ABF40FF00802880954060386E
:10396800101C000AA1F70AF7190012000000000055
:1039780000004100287986FF0010A10840000400DB
:1039880000000000A1FF00FF0000210080000000EF
:10399800031F073F5EFF34FE69002C020100000090
:1039A800008040C0A287780FF000520001408120BB
:1039B8000000100081FD02FF00000900C020500037
:1039C80004000000167F80FF00402520100018002A
:1039D8000404020C23F40BF906000A002118000461
:1039E8000A0050002AFF00FF00BB50C334E31CFD4F
:1039F80002FF00FF00FF00FF00FF00FF00FF00FFC5
:103A080000FF00FF00FF00FF00FF01FF01FF00FFB4
:103A180000FF00FF00FF00FF007F80FF00FF00FFA6
:103A280000FF00FF00FF00FF00FF00FF00FE01FF96
:103A380000FB04FF00FF00FF00FF007F80FF00FF86
:103A480000FF00FF00FF00FF00FF01FF00FF00FF75
:103A580001FF00FF00FF00FF007F80DFE0EFF0FFC5
:103A680030FF08EF18F70CFF00FF11FF31EF30DFD0
:103A780060FF40FF00FF00FF00FF80BFC0FF80FF26
:103A880000FF00FF00FF00FF00FC23F806E01EF027
:103A980008FE01FF00FF00FF000F501F801F003FBE
:103AA80040FF00FF00FF00FF00FD02FF00FF00FFD6
:103AB80000FF00FF00FF00FF00FF00FF00F708FB0A
:103AC80004FF00FF00FF00FF00FF007F80FF40F9B8
:103AD80036EF1FF60BFD06FC07FF00DF30BF50FF77
:103AE800E08FF03BCC5DA6FE07FF00FF00FF00FF64
:103AF80001FF00FF00FF00FF00FF00FF00FF00FFC5
:103B080000FF80FF50FF88FF40FF00FF00FF00DF3D
:103B180020BF403FC0FF00FF00FF00FF00FF00FF85
:103B280000FF007F80BF40FF00FF00FF00FF00FF95
:103B380000FF00FC02F804E010FF00FF00FF00FF98
:103B4800003FE01F301F683FC8FF00FF00FF0CFF69
:103B580008FF04FF00FF00FF00FF00FF00FF00FD5B
:103B680000FF00FD00FD00FF00C3009900910091D7
:103B7800009F009D00C300FF00C1009800980080CE
:103B880000980098009800FF0081008C008C00814C
:103B9800008C008C008100FF00C100980098009FF5
:103BA8000098009800C100FF0081009800980098D4
:103BB80000980098008100FF0080008F008F00802F
:103BC800008F008F008000FF0080008F008F008032
:103BD800008F008F008F00FF00C10098009F0090A9
:103BE8000098009800C100FF008C008C008C0080B9
:103BF800008C008C008C00FF00C100E300E300E3B0
:103C080000E300E300C100FF00F800F800F800F846
:103C180000F8009800C100FF008C008C008C008127
:103C280000980098009800FF008F008F008F008F89
:103C3800008F008F008000FF008100A400A400A472
:103C480000A400A400A400FF008100980098009838
:103C580000980098009800FF00C1008C008C008C30
:103C6800008C008C00C100FF0081008C008C00815A
:103C7800008F008F008F00FF00C1008C008C008C2B
:103C88000088008800C100F90081008C008C008148
:103C980000980098009800FF00C1008C008F00C1B8
:103CA80000F8009800C100FF008000E300E300E393
:103CB80000E300E300E300FF008C008C008C008C24
:103CC800008C008C00C100FF008C008C008C008CE4
:103CD80000C100E300F700FF0092009200920092FA
:103CE80000920092008000FF008C008C008C00C1C4
:103CF80000980098009800FF008C008C008C008CC5
:103D080000C100E300E300FF0080008C00F900F32D
:103D180000CF0098008000FF00C100C700C700C79F
:103D280000C700C700C100FF00F300ED00CF00830B
:103D380000CF009D000300FF00C300F300F300F371
:103D480000F300F300C300FF00FF00E700C3008199
:103D580000E700E700E700E700FF00EF00CF008082
:103D6800008000CF00EF00FF00FF00FF00FF00FF12
:103D780000FF00FF00FF00FF00C300C300C300C333
:103D880000E700FF00E700E700980088008C00FFCC
:103D980000FF00FF00FF00FF008900890000008984
:103DA80000000089008900FF00F70080008C00F700
:103DB8000098008000FF00FF009D009900F300E7D5
:103DC80000CF009900B900FF00C0008F008900C033
:103DD8000089008900C100FF00F800F100E300FF3E
:103DE80000FF00FF00FF00FF00F300C700C700C787
:103DF80000C700C700F300FF00CF00E700E300E3BF
:103E080000E300E700CF00FF00F700D500E30080E3
:103E180000E300D500F700FF00FF00E700E700819E
:103E280000E700E700FF00FF00FF00FF00FF00FFC2
:103E380000FF00E300E300F300FF00FF00FF008144
:103E480000FF00FF00FF00FF00FF00FF00FF00FF72
:103E580000FF00E300E300FF00FF00FC00F900F3AF
:103E680000E700CF009F00FF00C10098009000808D
:103E78000088009800C100FF00E300E300C300E3EE
:103E880000E300E300C100FF00C1009800F800C192
:103E9800009F0098008000FF00C1009800F800E132
:103EA80000F8009800C100FF008100910091009186
:103EB800008000F100F100FF00800098009F008161
:103EC80000F8009800C100FF00C10098009F008121
:103ED8000098009800C100FF0081009100F100E304
:103EE80000E300C700C700FF00C1008C008C00C1C0
:103EF800008C008C00C100FF00C1008C008C00C049
:103F080000FC008C00C100FF00FF00E300E300FF9D
:103F180000E300E300FF00FF00FF00FF00E300E311
:103F280000FF00E300E300C700F100E700CF008FC7
:103F380000CF00E700F100FF00FF00FF008100FF55
:103F4800008100FF00FF00FF008F00E700F300F191
:103F580000F300E7008F00FF0080008C00FC00E009
:103F680000E700FF00E700FF00003C38467CB27C19
:103F7800B27C8238440038000000000038387438B9
:103F88007438440038000000000000000010283891
:103F98001010280000000000000000000000103091
:103FA80018001000000000000000000000000000E1
:103FB80000000000000000000000000000000000F9
:103FC80000000000000000000000000000000000E9
:103FD80000000000000000000000000000000000D9
:103FE80000000000000000000000000000000000C9
:1044A8000001020304050708090A0B0C0D0F10117F
:1044B80012131415161718191A1B1C1D1E1F20215C
:1044C8002122232425252627272829292A2A2B2B78
:1044D8002C2C2D2D2D2E2E2E2F2F2F2F2F2F2F2FF3
:1044E800302F2F2F2F2F2F2F2F2E2E2E2D2D2D2CDF
:1044F8002C2B2B2A2A29292827272625252423223D
:104508002121201F1E1D1C1B1A19181716151413FC
:104518001211100F0D0C0B0A0908070504030201FC
:1045280000FEFDFCFBFAF8F7F6F5F4F3F2F0EFEE17
:10453800EDECEBEAE9E8E7E6E5E4E3E2E1E0DFDE1B
:10454800DEDDDCDBDADAD9D8D8D7D6D6D5D5D4D4DF
:10455800D3D3D2D2D2D1D1D1D0D0D0D0D0D0D0D044
:10456800D0D0D0D0D0D0D0D0D0D1D1D1D2D2D2D337
:10457800D3D4D4D5D5D6D6D7D8D8D9DADADBDCDDBA
:10458800DEDEDFE0E1E2E3E4E5E6E7E8E9EAEBECDA
:10459800EDEEEFF0F2F3F4F5F6F7F8FAFBFCFDFEBA
:1045A8000001020304050708090A0B0C0D0F10117E
:1045B80012131415161718191A1B1C1D1E1F20215B
:1045C8002122232425252627272829292A2A2B2B77
:1045D8002C2C2D2D2D2E2E2E2F2F2F2F2F2F2F2FF2
:1045E800302F2F2F2F2F2F2F2F2E2E2E2D2D2D2CDE
:1045F8002C2B2B2A2A29292827272625252423223C
:104608002121201F1E1D1C1B1A19181716151413FB
:104618001211100F0D0C0B0A0908070504030201FB
:1046280000FEFDFCFBFAF8F7F6F5F4F3F2F0EFEE16
:10463800EDECEBEAE9E8E7E6E5E4E3E2E1E0DFDE1A
:10464800DEDDDCDBDADAD9D8D8D7D6D6D5D5D4D4DE
:10465800D3D3D2D2D2D1D1D1D0D0D0D0D0D0D0D043
:10466800D0D0D0D0D0D0D0D0D0D1D1D1D2D2D2D336
:10467800D3D4D4D5D5D6D6D7D8D8D9DADADBDCDDB9
:10468800DEDEDFE0E1E2E3E4E5E6E7E8E9EAEBECD9
:10469800EDEEEFF0F2F3F4F5F6F7F8FAFBFCFDFEB9
:1046A800000001020303040506060709090A0C0CA9
:1046B8000E0F111113141617181B1C1D1F2022236F
:1046C8002627292A2C2E30313234363738393B3BCD
:1046D8003D3D3F3F40414141424241414241403FCF
:1046E800403F3E3D3C3B393836353331302D2B2960
:1046F800272523211E1D1A18161312100E0C0B093C
:104708000605040201FFFEFDFCFBFAFAF9F9F9F9C6
:10471800F8F8F8F8F9F9F9FAFAFBFCFDFDFEFF00E4
:104728000000010203030405060607070708080836
:10473800080707070706060504030201FFFEFCFB3E
:10474800FAF7F5F4F2F0EEEDEAE8E6E3E2DFDDDBB6
:10475800D9D7D5D3D0CFCDCBCAC8C7C5C4C3C2C19A
:10476800C0C1C0BFBEBFBFBEBEBFBFBFC0C1C1C347
:10477800C3C5C5C7C8C9CACCCECFD0D2D4D6D7D95D
:10478800DADDDEE0E1E3E4E5E8E9EAECEDEFEFF1BC
:10479800F2F4F4F6F7F7F9FAFAFBFCFDFDFEFF0078
:1047A800000001020303040506060709090A0C0CA8
:1047B8000E0F111113141617181B1C1D1F2022236E
:1047C8002627292A2C2E30313234363738393B3BCC
:1047D8003D3D3F3F40414141424241414241403FCE
:1047E800403F3E3D3C3B393836353331302D2B295F
:1047F800272523211E1D1A18161312100E0C0B093B
:104808000605040201FFFEFDFCFBFAFAF9F9F9F9C5
:10481800F8F8F8F8F9F9F9FAFAFBFCFDFDFEFF00E3
:104828000000010203030405060607070708080835
:10483800080707070706060504030201FFFEFCFB3D
:10484800FAF7F5F4F2F0EEEDEAE8E6E3E2DFDDDBB5
:10485800D9D7D5D3D0CFCDCBCAC8C7C5C4C3C2C199
:10486800C0C1C0BFBEBFBFBEBEBFBFBFC0C1C1C346
:10487800C3C5C5C7C8C9CACCCECFD0D2D4D6D7D95C
:10488800DADDDEE0E1E3E4E5E8E9EAECEDEFEFF1BB
:10489800F2F4F4F6F7F7F9FAFAFBFCFDFDFEFF0077
:1048A8000000000000000000000000000000000000
:1048B80000000000000000000000000000000000F0
:1048C80000000000000000000000000000000000E0
:1048D80000000000000000000000000000000000D0
:1064A800C35640C38840C3E040C30041C3E84043EB
:1064B8004152494C4C4F4E20504C41594552205660
:1064C800657273696F6E20312E302028632932304F
:1064D800303020416C656B736920456562656E20BC
:1064E80028656D61696C3A616C656B736940636EB0
:1064F80063642E6669293E80E026AF2110FF0E0AEC
:1065080022220D20FB21C0C70E1822220D20FB3E9F
:1065180077E024EAD4C73E01EAC6C7EACCC7EAD284
:10652800C7EAD9C7EAC0C7C921C0C7AF223E0722F8
:106538003E0122AF222C2F772EC6CBC6CB4E200889
:106548003E08E0123E80E0142ECCCBC6CB4E20088D
:106558003E08E0173E80E0192ED27EE6FBF6017772
:10656800CB4E200BAFE01C2EE622772FEAD4C72EA5
:10657800D9CBC6CB4E20083E08E0213E80E023C997
:1065880021C0C73E017718B021F240856F7EEAC569
:10659800C7C9FF7F3FBF1F5F9FDF000000000000EB
:1065A800AF21DCC7222AB7282FCB7F20232A86E6F3
:1065B8001F2D477EE6E080776F26477EEAE1C7CB4E
:1065C8007F2006AFEAE3C7180F3EFFEAE3C71808C3
:1065D8002EE02A86222A8E7721C6C72AB7C2EE4124
:1065E80035C2D74111C8C71A6F2648E60FB720131E
:1065F8007DCB37E60FC6C04F06470A47F025E6EEC3
:10660800B0E0257EB7285247E6F0F608E01278E6B3
:106618000F1D12242ACB2FCB18CB2FCB18876778C6
:10662800E6C0E0117D1C1206461C1A844FFADDC72D
:10663800CB47200F0AE0131C120C0A1C12F680E04C
:1066480014184B0A0C1C121C21E1C786E0130A120D
:106658002EE38EF680E014183524462FA828097DED
:10666800E6F080126F25189B3E08E0123E80E01489
:1066780021C6C7CBC6181721DDC7CB46281011CABB
:10668800C71A1C2EE186E0131A2EE38EE01421CCE3
:10669800C72AB7C2A54235C28E4211CEC71A6F2685
:1066A80048E60FB720147DCB37E60FC6C04F064724
:1066B8000A8747F025E6DDB0E0257EB7285247E691
:1066C800F0F608E01778E60F1D12242ACB2FCB1816
:1066D800CB2FCB18876778E6C0E0167D1C120646DC
:1066E8001C1A844FFADDC7CB4F200F0AE0181C1282
:1066F8000C0A1C12F680E019184B0A0C1C121C21FB
:10670800E1C786E0180A122EE38EF680E0191835E4
:1067180024462FA828097DE6F080126F25189B3E95
:1067280008E0173E80E01921CCC7CBC6181721DD39
:10673800C7CB4E281011D0C71A1C2EE186E0181AB4
:106748002EE38EE01921D2C72AB7C2AD4335C293D2
:106758004311D5C71A6F264AE60FB720157DCB37E8
:10676800E60FC6D04F06470A878747F025E6BBB035
:10677800E0257EB7201A24462FA828097DE6F08058
:10678800126F2518EDAFE01C21D2C7CBC6C3AD43AD
:1067980047E6F01D4F1AB92841E579126F264CAF2C
:1067A800E01A2AE0302AE0312AE0322AE0332AE0EF
:1067B800342AE0352AE0362AE0372AE0382AE03958
:1067C8002AE03A2AE03B2AE03C2AE03D2AE03E7EE5
:1067D800E03F3E80E01AEADCC7E178E60F1ED312FC
:1067E800242ACB2FCB18CB2FCB1887CB286778E65A
:1067F80060E01C7D1ED51206461C1A844FFADDC7C0
:10680800CB5720140AE01D1C120C0A1C1221DCC7ED
:1068180086E01EAFE01B18350A0C1C121C21E1C7CC
:1068280086E01D0A122EE38E21DCC786E01EAFE04B
:106838001B181A21DDC7CB56281311D7C71A1C2ECF
:10684800E186E01D1A2EE38EE01EAFE01B21D9C7BA
:106858002AB7205E35205B11DBC71A6F264DE60F7D
:10686800B720167DCB37E60FC6E04F06470A878765
:106878008747F025E677B0E0257EB7281947E6F088
:10688800F608E02178E60F1D12242AE0227D1C126A
:106898003E80E023181C24462FA828097DE6F080B6
:1068A800126F2518D43E08E0213E80E02321D9C785
:1068B800CBC621C0C72AB7C02A352806CB2FBEC0F1
:1068C8001801772CAFB6201C2C2C345E164F1AB743
:1068D80020101C1A2FB720053CEAC0C7C92F775FC4
:1068E80018EC2D3216C72A666F2AB728181EC9CB8E
:1068F800472805E6FE12180D127E1D121D3E0112D4
:106908001D1AE6FE122C2AB728181ECFCB472805D9
:10691800E6FE12180D127E1D121D3E01121D1AE60A
:10692800FE122C2AB72823FEFF284E1ED6CB472856
:1069380005E6FE121814127E1D121D3EFE121D2FB2
:1069480012AFEAE6C71D1AE6FA122C2AB7280EE695
:10695800FE1EDB121D3E01121D1AE6FE122A471EFC
:10696800C37D1278B7280ECB37E60F87C6E02646D8
:106978006F2A666FE9EADDC7C91EE73E05127EC6C3
:10698800F04F06470A87871C127E87C6C006464F07
:106998001CAF121C0A120C1C0A1218AE78E60787E4
:1069A800CB3721DEC732AF77C978E60FEADFC7AF4A
:1069B800EADDC7C978E60F21E0C722AF222277EACD
:1069C800DDC7C978E60F2F21E0C722AFEADDC7226D
:1069D8002C3236FFC978E60F21C1C72277AFEADD2E
:1069E800C7C9AFEAC3C7EADDC7C978E60FEADDC79A
:1069F800C978E60FF680EADDC7C90000000000008C
:106A0800000000000000000000000000000000007E
:106A1800000000000000000000000000000000006E
:106A2800000000000000000000000000000000005E
:106A3800000000000000000000000000000000004E
:106A4800000000000000000000000000000000003E
:106A5800000000000000000000000000000000002E
:106A6800000000000000000000000000000000001E
:106A7800000000000000000000000000000000000E
:106A880000000000000000000000000000000000FE
:106A980000000000000000000000000000000000EE
:106AA8002C009D0007016B01C90123027702C70270
:106AB800120358039B03DA032C009D0007016B01A6
:106AC800C90123027702C702120358039B03DA03A2
:106AD80016044E048304B504E50411053B0563055B
:106AE8008905AC05CE05ED050B06270642065B06B3
:106AF800720689069E06B206C406D606E706F7069B
:106B08000607140721072D07390744074F075907B8
:106B180062076B0773077B0783078A079007970746
:106B28009D07A207A707AC07B107B607BA07BE07B4
:106B3800C107C507C807CB07CE07D107D407D607B3
:106B4800D907DB07DD07DF07C107C507C807CB077C
:106B5800CE07D107D407D607D907DB07DD07DF073C
:106B68000001000100010001000100010001000115
:106B78000001000100010001000100010001000105
:106B880059454A455145FC44094514452345354571
:106B98004245594559455945594559455945594514
:106BA80000000001010101010201010101010000D1
:106BB80000FFFEFDFDFCFCFCFCFCFCFCFDFDFEFFFB
:106BC80000000101020202020302020202010100A6
:106BD80000FEFDFCFBFBFAFAFAFAFAFBFBFCFDFEF1
:106BE8000001020304040505060505040403020167
:106BF80000FDFBF9F7F6F4F4F4F4F4F6F7F9FBFD0D
:106C080000010305070809090A090908070503011E
:106C180000FCF8F4F1EFEDECECECEDEFF1F4F8FC3E
:106C2800000205080A0C0D0E0F0E0D0C0A080502CD
:106C380000FAF4EFEAE7E4E2E2E2E4E7EAEFF4FA82
:106C48000003070B0E101213141312100E0B070378
:106C580000F8F0E9E3DEDBD8D8D8DBDEE3E9F0F8CA
:106C6800111111111111111111111111111111110C
:106C780011111111111111111111111111111111FC
:106C880011111111111111111111111111111111EC
:106C980011111111111111111111111111111111DC
:106CA800A483624000000000000000000000000013
:106CB800A9866332200000000000000000000000E8
:106CC80082828222222200000000000000000000D0
:106CD80082828222222200000000000000000000C0
:106CE800828282826262626200000000000000000C
:106CF80082828262626200000000000000000000E0
:106D0800B4B37343333303000000000000000000F5
:106D1800D1A97563400000000000000000000000D9
:106D2800000000000000000000000000000000005B
:106D3800000000000000000000000000000000004B
:106D4800000000000000000000000000000000003B
:106D5800000000000000000000000000000000002B
:106D6800000000000000000000000000000000001B
:106D7800000000000000000000000000000000000B
:106D880000000000000000000000000000000000FB
:106D980000000000000000000000000000000000EB
:106DA80002020202FFFFFFFFFFFFFFFFFFFFFFFFDF
:106DB800D102020201FFFFFFFFFFFFFFFFFFFFFFFE
:106DC80001111D00101C03FFFFFFFFFFFFFFFFFF66
:106DD800010D1D000C1C03FFFFFFFFFFFFFFFFFF5E
:106DE80001111D2900101C2804FFFFFFFFFFFFFFF2
:106DF80001151D00141C03FFFFFFFFFFFFFFFFFF2E
:106E0800321E02EED2BEA2FFFFFFFFFFFFFFFFFF11
:106E18000A02020202FFFFFFFFFFFFFFFFFFFFFF63
:106E2800FFFFFFFFFFFFFFFFFFFFFFFFFFFFFFFF6A
:106E3800FFFFFFFFFFFFFFFFFFFFFFFFFFFFFFFF5A
:106E4800FFFFFFFFFFFFFFFFFFFFFFFFFFFFFFFF4A
:106E5800FFFFFFFFFFFFFFFFFFFFFFFFFFFFFFFF3A
:1070A800FFFF0000000000000000000000000000DA
:1070B800FFFFFFFF000000000000000000000000CC
:1070C800FFFFFFFFFFFFFFFF0000000000000000C0
:1070D800FFFFFFFFFFFFFFFFFFFFFFFF00000000B4
:1070E800FFEEDDCCBBAA99887766554433221100A0
:1070F800EFEDDDCBBBA99988776665444322210172
:10710800CFFEDDCCBBAA998877665544333210038D
:10711800BFFECBBBBBAA988877765544444310047E
:10712800BEFFFEDCBA99888877776654321000145F
:10713800BDEEFFEEEDCCBA98765433211100112440
:10714800FCECCBBBBAA998887776655544433230B6
:10715800FECDCBCBAAA999887776655543432310F2
:10716800EFDBBCDBA9AA98778876556543344201E2
:10717800CFFECA99AAAA99887776555666541003FD
:10718800BEFFEDBA988888888777777654310014DF
:10719800CEFFFFFEEDCCBA987654332110000013D1
:1071A80000000000000000000000000000000000D7
:1071B80000000000000000000000000000000000C7
:1071C80000000000000000000000000000000000B7
:1071D80072640000000000000000000000000000D1
:1071E800A2000000000000000000000000000000F5
:1071F800C2924346000000000000000000000000AA
:10720800B29262420000000000000000000000008E
:10721800A3835326000000000000000000000000C7
:107228000000000000000000000000000000000056
:107238000000000000000000000000000000000046
:107248000000000000000000000000000000000036
:107258000000000000000000000000000000000026
:107268000000000000000000000000000000000016
:107278000000000000000000000000000000000006
:1072880000000000000000000000000000000000F6
:1072980000000000000000000000000000000000E6
:1072A800FFFFFFFFFFFFFFFFFFFFFFFFFFFFFFFFE6
:1072B800FFFFFFFFFFFFFFFFFFFFFFFFFFFFFFFFD6
:1072C800FFFFFFFFFFFFFFFFFFFFFFFFFFFFFFFFC6
:1072D8002100FFFFFFFFFFFFFFFFFFFFFFFFFFFF93
:1072E80000FFFFFFFFFFFFFFFFFFFFFFFFFFFFFFA5
:1072F80088988999FFFFFFFFFFFFFFFFFFFFFFFF50
:1073080089998999FFFFFFFFFFFFFFFFFFFFFFFF3D
:1073180044442334FFFFFFFFFFFFFFFFFFFFFFFF92
:10732800FFFFFFFFFFFFFFFFFFFFFFFFFFFFFFFF65
:10733800FFFFFFFFFFFFFFFFFFFFFFFFFFFFFFFF55
:10734800FFFFFFFFFFFFFFFFFFFFFFFFFFFFFFFF45
:10735800FFFFFFFFFFFFFFFFFFFFFFFFFFFFFFFF35
:10736800FFFFFFFFFFFFFFFFFFFFFFFFFFFFFFFF25
:10737800FFFFFFFFFFFFFFFFFFFFFFFFFFFFFFFF15
:10738800FFFFFFFFFFFFFFFFFFFFFFFFFFFFFFFF05
:10739800FFFFFFFFFFFFFFFFFFFFFFFFFFFFFFFFF5
:1073A8005051525354555657585955565758595A7B
:1073B8005B5C5D5E55565758595556575859555642
:1073C80057585F6056575859616263646566000094
:1073D80000000000000000000000000000000000A5
:1073E8000000000000000000000000000000000095
:1073F8000000000000000000000000000000000085
:107408000000000000000000000000000000000074
:107418000000000000000000000000000000000064
:107428000000000000000000000000000000000054
:107438000000000000000000000000000000000044
:107448000000000000000000000000000000000034
:107458000000000000000000000000000000000024
:107468000000000000000000000000000000000014
:107478000000000000000000000000000000000004
:1074880000000000000000000000000000000000F4
:1074980000000000000000000000000000000000E4
:1074A80056101C000000007A0000000000000000D8
:1074B80000002A000000000000000000000000009A
:1074C80064104C20000000000000000000000000D4
:1074D80000004C2000000000000000000000000038
:1074E80064101C00000000000000240000000000E0
:1074F80000004C2000000000000000000000000018
:1075080054102A00000000000000000000000000E5
:1075180000004C20000000000000000000000000F7
:107528005E102600000000000000000000000000BF
:1075380000005620000000000000000000000000CD
:1075480000005620000000000000000000000000BD
:1075580000005620000000000000000000000000AD
:107568005A10340000000000000000000000000075
:10757800000056200000000000000000000000008D
:10758800000056200000000000000000000000007D
:107598005410562000000000000000000000000009
:1075A8005A101C000000007A0000000000000000D3
:1075B80000004C2000000000000000000000000057
:1075C8004C104C20000000000000000000000000EB
:1075D80000001C0000000000000000000000000087
:1075E80000001C0000000000000000000000000077
:1075F80000004C2000000000000000000000000017
:107608004C104C20000000000000000000000000AA
:1076180000004C20000000000000000000000000F6
:10762800000024000000000000000000000000002E
:1076380000005430000000000000000000000000BE
:1076480054102400000000000000000000000000AA
:10765800000054300000000000000000000000009E
:107668005A10240000000000000000000000000084
:10767800000054300000000000000000000000007E
:10768800541024000000000000000000000000006A
:10769800000054300000000000000000000000005E
:1076A80054102E000000007A0000000000000000C6
:1076B800000046300000000000000030000000001C
:1076C80000002E0000000000000000000000000084
:1076D800000046300000000000000000000000002C
:1076E80054102E0000000000000000000000000000
:1076F8000000000000000000000000000000000082
:107708004C10000000000000000000000000000015
:1077180000004630000000000000000000000000EB
:1077280050102000000000000000000000000000D1
:107738000000000000000000000000000000000041
:107748005010503000000000000000000000000051
:1077580000005030000000000000000000000000A1
:1077680000002A00000000000000000000000000E7
:10777800000042200000000000000000000000009F
:107788005E10422000000000000000000000000021
:10779800000042200000000000000000000000007F
:1077A8005A1024000000007A0000000000000000C9
:1077B80000000000000000000000000000000000C1
:1077C8005A104C20000000000000000000000000DB
:1077D80000004C2000000000000000000000000035
:1077E8005A10240000000000000000000000000003
:1077F8000000000000000000000000000000000081
:1078080050104C20000000000000000000000000A4
:1078180000004C20000000000000000000000000F4
:1078280054102600000000000000000000000000C6
:107838000000000000000000000000000000000040
:1078480000003E20000000000000000000000000D2
:1078580000003E20000000000000000000000000C2
:10786800501026000000000000000000000000008A
:107878000000000000000000000000000000000000
:107888004C103E2000000000000000000000000036
:1078980000003E2000000000000000000000000082
:1078A80050102A000000007A0000000000000000CC
:1078B80000000000000000000000000000000000C0
:1078C80046104240000000000000000000000000D8
:1078D800000042400000000000000000000000001E
:1078E80000002A0000000000000000000000000066
:1078F8000000000000000000000000000000000080
:107908004C10424000000000000000000000000091
:1079180000004240000000000000000000000000DD
:107928004C103400000000000000000000000000BF
:10793800000000000000000000000000000000003F
:10794800000034500000410000000000000000006A
:10795800000034500000610000000000000000003A
:107968004C1034000000710000000000000000000E
:10797800000000000000410000000000000041007D
:10798800000034100000310000000000000000007A
:10799800000034100000410000000000000000005A
:1079A80056102A000000617A000000000000000064
:1079B80000002A0000004100000000000000410013
:1079C80064104C20000000000000000000000000CF
:1079D80000004C2000003100000000000000000002
:1079E80064101C0000007100000024000000410029
:1079F80000004C2000000000000000000000000013
:107A080054102A00000031000000000000000000AF
:107A180000004C20000051000000000000000000A1
:107A28005E10260000006100000000000000000059
:107A380000005620000000000000000000000000C8
:107A48000000562000003100000000000000000087
:107A58000000562000005100000000000000000057
:107A68005A1026000000710000000000000000000D
:107A78000000562000006100000000000000000027
:107A88000000562000004100000000000000000037
:107A980054105620000041000000000000000000C3
:107AA8005A101C000000617A00000000000000006D
:107AB80000004C2000004100000000000000000011
:107AC8004C104C20000031000000000000000000B5
:107AD80000001C0000005100000000000000000031
:107AE80000001C0000007100000000000000000001
:107AF80000004C2000004100000000000000410090
:107B08004C104C2000004100000000000000000064
:107B180000004C2000006100000000000000000090
:107B280000002400000041000000000000000000E8
:107B380000006C3000005100000000000000000050
:107B48005410240000006100000000000000000044
:107B58000000543000004100000000000000410017
:107B68005A1024000000710000000000000000000E
:107B78000000543000004100000000000000000038
:107B88005410240000004100000000000000000024
:107B98000000543000003100000000000000000028
:107BA80054102E000000617A000000000000000060
:107BB8000000463000004100000000300000410095
:107BC80000002E000000610000000000000000001E
:107BD80000004630000051000000000000000000D6
:107BE80054102E000000710000000000000000008A
:107BF80000000000000041000000000000004100FB
:107C08004C100000000061000000000000000000AF
:107C18000000463000004100000000000000410064
:107C280050102000000000000000000000000000CC
:107C380000000000000041000000000000004100BA
:107C4800501050300000000000000000000000004C
:107C580000005030000061000000000000004100FA
:107C680000002A0000007100000000000000000071
:107C78000000422000003100000000000000000069
:107C88005E104220000051000000000000000000CB
:107C980000004220000041000000000000004100F8
:107CA8005A1024000000617A000000000000000063
:107CB80000000000000000000000000000000000BC
:107CC8005A104C2000004100000000000000000095
:107CD80000004C20000041000000000000000000EF
:107CE8005A1024000000710000000000000000008D
:107CF800000000000000000000000000000000007C
:107D080050104C200000410000000000000000005E
:107D180000004C20000041000000000000000000AE
:107D28005410260000006100000000000000000060
:107D380000000000000051000000000000000000EA
:107D480000003E200000000000000000000041008C
:107D580000003E200000410000000000000000007C
:107D68005010260000007100000000000000000014
:107D780000000000000031000000000000000000CA
