:020000040800F2
:1000000000000220C52100088105000885050008C0
:10001000890500088D050008910500080000000012
:10002000000000000000000000000000990500082A
:1000300095050008000000009D050008A1050008C6
:100040000D2200080D2200080D2200080D220008D4
:100050000D2200080D220008A50500080D22000849
:100060000D2200080D2200080D2200080D220008B4
:100070000D2200080D2200080D2200080D220008A4
:100080000D2200080D2200080D2200080D22000894
:100090000D2200080D2200080D2200080D22000884
:1000A0000D2200080D2200080D2200080D22000874
:1000B0000D2200080D2200080D2200080D22000864
:1000C0000D2200080D2200080D2200080D22000854
:1000D0000D2200080D2200080D2200080D22000844
:1000E0000D2200080D2200080D2200080D22000834
:1000F0000D2200080D2200080D2200080D22000824
:100100000D2200080D2200080D2200080D22000813
:100110000D2200080D2200080D2200080D22000803
:100120000D2200080D2200080D2200080D220008F3
:100130000D2200080D2200080D2200080D220008E3
:100140000D2200080D2200080D2200080D220008D3
:100150000D2200080D2200080D2200080D220008C3
:100160000D2200080D2200080D2200080D220008B3
:100170000D2200080D2200080D2200080D220008A3
:080180000D2200080D22000809
:1001880008B540F27040074BC2F200001B1A062B5C
:1001980000D808BD40F20003C0F20003002BF8D0DD
:1001A8009847F6E77304002008B540F2704040F223
:1001B8007043C2F20003C2F200001B1A9B1003EB4B
:1001C800D373591000D108BD40F20002C0F20002FA
:1001D800002AF8D09047F6E710B540F27044C2F212
:1001E8000004237873B9FFF7CBFF40F20003C0F295
:1001F80000032BB142F25450C0F60200AFF3008066
:100208000123237010BD00BF08B540F20003C0F2FF
:1002180000034BB142F2545040F27441C0F6020060
:10022800C2F20001AFF3008040F26C40C2F200005D
:1002380003682BB140F20003C0F2000303B19847F2
:10024800BDE80840B0E700BF134B002B08BF114BB7
:100258009D46A3F5803A00218B460F461148124A65
:10026800121A02F02FF80D4B002B00D098470C4BB8
:10027800002B00D098470020002104000D000B48F7
:1002880001F0C2FF01F0F0FF2000290001F074FF27
:1002980001F0C0FF0000080000000000000000009E
:1002A80000000000700400209C8400203D2200080B
:1002B80030B54FF4804085B0012100F0FDFD0021EC
:1002C800022000F0EDFE0823012500240DEB0300B9
:1002D8008DF80D3002958DF80E508DF80C4000F019
:1002E80087FA062301A88DF807508DF805408DF888
:1002F80006408DF8043001F027FE05B030BD00BF80
:1003080070B50420012100F09FFD40F28C43C2F239
:1003180000030726032502244FF4006000221E6014
:100328005D71DC711946C4F20200BDE870401A71B3
:100338009A7100F067BB00BF70B51020012100F072
:1003480083FD40F28C43C2F200034FF47F4603253D
:1003580002244FF4805000221E605D71DC71194642
:10036800C4F20200BDE870401A719A7100F04ABBED
:1003780070B50820012100F067FD40F28C43C2F2FD
:1003880000034FF6FF76032502244FF44060002255
:100398001E605D71DC711946C4F20200BDE8704050
:1003A8001A719A7100F02EBB70B50120014600F059
:1003B8004BFD40F28C43C2F20003002006460325A1
:1003C800022401229E715D71DC711946C4F202009B
:1003D800BDE870401A601A7100F014BB4FF4605306
:1003E800C4F202030022196841F0010119609A6001
:1003F800186843F2100120F08470C2F2004120F422
:10040800803018605960196882B021F48021196021
:10041800DA60009201921A6842F480321A601A4631
:1004280003E0009BB3F5A06F09D0136803F4003311
:100438000193009B01330093019B002BF1D04FF4F3
:100448006053C4F202031B6813F4003318BF01237E
:100458000193019B012B08D04FF46D43CEF20003AA
:100468004FF000629A6002B070474FF46053C4F2D4
:1004780002034FF4E042196CC4F2000241F08051CB
:100488001964116841F4804111609A689A609A6809
:1004980042F400429A60996845F2084241F4A0513A
:1004A800C0F2407299605A601A6842F080721A600D
:1004B80019460A684FF460539201C4F20203F8D552
:1004C8004FF47052C4F2020240F2056111609A685A
:1004D80022F003029A609A6842F002029A609A68CF
:1004E80002F00C02082AFAD1B6E700BF4FF46053B5
:1004F800C4F202039A6802F00C02042A36D0082AD1
:1005080012D04FF41051C0F2F4014FF46052C4F20B
:10051800020240F204039268C2F20003C2F303121B
:100528009A5CD1401961704758685A6810F4800F76
:10053800586815BF4FF490534FF41053C0F27A0324
:10054800C0F2F40302F03F02B3FBF2F14FF4605340
:10055800C4F20203C0F388105B68C3F3014301339C
:1005680001FB00F15B00B1FBF3F1CEE74FF49051D2
:10057800C0F27A01C9E700BF704700BFFEE700BFBD
:10058800FEE700BFFEE700BFFEE700BF704700BF01
:10059800704700BF704700BF704700BF4FF47053EB
:1005A800C4F2010300B51A685B69D80783B050D557
:1005B800D1074ED500BF00BF00BF00BF00BF00BFBE
:1005C80000BF00BF4FF44062C4F202024FF4006360
:1005D8001269C4F2020392B2ADF804201A699207B4
:1005E8003DD41B695B073AD54FF48053C4F202032C
:1005F8000022C5F255521A60BDF8042092B2B2F535
:10060800804FC0F0A380BDF8042012B2002AC0F2C7
:10061800BC8040F29642C2F20002BDF80400117894
:100628000139890342F21C5211FA80F1C0F6000226
:10063800525C12025A6100BF00BF00BF00BF00BF7A
:1006480000BF00BF00BF4FF48053C4F20203002272
:100658001A60012000F03CF903B05DF804FB00BF0C
:1006680000BF00BF00BF00BF00BF00BF00BF00BF8A
:1006780000BF00BF00BF00BF00BF00BF00BF00BF7A
:1006880000BF00BF00BF00BF00BF00BF00BF4FF4E6
:100698008053C4F202031A6992B2ADF806201B69AE
:1006A800C3F307238DF80330BDF804309BB2B3F5CC
:1006B800005F20D3BDF804309BB2B3F5804F26D23B
:1006C8009DF8032040F29643C2F2000302F01F0295
:1006D8008DF803201A789DF803009DF8031022F086
:1006E8001F0202431A70002943D09DF80330E12B02
:1006F800AFD000BFADE740F29443C2F2000301223D
:100708001A70012000F0E4F803B05DF804FBBDF8AE
:1007180004309BB2B3F5C04F9BD240F29743C2F26C
:1007280000039DF803201B783BB340F29643C2F2C6
:10073800000302F007028DF803201A789DF80310D1
:1007480002F01F0242EA41121A7082E7BDF8041053
:1007580042F21C5289B2C0F60002525C12025A617F
:1007680000BF00BF00BF00BF00BF00BF00BF00BF89
:1007780061E742F001021A70B7E740F29543C2F20E
:10078800000302F003021A7063E7BDF8042092B276
:10079800B2F5204FFFF44FAFBDF8042092B2B2F586
:1007A800404FBFF448AF40F29541C2F2000140F219
:1007B80098420878BDF80410C2F2000202EB4032F9
:1007C80012FA81F2A2F52042127812025A6132E737
:1007D8004FF47053C4F201034FF6FF710022C0F2C8
:1007E8007F011A605A609A60DA605961704700BFE9
:1007F800837970B443B34FF47053C4F201030168B2
:100808001E6802794579CC4326401E605E6802F175
:10081800804202F59E3234405C60146821431160C6
:1008280002689868D14308409860D868102D01EA9A
:100838000001D96014D005F1804505F59E352B6877
:100848001A432A6070BC70470379016803F180433A
:1008580003F59E3370BC1A6822EA01021A607047D9
:10086800996811439960D9680A43DA6070BC704787
:1008780000230C224271036003718371704700BF2B
:100888004FF47053C4F201031A691043186170479A
:100898004FF47053C4F201035B6918420CBF002087
:1008A800012070474FF47053C4F201035861704738
:1008B8004FF47053C4F201031A685B69034004D013
:1008C80010420CBF0020012070471846704700BF37
:1008D8004FF47053C4F201035861704708B5002300
:1008E800C4F2020398423CD04FF48063C4F202037E
:1008F800984240D04FF40063C4F20203984244D0B7
:100908004FF44063C4F20203984248D04FF4805336
:10091800C4F2020398424CD04FF4A053C4F202032D
:10092800984250D04FF4C053C4F20203984254D0B6
:100938004FF4E053C4F20203984258D04FF40053E6
:10094800C4F20203984200D008BD4FF48070012120
:1009580000F0C0FA4FF480700021BDE8084000F0B4
:10096800B9BA0120014600F0B5FA01200021BDE81E
:10097800084000F0AFBA0220012100F0ABFA0220D3
:100988000021BDE8084000F0A5BA0420012100F0CC
:10099800A1FA04200021BDE8084000F09BBA082015
:1009A800012100F097FA08200021BDE8084000F076
:1009B80091BA1020012100F08DFA10200021BDE825
:1009C800084000F087BA2020012100F083FA202097
:1009D8000021BDE8084000F07DBA4020012100F068
:1009E80079FA40200021BDE8084000F073BA802061
:1009F800012100F06FFA80200021BDE8084000F0D6
:100A080069BA00BF00222DE9F00713460E680127D6
:100A18004FF0030804E00133102B02F102022ED03C
:100A280007FA03F404EA0605A542F4D1D0F80090C9
:100A380091F804C008FA02F4E44304EA0909C0F88A
:100A48000090D0F800900CFA02FA0CF1FF3C5FFA23
:100A58008CFC4AEA0909BCF1010FC0F8009011D9D1
:100A6800C56891F807C02C40C460C5680CFA02F448
:100A780001332C43102BC46002F10202D0D1BDE82F
:100A8800F0077047D0F808A091F8059091F806C0D3
:100A980004EA0A0AC0F808A0D0F808A009FA02F97E
:100AA80049EA0A09C0F80890D0F8049029EA05052F
:100AB800456045680CFA03FC1FFA8CFC4CEA0505F6
:100AC8004560CDE700234FF6FF7202600371437162
:100AD8008371C371704700BF82B04FF480330193B4
:100AE800019B0B430193019BC361C161019BC361DE
:100AF800C3690193C369019302B07047036919423E
:100B08000CBF002001207047006980B2704700BF09
:100B1800436919420CBF002001207047406980B228
:100B2800704700BF01837047418370470AB941830A
:100B380070470183704700BF41617047436959405E
:100B480041617047CB0800EB830001F0070110B446
:100B58008900046A0F238B4024EA03030362036AB3
:100B68005DF8044B8A401343036270474FF46053A7
:100B7800C4F202030022196841F0010119609A6069
:100B8800186843F2100120F08470C2F2004120F48A
:100B9800803018605960196821F480211960DA6082
:100BA800704700BF43F60203C4F2020300221A7022
:100BB8001870704782B000234FF460520193C4F25A
:100BC800020213689B030FD4019B01330193019B1D
:100BD800B3F5A06FF5D14FF46053C4F2020318685F
:100BE800C0F3404002B07047019B01330193019B61
:100BF800F1E700BF4FF46053C4F202031A6822F011
:100C0800F80242EAC0001860704700BF0023C4F22F
:100C180047231860704700BF43F67003C4F202030D
:100C2800002201281A701A7005D0042802D1052262
:100C38001A70704770471870704700BF4FF46863A8
:100C4800C4F247231860704710B4019C40EA04605E
:100C58005B0801434FF46054C4F20204013B41EACB
:100C6800821242EA034363605DF8044B704700BF99
:100C78006023C4F247231860704700BF4FF46053E5
:100C88000907C4F2020341EA8010C3F884007047E0
:100C98006823C4F247231860704700BF4C23C4F28E
:100CA80047231860704700BF4FF46053C4F2020333
:100CB8009A6822F0EC62114308439860704700BFBD
:100CC8004FF46053C4F202039A6822F07842114349
:100CD80008439860704700BF4FF46053C4F20203A2
:100CE8009A6822F003021043986070474FF46053EB
:100CF800C4F20203986800F00C0070474FF4605388
:100D0800C4F202039A6822F0F00210439860704718
:100D18004FF46053C4F202039A6822F4E05210437D
:100D2800986070474FF46053C4F202039A6822F443
:100D3800604242EAC0009860704700BF4FF46053B9
:100D4800C4F2020310B49A6802F00C02042A24D0F8
:100D5800082A28D04FF41051C0F2F40101604FF472
:100D68006052C4F2020240F21C039468C2F200030B
:100D7800C4F303141C5DE14041609468C4F3822409
:100D88001C5D21FA04F4846092685DF8044BC2F398
:100D980042329B5CD940C16070474FF49051C0F219
:100DA8007A010160DBE75C685A6814F4800F5C68BC
:100DB80015BF4FF490534FF41053C0F27A03C0F2AA
:100DC800F40302F03F02B3FBF2F14FF46053C4F2B4
:100DD8000203C4F388145B68C3F30143013301FBC6
:100DE80004F15B00B1FBF3F10160B8E700F4407374
:100DF800B3F5407F0CD14FF46053C4F2020320F0E6
:100E080070419A6821F4407122F4F8120A439A60FA
:100E18004FF46053C4F20203C0F30B001A6F10437F
:100E28001867704740F63C63C4F247231860704760
:100E38004FF46463C4F24723186070474FF4AE73ED
:100E4800C4F24723186070474FF46053C4F202039A
:100E58001A6B19B922EA0000186370471043186327
:100E6800704700BF4FF46053C4F202035A6B19B9BC
:100E780022EA00005863704710435863704700BF68
:100E88004FF46053C4F202039A6B19B922EA0000C6
:100E98009863704710439863704700BF4FF46053DE
:100EA800C4F202031A6C19B922EA000018647047E8
:100EB80010431864704700BF4FF46053C4F2020334
:100EC8005A6C19B922EA00005864704710435864F4
:100ED800704700BF4FF46053C4F202031A6919B98E
:100EE80022EA00001861704710431861704700BF7C
:100EF8004FF46053C4F202035A6919B922EA000098
:100F08005861704710435861704700BF4FF46053F1
:100F1800C4F202039A6919B922EA0000986170477D
:100F280010439861704700BF4FF46053C4F2020346
:100F38001A6A19B922EA0000186270471043186249
:100F4800704700BF4FF46053C4F202035A6A19B9DC
:100F580022EA00005862704710435862704700BF89
:100F68004FF46053C4F202031A6D19B922EA000063
:100F78001865704710431865704700BF4FF46053F9
:100F8800C4F202035A6D19B922EA00005865704785
:100F980010435865704700BF4FF46053C4F2020312
:100FA8009A6D19B922EA0000986570471043986550
:100FB800704700BF4FF46053C4F202031A6E19B9A8
:100FC80022EA00001866704710431866704700BF91
:100FD8004FF46053C4F202035A6E19B922EA0000B2
:100FE8005866704710435866704700BF43F60D03B4
:100FF800C4F202031A7819B922EA0000187070477F
:1010080010431870704700BF4309012B0ED0022B04
:101018004FF46053C4F2020300F01F000CBF1B6FB3
:101028005B6F23FA00F000F0010070474FF4605343
:10103800C4F2020300F01F001B6823FA00F000F05E
:10104800010070474FF46053C4F202035A6F42F034
:1010580080725A67704700BF4FF46053C4F20203AE
:10106800DB6818420CBF00200120704743F60E03CE
:10107800C4F202031870704708B54FF4804001218C
:10108800FFF760FF4FF480400021BDE80840FFF7FC
:1010980059BF00BF4FF46053C4F201031860704792
:1010A80001F0FC0303F1804303F59C3301F00301D5
:1010B80010B489009C680F228A4024EA02029A60D0
:1010C8009A685DF8044B884002439A60704700BFF5
:1010D800DC23C4F227231860704700BF4FF48063F5
:1010E800C4F22723186070474FF46053C4F2010319
:1010F800186AC0F30020704708B50023C4F2010342
:1011080098425BD0B0F1804F62D04FF48063C4F254
:101118000003984266D04FF40063C4F2000398427B
:101128006AD04FF44063C4F2000398426ED04FF483
:101138008053C4F20003984272D04FF4A053C4F213
:101148000003984276D04FF48063C4F201039842BA
:101158007AD04FF48043C4F2010398427ED04FF412
:101168008843C4F20103984200F084804FF490430E
:10117800C4F20103984200F089804FF4C053C4F2CE
:101188000003984200F08E804FF4E053C4F200034D
:10119800984200F091804FF40053C4F20003984243
:1011A80000D008BD4FF480700121FFF7BDFE4FF459
:1011B80080700021BDE80840FFF7B6BE0120014657
:1011C800FFF7C0FE01200021BDE80840FFF7BABEC6
:1011D80001200146FFF7A8FE01200021BDE80840D4
:1011E800FFF7A2BE02200121FFF79EFE0220002188
:1011F800BDE80840FFF798BE04200121FFF794FEE0
:1012080004200021BDE80840FFF78EBE0820012118
:10121800FFF78AFE08200021BDE80840FFF784BEDA
:1012280010200121FFF780FE10200021BDE80840B2
:10123800FFF77ABE20200121FFF776FE202000214B
:10124800BDE80840FFF770BE02200121FFF77AFED3
:1012580002200021BDE80840FFF774BE4FF480303B
:101268000121FFF76FFE4FF480300021BDE80840F0
:10127800FFF768BE4FF400300121FFF763FE4FF41B
:1012880000300021BDE80840FFF75CBE4FF4802025
:101298000121FFF757FE4FF480200021BDE80840E8
:1012A800FFF750BE40200121FFF73EFE40200021FD
:1012B800BDE80840FFF738BE80200121FFF734FE63
:1012C80080200021BDE80840FFF72EBE70B4002240
:1012D8004FF48064C4F201020388C4F2010490420E
:1012E80018BFA0429BB214BF0022012208D04FF4BD
:1012F8008064C4F20004A04218BFB0F1804F23D12B
:101308004FF68F754C881D4045EA04034FF4A056EC
:101318004FF48055C4F20005C4F20006B04218BF6D
:10132800A8421FBF0D894FF6FF441C4044EA05033D
:101338004D680C880380C56204850AB18B7A0386E0
:101348000123838270BC70474FF400654FF44064FA
:10135800C4F20005C4F20004A04218BFA842D5D1C7
:10136800CEE700BF00234FF0FF32426003800381C5
:1013780043808372704700BF01858282704700BF37
:10138800038823F070031B041B0C1943018070476A
:1013980041627047C1627047406A7047008D80B2F1
:1013A800704700BF038829B923F002031B041B0CF4
:1013B800038070479BB243F002030380704700BF6D
:1013C800038829B923F004031B041B0C038070470E
:1013D8009BB243F004030380704700BF038829B918
:1013E80023F080031B041B0C038070479BB243F05F
:1013F80080030380704700BF038823F008031B04A1
:101408001B0C038003889BB219430180704700BFFF
:10141800038823F440731B041B0C038003889BB2CE
:1014280019430180704700BF038829B923F00103DD
:101438001B041B0C038070479BB243F0010303801D
:10144800704700BF2DE9F001048C8D89B1F802C006
:101458000F8824F001042404240C0484028C84885A
:10146800038B4CEA050C22F0020223F073034FF4BD
:101478008066002512041B04C4F20106C4F20105AB
:10148800120C1FFA8CFC1B0CA84218BFB0424CEA85
:101498000202A4B243EA070317D14FF6F775B1F871
:1014A8000EC0B1F812800E8A8F88154045EA0C0CE0
:1014B8004FF6FB7248EA06064FF6FF450CEA0202B1
:1014C800B6B225403A4346EA050489688480038316
:1014D800BDE8F00141630284704700BF2DE9F003C5
:1014E800048C8D89B1F802C00F8824F010042404FC
:1014F800240C0484028C8488038B22F020021204BA
:1015080023F4E643120C42EA05121B044FF48066EA
:1015180000251B0CC4F20106C4F2010542EA0C12B4
:1015280043EA0723A84218BFB04292B2A4B29BB2C2
:1015380019D14FF67F76B1F80E90B1F81080B1F856
:1015480004C04F8A16404FF2FF3546EA09164FF697
:10155800BF722540324045EA880442EA0C1244EA48
:10156800870492B2A4B2896884800383BDE8F0033B
:1015780081630284704700BF2DE9F003048C8D89D4
:10158800B1F802C00F8824F480742404240C048465
:10159800028C8488838B22F400721204120C42EAB3
:1015A800052223F073034FF4806600251B04C4F260
:1015B8000106C4F2010542EA0C221B0CA84218BF1E
:1015C800B04292B2A4B243EA070319D14FF2FF76B0
:1015D800B1F80E90B1F81080B1F804C04F8A1640E7
:1015E8004CF6FF7546EA09264FF6FF322540324091
:1015F80045EA081442EA0C2244EA071492B2A4B25B
:10160800896884808383BDE8F003C16302847047DE
:10161800F0B4048C8D890F88B1F802C024F480548A
:101628002404240C0484028C8488838B22F40052C2
:101638001204120C42EA05324FF480660025C4F207
:101648000105C4F20106A84218BFB04223F4E643DC
:1016580008BF0E8A8968A4B208BF4BF6FF754FEA27
:10166800034308BF25404FEA134308BF45EA8614E1
:1016780043EA072342EA0C3208BFA4B292B29BB2F3
:1016880084808383F0BC0164028470470023038054
:101698004380838083608381C38103824382704750
:1016A80030B4058C0124ADB28C404FF6F77325EAAF
:1016B80004040B400484183073B10439C1F34E019B
:1016C80048F6FF730C5823400B5012020B5892B285
:1016D8001A430A5030BC704749084FF68F73445874
:1016E8002340435043581A43425030BC704700BF10
:1016F8004163704781637047C163704701647047F5
:10170800038B23F070031B041B0C194301837047E0
:10171800038B23F4E0431B041B0C43EA01218BB227
:1017280003837047838B23F070031B041B0C19433E
:1017380081837047838B23F4E0431B041B0C43EA2B
:1017480001218BB283837047038B23F008031B04AA
:101758001B0C194301837047038B23F400631B049C
:101768001B0C43EA01218BB203837047838B23F060
:1017780008031B041B0C194381837047838B23F4D4
:1017880000631B041B0C43EA01218BB2838370475F
:10179800038B23F004031B041B0C194301837047BC
:1017A800038B23F480631B041B0C43EA01218BB2D7
:1017B80003837047838B23F004031B041B0C19431A
:1017C80081837047838B23F480631B041B0C43EADB
:1017D80001218BB283837047038B23F080031B04A2
:1017E8001B0C194301837047038BC3F30E0343EAB1
:1017F80001218BB203837047838B23F080031B0482
:101808001B0C194381837047838BC3F30E0343EA90
:1018180001218BB283837047038C23F002031B04DE
:101828001B0C194301847047038C23F008031B0425
:101838001B0C194301847047038C23F020031B04FD
:101848001B0C43EA01118BB203847047038C23F00D
:1018580080031B041B0C43EA01118BB203847047FD
:10186800038C23F400731B041B0C43EA01218BB285
:1018780003847047038C23F400631B041B0C43EAA6
:1018880001218BB203847047038C23F400531B049B
:101898001B0C43EA01318BB203847047038C10B4EC
:1018A80001248C409BB223EA04030384038C5DF873
:1018B800044B8A4013439BB203847047038C10B4D3
:1018C80004248C409BB223EA04030384038C5DF850
:1018D800044B8A4013439BB2038470470B88F0B4CF
:1018E800002B32D0042B59D0082B4E88038C00F0E3
:1018F80084808F880D89CC8823F480510904090CD1
:101908000184828B038C22F4407223F40053120565
:101918005B04120D5B0C42EA072243EA063342EAF3
:1019280005329BB243F4805392B282830384838B43
:1019380023F440631B041B0C8383838B9BB243EA11
:1019480004239BB28383F0BC7047038C4E888D8838
:101958000F89CC8823F001010904090C0184028B4A
:10196800038C22F0F3021204120C23F00A0342EA59
:1019780007121B0446F0010192B21B0C2A430B43C9
:1019880002830384038B23F00C031B041B0C0383C7
:10199800038B9BB223430383F0BC7047038C4E88B0
:1019A8008D880F89CC8823F010010904090C018463
:1019B800028B038C22F44072120523F0A003120D4F
:1019C8001B0442EA07321B0C43EA061392B242EAAE
:1019D80005229BB243F0100392B202830384038B67
:1019E80023F440631B041B0C0383038B9BB243EA61
:1019F80004239BB20383F0BC70478D880F89CC8881
:101A080023F480710904090C0184828B038C22F071
:101A1800F30223F4206312041B04120C1B0C42EA89
:101A2800071243EA062392B29BB243F480732A4317
:101A380082830384838B23F00C031B041B0C838396
:101A4800838B9BB2234383837DE700BF002301225E
:101A5800828003804380C380038170472DE9F001B1
:101A68004A888B880C88002A0CBF02260026012B86
:101A780014BF01270227002C54D0058CB1F8088028
:101A8800B1F806C025F010052D042D0C0584048B33
:101A9800018C24F44074240521F0A001240D0904CC
:101AA80044EA0834090CA4B241EA021244EA0323C6
:101AB80092B29BB242F0100203830284018B21F49C
:101AC80040610904090C0183038B9BB243EA0C2390
:101AD8009BB20383018C21F001010904090C0184E4
:101AE800028B038C22F0F302120423F00A03120C77
:101AF8001B0442EA08121B0C43F0010392B21E4376
:101B0800174307830684038B23F00C031B041B0C69
:101B18000383038B9BB243EA0C0CA0F818C0BDE802
:101B2800F0017047048CB1F808C0CD8824F0010199
:101B38000904090C0184018B048C21F0F3010904C8
:101B4800090C24F00A0441EA0C11240442F00102B1
:101B580089B2240C14430B4303830484038B23F0BE
:101B68000C031B041B0C0383038B9BB22B430383C3
:101B7800038C23F010031B041B0C0384028B038CBF
:101B880022F44072120523F0A003120D1B0442EA4E
:101B98000C321B0C43F0100392B243EA061642EAD9
:101BA800072707830684038B23F440631B041B0C5D
:101BB8000383038B9BB243EA0525ADB20583BDE8D9
:101BC800F0017047406B7047806B7047C06B70477F
:101BD800006C7047038B23F00C031B041B0C03835E
:101BE800038B9BB219430183704700BF038B23F417
:101BF80040631B041B0C0383038B9BB243EA012144
:101C08008BB20383704700BF838B23F00C031B0444
:101C18001B0C8383838B9BB219438183704700BF5E
:101C2800838B23F440631B041B0C8383838B9BB23D
:101C380043EA01218BB28383704700BFB1F802C029
:101C48000B888A89F0B48F88CE880D894C894CEA34
:101C580003033B4333432B43234313439BB2A0F873
:101C68004430F0BC704700BF00230380438083806A
:101C7800C380038143818381704700BFB0F844303B
:101C880021B9C3F30E03A0F8443070476FEA434309
:101C98006FEA53439BB2A0F844307047838829B950
:101CA80023F004031B041B0C838070479BB243F092
:101CB80004038380704700BF838829B923F0010398
:101CC8001B041B0C838070479BB243F00103838085
:101CD800704700BF83899BB21AB923EA0101818149
:101CE800704719438181704781827047038A19427E
:101CF8000CBF002001207047C94389B20182704798
:101D0800038A828911420CBF0020012019420CBFAE
:101D1800002000F001007047C94389B20182704772
:101D28000A43A0F84820704783899BB21AB923EA6E
:101D3800010181817047194381817047838829B9DE
:101D480023F008031B041B0C838070479BB243F0ED
:101D580008038380704700BF038923F007031B042F
:101D68001B0C0381704700BF038923F070031B0419
:101D78001B0C1943018103899BB243F007030381BC
:101D8800704700BF602970B427D0068C26F0010682
:101D98003604360C0684058B048C25F0F3052D04D7
:101DA80024F00A042D0C240445F00105240C45EA0E
:101DB800031344F001049BB2224303830284038982
:101DC80023F070031B041B0C0B43038103899BB294
:101DD80043F00703038170BC7047048C24F010049F
:101DE8002404240C0484058B048C25F4407524F009
:101DF800A0042D0524042D0D240C45F4807544F011
:101E0800100445EA033344EA02129BB292B20383F8
:101E18000284D4E710B4048942EA0323E4B22343DA
:101E28009BB21943018103895DF8044B23F07703C2
:101E38001B041B0C43F077030381704710B404891B
:101E480042EA0323E4B223439BB219430181038985
:101E58005DF8044B9BB243F480430381704700BF95
:101E6800038923F070031B041B0C1943018170477D
:101E7800838823F070031B041B0C838083889BB228
:101E880019438180704700BF038923F007031B04AF
:101E98001B0C038103899BB219430181704700BF62
:101EA800038923F080031B041B0C038103899BB265
:101EB80019430181704700BF10B40489E4B221437B
:101EC8000A4342EA03239CB204815DF8044B70473D
:101ED80070B40589048B068C24F4407426F022061D
:101EE80024F003043604360C25F007052404324395
:101EF8002D04240C2D0C44F4807442EA0313294366
:101F080044F001049EB201810483068470BC7047CA
:101F1800838829B923F080031B041B0C8380704736
:101F28009BB243F080038380704700BFA0F8501035
:101F3800704700BF4FF46D4340F0BF60CEF200031E
:101F480040F40030D8607047C37870B47BB9027829
:101F58004FF461435109203102F01F020120CEF2F3
:101F6800000300FA02F243F8212070BC70474FF4D6
:101F78006D43CEF200034678DA6884780378D2435A
:101F8800C2F30222C2F104010F25C9B206FA01F117
:101F980045FA02F2C9B222400A4303F1604303F54D
:101FA80061431201D2B283F8002302784FF46143EF
:101FB80002F01F0101205209CEF2000300FA01F1DC
:101FC80043F8221070BC704721F060414FF46D4314
:101FD80021F07F01CEF2000308439860704700BFEC
:101FE8004FF46D43CEF200031A6919B922EA0000D2
:101FF8001861704710431861704700BF4EF2100314
:10200800CEF2000304281A680CBF42F0040222F042
:1020180004021A60704700BF30B542F21C54C0F683
:102028000204054683B054F82000012104EB45045E
:10203800FEF70AFF40F22C03228AC2F20003009244
:1020480053F8250002220123002469468DF8043044
:102058008DF807308DF806408DF80520FEF7D2FC84
:1020680003B030BD42F21C53C0F6020340F22C020A
:1020780003EB4003C2F20002198A52F82030198398
:10208800704700BF42F21C53C0F6020340F22C0214
:1020980003EB4003C2F20002198A52F82030598338
:1020A800704700BF40F22C03C2F2000342F21C52F8
:1020B800C0F6020253F8203002EB40025969128A36
:1020C8004A405A61704700BF30B50446012087B0C6
:1020D8000D460146FEF7B8FE4FF480400121FEF799
:1020E800EBFE06AB40F22C020121C2F2000202EB29
:1020F800840243F8101D002410698DF80C4019461D
:102108008DF80F40FEF77EFC012D01D007B030BDE1
:1021180021462046FEF7C4FF082304A88DF8153091
:1021280004958DF814408DF81650FEF761FB0F23C7
:10213800062201A88DF807508DF804208DF8053087
:102148008DF80630FFF700FF07B030BD08B540F244
:102158002C03C2F2000303EB800001210069FEF7A3
:10216800CDFC08BD84250208000000206C04002076
:10217800700400209C84002008B5FEF7DDF840F2CA
:102188009644FEF7F5F8FEF7BBF8FEF70DF9FEF7F3
:102198008FF840F2954040F2944140F29743C2F2E2
:1021A8000004C2F20000C2F20001C2F200030022E1
:1021B8000125257002700A701A70FEE7002103E0FD
:1021C8000B4B5B58435004310A480B4B42189A4258
:1021D800F6D30A4A02E0002342F8043B084B9A422D
:1021E800F9D3FEF7FBF800F03FF8FFF7C5FF70479B
:1021F80084250208000000206C04002070040020E0
:102208009C840020FEE700000146002002460346A9
:1022180000F0A2B808B50021044600F0FFF842F229
:102228005053C0F602031868C36B03B198472046A1
:1022380020F09AF938B542F2845442F28055C0F63B
:102248000205C0F60204641BA41018BF05EB840540
:1022580005D0013C55F8043D9847002CF9D1BDE85C
:10226800384020F07BB900BF70B542F2785642F290
:102278007855C0F60205C0F60206761BB6101CBFDC
:10228800043D002405D0013455F8043F9847A64280
:10229800F9D142F2805642F27855C0F60205C0F6EE
:1022A8000206761B20F054F9B6101CBF043D00242A
:1022B80006D0013455F8043F9847A642F9D170BDBD
:1022C80070BD00BFF0B4840743D0541E002A3ED02E
:1022D800CDB2034603E0621E002C38D0144603F842
:1022E800015B9A07F7D1032C2AD9CDB245EA052517
:1022F8000F2C45EA054515D9A4F110073F0903F14C
:10230800100606EB07161A46156055609560D560ED
:102318001032B242F8D104F00F040137032C03EB5A
:1023280007130DD91E462246043A032A46F8045BD1
:10233800FAD8221F22F003020432134404F00304E3
:102348002CB1C9B21C4403F8011BA342FBD1F0BC59
:10235800704714460346C6E7F0B542F25054C0F63B
:10236800020485B02668D6F848410746002C44D0B8
:1023780065681F2D21DD40F20004C0F200041CB97D
:102388004FF0FF3005B0F0BD4FF4C87003910292D2
:102398000193AFF300800399029A019B0446002839
:1023A800EED0D6F848510020256060600546C6F892
:1023B8004841C4F88801C4F88C013FB9AB1C00201F
:1023C8000135656044F8231005B0F0BD04EB8500C5
:1023D8004FF0010CC0F88820D4F888610CFA05F297
:1023E8001643022FC4F88861C0F8083102BFD4F838
:1023F8008C311A43C4F88C21E0E706F5A674C6F8B8
:102408004841B5E740F20003C0F200032BB142F2A5
:102418003D20C0F60000FFF7F7BE70472DE9F04FEA
:1024280042F25053C0F6020385B01B68029040F296
:1024380000020193C0F2000203F5A4730F46039350
:1024480000924FF00109019AD2F84881B8F1000FC3
:102458001AD0DDF80CA0D8F804305C1E5FBF08F174
:1024680088059E1C05EB830508EB86060AD477B120
:10247800EB6FBB420BD0013C631CA5F10405A6F130
:102488000406F4D1009B7BBB05B0BDE8F08FD8F8FB
:10249800042056F8043C013AA24216BF0022C8F8AC
:1024A800044046F8042C002BE5D0D8F88811D8F859
:1024B80004B009FA04F20A4210D0D8F88C110A4282
:1024C8000ED1029855F8041C9847D8F804305B459B
:1024D800B9D1DAF800304345CDD0B4E79847F4E7EE
:1024E80055F8040C9847F0E7D8F804306BB9D8F8D9
:1024F800003063B14046CAF80030AFF30080DAF824
:102508000080B8F1000FA6D1BEE7D8F80030C24667
:102518009846F6E778013300705133000000000058
:1025280000000000000000000000000000000000A3
:102538000000000000000000000000000000000093
:102548000000000000000000000000000000000083
:1025580000000000C38F0169260256687E826F3E24
:1025680000CE006729CBD45E2356C90000000000C6
:102578000000000000000000000000000000000053
:102588000000000000000000000000000000000043
:102598000000000000000000000000000000000033
:1025A8000000000000000000000000000000000023
:1025B8000000000000000000000000000000000013
:1025C8000000000000000000000000000000000003
:1025D80000000000000000000000000000000000F3
:1025E80000000000000000000000000000000000E3
:1025F80000000000000000000000000000000000D3
:1026080000000000000000000000000000000000C2
:102618000000000000C35001CEED6666CC0D000B33
:1026280003730083000C000D0008111F8889000E39
:10263800DCCC6EE6DDDDD999BBBB67636E0EECCCF6
:10264800DDDC999FBBB9333E4D555244455241009C
:10265800000000000000000000000001020001333B
:1026680000A00641F331F4FF3EFFE047118F01213E
:10267800F1FF732C723E01E0FFAFEA90FFEA91FF91
:10268800EA92FFEA8FFFCD5D0ACD6B0A3E00EA8D24
:10269800FF3E01CD300AFBCD450AFA00406FFA0132
:1026A8004067E9F5C5D5E5CD740AFA8FFFEE01EA72
:1026B8008FFFFA8EFFEA0020E1D1C1F1D9F5D5FAF2
:1026C8008FFF5FFA8FFFBB28FAD1F1C90000000025
:1026D80000000000000000000000000000000000F2
:1026E80000000000000000000000000000000000E2
:1026F80000000000000000000000000000000000D2
:1027080000000000000000000000000000000000C1
:102718000000000000002032404A525960656A6E8D
:102728007276797D808285878A8C8E90929496982D
:10273800999B9D9EA0A1A2A4A5A6A7A9AAABACAD52
:10274800AEAFB0B1B2B3B4B5B6B7B8B9B9BABBBC2D
:10275800BDBDBEBFC0C0C1C2C2C3C4C4C5C6C6C752
:10276800C7C8C9C9CACACBCCCCCDCDCECECFCFD0A5
:10277800D0D1D1D2D2D3D3D4D4D5D5D5D6D6D7D714
:10278800D8D8D9D9D9DADADBDBDBDCDCDDDDDDDE94
:10279800DEDEDFDFE0E0E0E1E1E1E2E2E2E3E3E325
:1027A800E4E4E4E5E5E5E6E6E6E7E7E7E7E8E8E8C0
:1027B800E9E9E9EAEAEAEAEBEBEBECECECECEDED63
:1027C800EDEDEEEEEEEEEFEFEFEFF0F0F0F1F1F110
:1027D800F1F1F2F2F2F2F3F3F3F3F4F4F4F4F5F5C1
:1027E800F5F5F5F6F6F6F6F7F7F7F7F7F8F8F8F877
:1027F800F9F9F9F9F9FAFAFAFAFAFBFBFBFBFBFC2F
:10280800FCFCFCFCFDFDFDFDFDFDFEFEFEFEFEFFED
:10281800FFFFFFFF000000000000000000000000B4
:1028280000000000000000000000000000000000A0
:102838000000000000000000000000000000000090
:102848000000000000000000000000000000000080
:102858000000000000000000000000000000000070
:102868000000000000000000000000000000000060
:102878000000000000000000000000000000000050
:102888000000000000000000000000000000000040
:102898000000000000000000000000000000000030
:1028A8000000000000000000000000000000000020
:1028B8000000000000000000000000000000000010
:1028C8000000000000000000000000000000000000
:1028D80000000000000000000000000000000000F0
:1028E80000000000000000000000000000000000E0
:1028F80000000000000000000000000000000000D0
:1029080000000000000000000000000000000000BF
:1029180000000000010001000100010001000100A9
:102928000100010001000100010001000100010097
:102938000100010001000100010002000200020084
:10294800020002000200020002000200020002006F
:10295800020002000200020002000200020002005F
:10296800020002000200020002000300030003004C
:102978000300030003000300030003000300030037
:102988000300030003000300040004000400040023
:10299800040004000400040004000400040004000F
:1029A80005000500050005000500050005000500F7
:1029B80005000600060006000600060006000600E0
:1029C80006000700070007000700070007000700C8
:1029D80008000800080008000800090009000900AC
:1029E800090009000A000A000A000A000A000B0090
:1029F8000B000B000B000C000C000C000C000D0071
:102A08000D000D000D000E000E000E000F000F004F
:102A18000F0010001000100011001100110012002A
:102A28001200130013001300140014001500150001
:102A380016001600170017001800180019001900D2
:102A48001A001A001B001B001C001D001D001E00A0
:102A58001F001F0020002100210022002300240065
:102A680024002500260027002800290029002A0024
:102A78002B002C002D002E002F00300031003200DA
:102A88003400350036003700380039003B003C0080
:102A98003D003F004000410043004400460047001D
:102AA80049004A004C004E004F00510053005500A9
:102AB800570059005B005C005F006100630065001F
:102AC800670069006C006E00700073007500780084
:102AD8007B007D0080008300860089008C008F00C9
:102AE8009200950098009C009F00A200A600AA00F2
:102AF800AD00B100B500B900BD00C100C500CA00F5
:102B0800CE00D300D700DC00E100E600EB00F000C7
:102B1800F500FB00000106010B01110117011D0161
:102B280024012A01300137013E0145014C015301BE
:102B38005B0162016A0172017A0182018B019301D2
:102B48009C01A501AF01B801C201CB01D601E0018A
:102B5800EA01F50100020B02170222022E023B02D3
:102B68004702540261026E027C028A029802A7029E
:102B7800B502C502D402E402F402050316032703D2
:102B880039034B035D03700383039703AB03C0034F
:102B9800D503EA03000416042D0445045D047504F6
:102BA8008E04A804C204DC04F804140530054D059D
:102BB8006B058905A805C805E80509062B064E0614
:102BC80071069506BA06E00606072E0756077F0720
:102BD800A907D40700082D085B088A08B908EA087D
:102BE8001C094F098309B909EF09270A600A9A0ADB
:102BF800D60A120B500B900BD10B130C560C9C0CD5
:102C0800E20C2B0D740DC00D0D0E5C0EAC0EFE0EFD
:102C1800520FA80F00105A10B51013117311D511C7
:102C280038129F1207137213DF134E14C014341591
:102C3800AB152416A1161F17A1172618AD1837199A
:102C4800C519551AE91A7F1B1A1CB71C581DFD1DFA
:102C5800A51E501F0020B3206B212622E522A923A0
:102C680071243D250E26E326BD279C288029682A45
:102C7800562B492C412D3F2E422F4B305A316E3264
:102C88008933AA34D135FF3633386E39B03AF93B37
:102C9800493DA13E00406741D5424C44CB4552478F
:102CA800E2487A4A1C4CC74D7B4F3851FF52D154E9
:102CB800AC569258825A7E5C845E9660B462DD643B
:102CC80012675469A26BFE6D6670DC726075F277EC
:102CD800937A427D0080CD82AB859888968BA48EAE
:102CE800C491F59438988D9BF59E70A2FFA5A1A973
:102CF80058AD24B105B5FCB809BD2CC167C5BAC922
:102D080024CEA8D245D7FCDBCDE0B9E5C1EAE5EF92
:102D180025F53E01CD300A3EFFE047011755210059
:102D2800801E0DCD1E0A01D6522100981E03CD1E0D
:102D38000AAFEA82FF3E00EA80FFE043E0423E003D
:102D4800EA82FFEA8CFFCDA901CD0F0F01DF08FA57
:102D58008CFFCB3FCB3F814F0AE047FA8CFF061030
:102D6800B828043CEA8CFF3E8E47FA82FFB8283E1A
:102D78003CEA82FF3E00EA80FFE042FA80FF06015B
:102D8800B8280EFA82FF47F044B820183E01EA80BE
:102D9800FFF04447FA82FF905FF04447F044B828B8
:102DA800FB7BE042068FF044B820D0C3320816FA05
:102DB800CDD30A3E00EA80FFCD0F0FCDA90101CE89
:102DC80008FA80FFCB3FCB3F814F0AE047FA80FFEC
:102DD8000638B828073CEA80FFC3A408CD0F0FC304
:102DE800C808E4F9E4F9FEF9FEFFFEFFFFFFFFFF64
:102DF800FFFFFFFFFEF9E4E4E43E01CD300A3EFFA9
:102E0800E04701E9612100801E08CD1E0A016861C2
:102E18002100981E01CD1E0A3E00E043E042CD3F4E
:102E28000AFA80FF3CEA80FF570610FA80FF4F0A33
:102E38005782E043CD0F0FFAC3C7CB3FCB3FCB3F01
:102E480001FC09814F78CE00470AFE01200601AC3B
:102E580009C3430901D40978EA86FF79EA87FFFAAA
:102E680091FFFE0020110610F04457FA80FF824FB0
:102E78000ACB3F57C371090613F04457FA80FF8203
:102E88004F0ACB3F57FA80FF824F0ACB3F5FF0448F
:102E98003C4F7A83E61F915FF5F08647F0874FF045
:102EA80044CB3FCB3F814FF0445FF044BB28FBF15C
:102EB800E0420AE0470E8FF044B920A3C30D09C9C8
:102EC800FFFEF9E4E4E4E4E4E4E4E4E4E4E4E4E470
:102ED800E4E4E4E4E4E4E4E4E4E4E4E4E4E4E4E4AA
:102EE800E4F9FEFFFFFFFFFFFFFEF9E490909090EA
:102EF80090909090909090909090909090909090CA
:102F08009090909090909090E4F9FEFFFFFFFFFF63
:102F1800010101010000010101010101000001019D
:102F2800010101010000010101010101000001018D
:102F380001011600F041E60220FA0A22031520F4E6
:102F48001D20F1C9F3EA8EFFEA0020FBC9F044B95D
:102F580020FBC90E90CD390AC93E91E040C93E9385
:102F6800E040C9F04007D0CD3F0AF040CBBFE04079
:102F7800C93E02EA0020CD00403E00CD0C40C93ECB
:102F880002EA0020CD0340C9F3FA91FFFE01280AA6
:102F98003E02EA0020CD0041FBC93E04EA0020CDF4
:102FA8000041FBC9F33E04EA0020CD00403E00CDBD
:102FB8000C40FBC93E04EA0020CD0340C9F041E6BD
:102FC80002FE0028F8F041E602FE0020F8C9CD4FC5
:102FD8000A7A2100981680222222222222222215F1
:102FE800BA20F4CD450AC93E00EA8AFF7AEA8BFF87
:102FF800CDA901CD0F0FFA8BFF57FA8AFF3CEA8A59
:10300800FFBA20ECC93E01CD300A3EFFE047CD456E
:103018000A0155442100801E10CD1E0A015440218A
:1030280000981E04CD1E0ACDA901AF3EE4E047007A
:1030380000000E8EF044B92016CD0F0F3EFFE0477A
:10304800FA80FF3CEA80FFCD0F0F0E00CD390AFA57
:1030580080FF5706104F0A5F0610F044834F0AEAB4
:1030680082FF0612F04482CB3F4F0A5FFA82FF8349
:103078005F0613FA80FF4FF044814F0ACB3FD666B4
:1030880057F0444FF044B928FB7AE0437BE0423ED6
:10309800E4E047C31B0B3E01CD300A3EFFE0470189
:1030A800EB6D2100801E10CD1E0A3E01CD300A01B5
:1030B800EA692100981E08CD1E0ACD450A3EE4E0C3
:1030C80047FA80FF3CEA80FFCD0F0FFA80FFE6FE4B
:1030D800CB27CB27CB27CB275FFA80FF570610F0EB
:1030E80044824F0ACB3FCB3FCB3FEA86FF0612FA1A
:1030F80080FF4F0ACB3FCB3F4FD51600FA80FFCB5E
:103108003FE61F8392EA87FFF044CB3FCB3F01297C
:103118000C814F78CE00470AEA88FFD1F04447F087
:1031280044B828FBFA86FFE043FA88FFE047FA87AD
:10313800FFE042068DF044B820A3C3AD0BFFFEF9B3
:10314800E4E4E4E4E4E4E4E4E4E4E4E4E4E4E4E437
:10315800E4E4E4E4E4E4E4E4E4E4E4E4E4F9FEFFDD
:10316800FFFFFFFFFFFFFFFFFFFFFFFF3E03CD3025
:103178000A3EFFE04701E1542100801E0FCD1E0AE0
:1031880001A0522100981E04CD1E0AAFEA80FFE07C
:1031980043E0423EFFEA80FFCDA901CD0F0FCDA944
:1031A80001FAC3C7CB3FCB3FCB3F01E70C814F7838
:1031B800CE00470AFE0120053EE4C3AB0C3E90E07A
:1031C80047FA80FFFE0028043DEA80FFF044CB3F29
:1031D800570615FA80FF824F0ACB3F47FA80FF4F08
:1031E800CD43003E609257F0445FF044BB28FB7A21
:1031F800E043F044FE8F20D4C3870C010101010194
:1032080000010101010101010001010101010101A8
:1032180000010101010101010001010101CDA90124
:103228003EFFE04716FFCDBA0A3E03CD300A0152F1
:10323800622100801E10CD1E0AAFEA80FFEA81FFDE
:10324800E043E042C5AFEA84FFAFEA85FFFA81FFB9
:10325800FEFF28043CEA81FF0619FA81FF4F0A574E
:10326800061AFA81FF4F0A5FFA80FFC601EA80FF5B
:1032780006104F0ACB3FCB27CB27CB27CB274FFABC
:1032880080FF81EA82FFD5CD0F0FCDA901D17AE069
:10329800437BE042C1010098C5210044FA82FF5FE8
:1032A800CD541EC1F041E60220FAFA82FF02037AE9
:1032B8000203C5FA84FF3CEA84FFFE0A201FAFEA36
:1032C80084FFC13E0C814F300104C5FA85FF3CEAFA
:1032D80085FFFE1220073EE4E047C3350DC38C0D81
:1032E8003E02CD300ACDA9013EFFE04701315F2102
:1032F80000801E05CD1E0A01F05C2100981E04CD39
:103308001E0AAFEA80FFEA81FFE043E0423EFFEA9F
:1033180080FFCDA9013EE4E047CD0F0FCDA901FA0A
:1033280081FF3CEA81FFFA80FFFE0028043DEA8025
:10333800FFF044CB3F570615FA80FF824F0ACB3F78
:1033480047FA80FF4FCD43003E009257F0445FF0AC
:1033580044BB28FB7AE043F044FE8F20D4C3050E1B
:103368003E01CD300A3EFFE047CDA901013D7B215A
:1033780000801E05CD1E0A01FC782100981E04CD90
:103388001E0AAFE043E042EA80FFCD0F0FCDA9014E
:10339800FA80FFFE2028043CEA80FFCB3F01940E10
:1033A800814F0AE047C3760EFFFFFFFFFEFFFEF9DD
:1033B800FEF9E4F9E4E4E4E4E4E43E04CD300A3E52
:1033C800FFE047CDA9010192232100801E05CD1EF3
:1033D8000A01911F2100981E04CD1E0AAFE043E0A8
:1033E80042EA81FFCDA9013EE4E047CD0F0FCDA908
:1033F80001FA81FF3CEA81FFE601FE00200EFA8116
:10340800FFE043573E0092E042C3D70EFA81FF57D0
:103418003E0092CB27E042FA81FF4F06100AE043B4
:10342800C3D70EC5F5D53E01EA00200640FA8DFF48
:10343800CB27CB27C6024F0A5FFAC5C7BB203FFA86
:103448008DFF3CEA8DFF0640FA8DFFCB27CB274F37
:103458000A6F0C0A67E503030AEA91FF57FA92FF1D
:10346800BA2816F3FA0200EA0020CD900ACDA00A85
:103478003E01EA91FFEA92FFFBE1D1F1C1E9FA8E40
:10348800FFEA0020D1F1C1C90000000000000000DF
:103498000000000000000000000000000000000024
:1034A8000000000000000000000000000000000014
:1034B8000000000000000000000000000000000004
:1034C80000000000000000000000000000000000F4
:1034D80000000000000000000000000000000000E4
:1034E80000000000000000000000000000000000D4
:1034F80000000000000000000000000000000000C4
:1035080000000000000000000000000000000000B3
:10351800000000000000000101010202030304058D
:10352800060708090A0B0C0E0F1112141617191B9F
:103538001D1F212325282A2C2F313336393B3E40A5
:103548004346494C4E5154575A5D606366696C6FE7
:103558007276797C7F8285888B8E9295989B9EA1C6
:10356800A4A7AAADAFB2B5B8BBBDC0C3C5C8CBCDC3
:10357800CFD2D4D6D9DBDDDFE1E3E5E7E9EAECED4C
:10358800EFF0F2F3F4F6F7F8F9F9FAFBFCFCFDFDBD
:10359800FEFEFEFEFEFEFEFEFEFDFDFCFCFBFBFA53
:1035A800F9F8F7F6F5F4F2F1F0EEEDEBE9E7E6E419
:1035B800E2E0DEDCDAD7D5D3D0CECCC9C6C4C1BFF1
:1035C800BCB9B6B3B1AEABA8A5A29F9C999693908F
:1035D8008D898683807D7A7774716E6A6764615E8F
:1035E8005B585552504D4A4744423F3C3A37343273
:1035F8002F2D2B28262422201E1C1A1816151311CD
:10360800100E0D0C0A09080706050404030202013E
:1036180001010000000306090C0F1215181C1F22D7
:1036280025282B2E3134373A3D4044474A4D4F52D6
:1036380055585B5E6164676A6D6F7275787A7D80D4
:103648008385888B8D909295979A9C9FA1A4A6A814
:10365800ABADAFB2B4B6B8BABCBFC1C3C5C7C9CAAF
:10366800CCCED0D2D4D5D7D9DADCDDDFE0E2E3E5C1
:10367800E6E7E9EAEBECEDEFF0F1F2F3F4F4F5F656
:10368800F7F8F8F9FAFAFBFBFCFCFDFDFDFEFEFE7F
:10369800FEFEFEFEFEFEFEFEFEFEFEFEFDFDFDFC47
:1036A800FCFBFBFAFAF9F8F8F7F6F5F4F4F3F2F1A3
:1036B800F0EFEDECEBEAE9E7E6E5E3E2E0DFDDDC9D
:1036C800DAD9D7D5D4D2D0CECCCAC9C7C5C3C1BF21
:1036D800BCBAB8B6B4B2AFADABA8A6A4A19F9C9A29
:1036E800979592908D8B888583807D7A7875726F97
:1036F8006D6A6764615E5B585552504D4A47444154
:103708003D3A3734312E2B2825221F1C1915120F4C
:103718000C090603ABA8A5A3A09E9C9A989795941C
:10372800929190908F8E8E8E8E8D8D8E8E8E8E8FA6
:103738008F9090919293939495969798999A9B9C31
:103748009E9FA0A1A2A4A5A6A8A9ABACAEAFB1B3F9
:10375800B4B6B8BABCBEC0C2C4C6C8CBCDD0D2D528
:10376800D7DADCDFE1E4E6E9EBEEF0F2F4F6F8F9BB
:10377800FBFCFDFEFEFEFEFEFEFDFCFAF9F7F5F28F
:10378800F0EDEAE7E3E0DCD9D5D1CECAC6C2BFBBCB
:10379800B8B4B1AEABA8A5A3A09E9C9A98979594EF
:1037A800929190908F8E8E8E8E8D8D8E8E8E8E8F26
:1037B8008F9090919293939495969798999A9B9CB1
:1037C8009E9FA0A1A2A4A5A6A8A9ABACAEAFB1B379
:1037D800B4B6B8BABCBEC0C2C4C6C8CBCDD0D2D5A8
:1037E800D7DADCDFE1E4E6E9EBEEF0F2F4F6F8F93B
:1037F800FBFCFDFEFEFEFEFEFEFDFCFAF9F7F5F20F
:10380800F0EDEAE7E3E0DCD9D5D1CECAC6C2BFBB4A
:10381800B8B4B1AEDADEE1E4E8EBEDF0F2F4F6F8D4
:10382800F9FBFCFCFDFEFEFEFEFEFEFEFEFEFEFEBD
:10383800FDFDFDFDFDFDFDFDFDFDFDFDFEFEFEFEAC
:10384800FEFEFEFEFEFEFEFEFDFDFCFBFAF9F8F7AD
:10385800F5F4F2F0EEECEAE8E6E4E2E0DEDCDAD9F0
:10386800D7D5D4D3D2D1D0D0CFCFCFD0D0D1D2D337
:10387800D4D6D8DADCDEE0E2E5E7EAECEFF1F3F6FD
:10388800F8F9FBFCFDFEFEFEFEFDFCFBF9F6F3F08D
:10389800ECE8E4DFDAD5CFCAC4BEB8B2ACA6A09AC9
:1038A800958F8A85807C7874706D6A676563615FBF
:1038B8005E5D5D5D5D5E5F60616366686B6F7276BD
:1038C8007B7F83898E949AA0A7ADB4BAC1C7CED4A2
:1038D800DAE0E5EAEEF2F6F9FBFDFEFEFEFEFDFBA0
:1038E800F9F6F3EFECE7E3DFDAD5D0CCC7C2BEBA1E
:1038F800B5B2AEABA8A5A2A09F9D9C9B9B9B9B9C91
:103908009D9E9FA1A3A5A8ABAEB1B4B8BCBFC3C7C9
:10391800CBCFD3D65051535557595B5D5F61636523
:1039280067696A6C6E7072737577797A7C7E7F814D
:103938008284858788898B8C8D8F909192939495BA
:1039480096979899999A9B9B9C9D9D9E9E9E9F9FBA
:103958009F9F9F9FA09F9F9F9F9F9F9E9E9E9D9D75
:103968009C9B9B9A99999897969594939291908FEE
:103978008D8C8B898887858482817F7E7C7A797714
:10398800757372706E6C6A69676563615F5D5B59B8
:1039980057555351504F4D4B49474543413F3D3B88
:1039A8003937363432302E2D2B2927262422211F51
:1039B8001E1C1B19181715141311100F0E0D0C0BC4
:1039C8000A090807070605050403030202020101A4
:1039D80001010101000101010101010202020303C9
:1039E80004050506070708090A0B0C0D0E0F101130
:1039F8001314151718191B1C1E1F212224262729EA
:103A08002B2D2E3032343637393B3D3F4143454725
:103A1800494B4D4F29235E04414C364E52502911D3
:103A2800311B490B13261B3C270C3E39045E2D5CC9
:103A38002617471E53122D28235B2B065F031A5D9A
:103A48000938451F1D340B5C1615455B532D490A73
:103A58001C3B0E12003A100E4058565D3209525661
:103A68001E5D095C2D2F5452242046500B043057FC
:103A7800325B41225642511D210B1F5A302A39020E
:103A880059121D292C401E4559150900522A290C86
:103A9800535F27165F34565E2D1C2E46032F3709B9
:103AA800015F090F414D313E1D3C565232465D5073
:103AB800242F2A17221748592C332B09323E131466
:103AC8003E4C5415543F5404191E354F1202542CC1
:103AD8004F53500D48132F1506593D0A0520174B13
:103AE800384107442E3F504054410D3E1B251527B1
:103AF8005B33225F3830125A24140E11053E4955A3
:103B080018060A0456532E59562F272834574A2A7E
:103B180050574856807F7F7F7F7F7E7E7D7C7C7B71
:103B28007A79787776757372706F6D6C6A68666487
:103B380062605E5C5A585553514E4C494744413F68
:103B48003C393633302E2B2825221F1C1815120F0E
:103B58000C09060300FDFAF7F4F1EEEBE8E4E1DE08
:103B6800DBD8D5D2D0CDCAC7C4C1BFBCB9B7B4B2EF
:103B7800AFADABA8A6A4A2A09E9C9A989694939148
:103B8800908E8D8B8A8988878685848483828281BA
:103B980081818181818181818181828283848485FF
:103BA800868788898A8B8D8E9091939496989A9C13
:103BB8009EA0A2A4A6A8ABADAFB2B4B7B9BCBFC112
:103BC800C4C7CACDD0D2D5D8DBDEE1E4E8EBEEF14C
:103BD800F4F7FAFD000306090C0F1215181C1F2232
:103BE80025282B2E303336393C3F414447494C4E2B
:103BF800515355585A5C5E60626466686A6C6D6FB2
:103C080070727375767778797A7B7C7C7D7E7E7F1F
:103C18007F7F7F7F000306090C0F1215181C1F22D7
:103C280025282B2E303336393C3F414447494C4EEA
:103C3800515355585A5C5E60626466686A6C6D6F71
:103C480070727375767778797A7B7C7C7D7E7E7FDF
:103C58007F7F7F7F7F7F7F7F7F7F7E7E7D7C7C7B7A
:103C68007A79787776757372706F6D6C6A68666446
:103C780062605E5C5A585553514E4C494744413F27
:103C88003C393633302E2B2825221F1C1815120FCD
:103C98000C09060300FDFAF7F4F1EEEBE8E4E1DEC7
:103CA800DBD8D5D2D0CDCAC7C4C1BFBCB9B7B4B2AE
:103CB800AFADABA8A6A4A2A09E9C9A989694939107
:103CC800908E8D8B8A898887868584848382828179
:103CD80081818181818181818181828283848485BE
:103CE800868788898A8B8D8E9091939496989A9CD2
:103CF8009EA0A2A4A6A8ABADAFB2B4B7B9BCBFC1D1
:103D0800C4C7CACDCFD2D5D8DBDEE1E4E8EBEEF10B
:103D1800F4F7FAFDFA16BB11ADAE248879FE52DB32
:103D28002543E53CF445D3D828CE0BF5C560593D6D
:103D380097278A59762DD0C2C9CD68D4496A792582
:103D480008614014B13B6AA51128C18CD6A90B871C
:103D5800978C2FF1151D9A95C19BE1C07EE9A89A11
:103D6800A786C2B554BF9AE7D923D155903828D130
:103D7800D96CA1665E4EE1309CFED9719FE2A5E246
:103D88000C9BB44765382A4689A982797A7678C225
:103D980063B126DFDA296D3E62E0961234BF39A698
:103DA8003F895EF16D0EE36C28A11E201DCBC20376
:103DB8003F4107840F1405651B2861C9C5E72C8E90
:103DC800463608DCF3A88DFEBEF2EB71FFA0D03BAF
:103DD80075068C7E8778734DD0BE82BEDBC24641A5
:103DE8002B8CFA307F70F0A754863295AA5B681343
:103DF8000BE6FCF5CABE7D9F898A411BFDB84F685A
:103E0800F6727B1499CDD30DF0443AB4A6665333B9
:103E18000BCBA11000060C12181D22272B2F3235B0
:103E280038393B3B3B3B3A383633302C28241F1A71
:103E380015100A0500FBF6F1ECE7E2DEDAD7D4D27A
:103E4800D0CECDCDCDCDCED0D2D4D7DADDE1E5E917
:103E5800EEF2F7FC0004090D1115191D2023252782
:103E6800292A2B2B2B2B2A29272523201D1A161309
:103E78000F0B070300FDF9F5F2EEEBE8E6E4E2E0EC
:103E8800DFDEDDDDDDDDDEDFE0E2E4E6E9EBEEF1FD
:103E9800F4F7FAFD000306080B0E1013151618198F
:103EA8001A1B1B1B1B1B1A191817151412100E0BA3
:103EB8000907040200FEFCFAF8F6F4F3F1F0EFEE5D
:103EC800EDEDEDEDEDEDEEEEEFF0F1F3F4F5F7F8E5
:103ED800FAFCFDFF0001020405060708090A0B0B9E
:103EE8000B0B0C0B0B0B0B0A09090807060605043C
:103EF800030201000000FFFEFEFDFDFDFCFCFCFCD2
:103F0800FCFCFCFDFDFDFDFEFEFEFFFFFF000000CA
:103F1800000000003F3F3E3C3937332F2B27221C3F
:103F280017110B0500FBF5EFEAE5E0DCD8D4D1CE9C
:103F3800CCCAC9C9C9C9CACCCED0D3D7DADFE3E85D
:103F4800ECF1F6FB0005090E13171B1F2326282B7F
:103F58002D2E2F2F2F2F2E2C2B292623201C1915E1
:103F6800110C080400FCF8F4F0ECE9E6E3E0DEDC10
:103F7800DBDAD9D9D9D9DADBDDDFE1E3E6E9ECEF41
:103F8800F2F6F9FD0003060A0D10131517191B1D8B
:103F98001E1F1F1F1F1F1E1D1C1A19171512100D7B
:103FA8000B08050200FEFBF9F6F4F2F0EEEDECEA80
:103FB800EAE9E9E9E9E9EAEAEBEDEEEFF1F3F5F729
:103FC800F9FBFDFF0001030507080A0B0C0D0E0E97
:103FD8000F0F0F0F0F0F0E0E0D0C0B0A0908070617
:103FE8000403020100FFFEFDFCFCFBFAFAF9F9F9F3
:103FF800F8F8F8F9F9F9F9FAFAFBFBFCFCFDFEFE12
:10400800FFFF0000000000000101010101010100A3
:1040180000000000A09F9F9F9F9F9F9E9E9E9D9D2A
:104028009C9B9B9A99999897969594939291908F27
:104038008D8C8B898887858482817F7E7C7A79774D
:10404800757372706E6C6A69676563615F5D5B59F1
:1040580057555351504F4D4B49474543413F3D3BC1
:104068003937363432302E2D2B2927262422211F8A
:104078001E1C1B19181715141311100F0E0D0C0BFD
:104088000A090807070605050403030202020101DD
:104098000101010101010101010101020202030301
:1040A80004050506070708090A0B0C0D0E0F101169
:1040B8001314151718191B1C1E1F21222426272923
:1040C8002B2D2E3032343637393B3D3F414345475F
:1040D800494B4D4F5051535557595B5D5F6163656F
:1040E80067696A6C6E7072737577797A7C7E7F8186
:1040F8008284858788898B8C8D8F909192939495F3
:1041080096979899999A9B9B9C9D9D9E9E9E9F9FF2
:104118009F9F9F9F3E04CD300ACDA9013EFFE047F7
:104128000141622100801E0CCD1E0A0100602100A1
:10413800981E04CD1E0AAFE043E042EA81FF3E7FAD
:10414800EA80FFCDA901CD0F0FCDA90101B51CFA59
:1041580081FFCB3FCB3FE603814F0AE047FA81FF5F
:10416800FE0C28043CEA81FFFA80FFFE0028043D8B
:10417800EA80FFF044CB3FCB3F570615FA80FF8219
:104188004F0ACB3F47FA80FF4FCD43003E0092577E
:10419800F0445FF044BB28FB7AE043F044FE5A2821
:1041A80009F044FE8F20CCC3321CFAC3C7CB3FCBE7
:1041B8003FCB3FCB3FCB3FE601FE0028073E00E068
:1041C80047C38D1C3E30C38D1C004090E4AFEA818C
:1041D800FFE043E042EA84FF3E3FEA80FF3E01EA17
:1041E80090FF3E04CD300ACDA9013EFFE047011300
:1041F8006C2100801E07CD1E0A01D2692100981E7D
:1042080004CD1E0ACDA9013EE4E047FAC5C7EA82FB
:10421800FFCD0F0FCDA901FA82FF57FAC5C7BA28FB
:104228001AEA82FF3E3FEA80FFFA84FF3CEA84FFF5
:10423800FE0320073EFFE047F37600FA81FF3CEAE1
:1042480081FFFA80FFFE0028043DEA80FFF044CB9E
:104258003F570615FA80FF824F0ACB3F47FA80FF87
:104268004FCD43003E009257F0445FF044BB28FB1B
:104278007AE043F044FE8F20D4C3FD1C3EFFE047A4
:104288003E03CD300A0152622100801E10CD1E0A65
:10429800AFE043E042EA84FFEA82FFFAC5C7CB17E2
:1042A800CB17CB17EA80FFEA81FFC5CDA901AFEA9A
:1042B80085FFCD0F0FFA80FF3CEA80FFFE00282122
:1042C800FAC3C7CB3FCB3FCB3F01951E814F78CE7A
:1042D80000470AFE0120053EE4C3CA1D3E90EA835A
:1042E800FF061BFA80FF4F0A57CB3FCB3FE6FC5F28
:1042F80021A4497D836F7CCE00677ACB3F3CE043A5
:10430800C10100987BCB3FCB3F814F78CE0047C59A
:10431800FA80FF57CB27CB27CB27CB27825FCDA9A6
:1043280001CD541EC1F041E60220FAFA82FF0203D1
:104338007A0203C5FA84FF3CEA84FFFE0B20E2AF51
:10434800EA84FFC13E0A814F78CE0047C57DC62862
:104358006F7CCE0067FA85FF3CEA85FFFE1220C11C
:10436800FA83FFE047C39A1D2A8306404F0A572A5B
:104378008306414F0AB2572A8306424F0AB2572A88
:104388008306434F0AB2EA82FF2A8306404F0A5740
:104398002A8306414F0AB2572A8306424F0AB25768
:1043A8002A8306434F0AB257C901010101000001DF
:1043B80001010101010101010101010101000001E7
:1043C80001010101010101010101013E02CD300A93
:1043D8003EFFE047CD450A0163672100801E10CDEE
:1043E8001E0A0162632100981E04CD1E0ACDA90190
:1043F800AFEA80FF3EE4E047000000F044FE8E2074
:1044080034CD0F0F3EFFE047FA80FF3CEA80FFFA09
:10441800C3C7CB3FCB3FCB3F016F1F814F78CE0047
:10442800470AFE0120053EE4C3191F3E90EA83FFB8
:104438000E00CD390AFA80FF5706104F0A825F0630
:1044480016F044CB3F824F0AEA82FF0610F04483FD
:104458004F0A5FFA82FF83570610FA80FFCB274F77
:10446800F044814F0ACB3FCB3FCB3FD61C5FF04493
:104478004FF044B928FB7BE043F083E0477AE04201
:10448800C3E41E0101010100010101010101010054
:104498000101010101010100010101010101010006
:1044A80001010001010001020301010101040105EC
:1044B80006010101010001020301010101040105D6
:1044C80006010101010702070801010101090509A7
:1044D8000A01010101070207080101010109050993
:1044E8000A01010101070708010101010109090A7F
:1044F8000101010101070708010101010109090A78
:1045080001010101010707070B010101010909095F
:104518000C010101010707070B0101010109090944
:104528000C01010101010101010001020301010166
:104538000104010506010101010001020301010155
:104548000104010506010101010702070801010133
:10455800010905090A010101010702070801010112
:10456800010905090A010101010707080101010103
:104578000109090A010101010107070801010101F7
:104588000109090A01010101010707070B010101DE
:10459800010909090C010101010707070B010101C4
:1045A800010909090C0401050601010101000102C4
:1045B80003010101010401050601010101000102D5
:1045C80003010101010905090A01010101070207A7
:1045D80008010101010905090A0101010107020792
:1045E800080101010109090A010101010107070880
:1045F800010101010109090A010101010107070877
:1046080001010101010909090C010101010707075D
:104618000B010101010909090C0101010107070743
:104628000B0101010101010101040105060101015C
:104638000100010203010101010401050601010154
:104648000100010203010101010905090A01010133
:104658000107020708010101010905090A01010111
:1046680001070207080101010109090A0101010105
:1046780001070708010101010109090A01010101F6
:104688000107070801010101010909090C010101DC
:10469800010707070B010101010909090C010101C3
:1046A800010707070B0001020301010101040105CD
:1046B80006010101010001020301010101040105D4
:1046C80006010101010702070801010101090509A5
:1046D8000A01010101070207080101010109050991
:1046E8000A01010101070708010101010109090A7D
:1046F8000101010101070708010101010109090A76
:1047080001010101010707070B010101010909095D
:104718000C010101010707070B0101010109090942
:104728000C01010101010101010001020301010164
:104738000104010506010101010001020301010153
:104748000104010506010101010702070801010131
:10475800010905090A010101010702070801010110
:10476800010905090A010101010707080101010101
:104778000109090A010101010107070801010101F5
:104788000109090A01010101010707070B010101DC
:10479800010909090C010101010707070B010101C2
:1047A800010909090C0401050601010101000102C2
:1047B80003010101010401050601010101000102D3
:1047C80003010101010905090A01010101070207A5
:1047D80008010101010905090A0101010107020790
:1047E800080101010109090A01010101010707087E
:1047F800010101010109090A010101010107070875
:1048080001010101010909090C010101010707075B
:104818000B010101010909090C0101010107070741
:104828000B0101010101010101040105060101015A
:104838000100010203010101010401050601010152
:104848000100010203010101010905090A01010131
:104858000107020708010101010905090A0101010F
:1048680001070207080101010109090A0101010103
:1048780001070708010101010109090A01010101F4
:104888000107070801010101010909090C010101DA
:10489800010707070B010101010909090C010101C1
:1048A800010707070B2CFEFFFCFFF8FFF0FFE0FFF6
:1048B800C0FF80FF00FFFFFFFFFFFFFFFFFFFFFFBD
:1048C800FFFFFFFFFFFFFFFFFEFFFCFFF8FFF0FF0A
:1048D800E0FFC0FF80FF7FFF3FFF1FFF0FFF07FFC5
:1048E80003FF01FF00FFFFFEFFFCFFF8FFF0FFE002
:1048F800FFC0FF80FF00FFFFFFFEFFFCFFF8FFF097
:10490800FFE0FFC0FF80FF7FFF3FFF1FFF0FFF0794
:10491800FF03FF01FF0000FF00FF00FF00FF00FF93
:1049280000FF00FF00FF01FF03FF07FF0FFF1FFF4E
:104938003FFF7FFFFFFFFF00FF00FF00FF00FF00BA
:10494800FF00FF00FF00FF01FF03FF07FF0FFF1F2E
:10495800FF3FFF7FFFFF00FF01FF03FF07FF0FFF80
:104968001FFF3FFF7FFFFF00FF01FF03FF07FF0F50
:10497800FF1FFF3FFF7F2C00000000000000000029
:10498800000000000000000000000000000000001F
:10499800000000000000000000000000000000000F
:1049A80000000000000000000000000000000000FF
:1049B80000000000000000000000000000000000EF
:1065180000000000FE070200CC0D0400E50808009A
:10652800820B0C00F10A1000580C13004C0E1400DA
:10653800090D1800001C0401B71E07014C0E0801C4
:10654800681D0C01A60E1001E5081401681D17014D
:106558004C0E1801A60E1901E5081A01A60E1B011A
:106568004C0E1C01B91C200100010203040506079A
:106578000708090A0B0C0D0E0F10000000000000A0
:10658800000000000000000011121314151617185F
:10659800191A1B1C1D1E1F202122000000000000CC
:1065A80000000000000000000023242526272829D9
:1065B8002A2B2C2D2E2F3031323300000000000002
:1065C8000000000000000000003435363738393A42
:1065D8003B3C3D3E3F404142434400000000000038
:1065E80000000000000000000045464748494A4BAB
:1065F8004C4D4E4F505152535400000000000000C3
:106608000000000000000000000055565758595A75
:106618005B5C5D5E5F60616200000000000000007E
:106628000000000000000000000000636465666769
:1066380068696A6B6C6D00000000000000000000D3
:10664800000000000000000000000000006E6F70F5
:1066580071727374750000000000000000000000F3
:1066680000000000000000000000000000767778BD
:10667800797A7B7C7D7E000000000000000000002D
:1066880000000000000000000000007F8081820000
:106698008384858687888900000000000000000048
:1066A800000000000000000000008A8B8C8D8E8F97
:1066B8000000909192939495000000000000000063
:1066C800000000000000000000969798999A9B9C93
:1066D8009D9E9FA0A1A2A3A4A50000000000000009
:1066E800000000000000000000A6A7A8A9AAABAC03
:1066F800ADAEAFB0B1B2B3B4B5B6000000000000A3
:1067080000000000000000007FB7B8B9BABBBCBDEC
:10671800BEBFC0C1C2C3C4C5C6C7000000000000D8
:106728000000000000000000C8C9CA4D4DCBCCCD08
:10673800CECFD0D1D2D3D4D5D6D700000000000018
:10674800000000000000000000D84DD9DADBDCDDD5
:10675800DEDFE0E1E2E3E4E5E6E700000000000058
:106768000000000000000000000102030405060705
:106778000708090A0B0C0D0E0F100000000000009E
:10678800000000000000000011121314151617185D
:10679800191A1B1C1D1E1F202122000000000000CA
:1067A80000000000000000000023242526272829D7
:1067B8002A2B2C2D2E2F3031323300000000000000
:1067C8000000000000000000003435363738393A40
:1067D8003B3C3D3E3F404142434400000000000036
:1067E80000000000000000000045464748494A4BA9
:1067F8004C4D4E4F505152535400000000000000C1
:106808000000000000000000000055565758595A73
:106818005B5C5D5E5F60616200000000000000007C
:106828000000000000000000000000636465666767
:1068380068696A6B6C6D00000000000000000000D1
:10684800000000000000000000000000006E6F70F3
:1068580071727374750000000000000000000000F1
:1068680000000000000000000000000000767778BB
:10687800797A7B7C7D7E000000000000000000002B
:1068880000000000000000000000007F80818200FE
:106898008384858687888900000000000000000046
:1068A800000000000000000000008A8B8C8D8E8F95
:1068B8000000909192939495000000000000000061
:1068C800000000000000000000969798999A9B9C91
:1068D8009D9E9FA0A1A2A3A4A50000000000000007
:1068E800000000000000000000A6A7A8A9AAABAC01
:1068F800ADAEAFB0B1B2B3B4B5B6000000000000A1
:1069080000000000000000007FB7B8B9BABBBCBDEA
:10691800BEBFC0C1C2C3C4C5C6C7000000000000D6
:106928000000000000000000C8C9CA4D4DCBCCCD06
:10693800CECFD0D1D2D3D4D5D6D700000000000016
:10694800000000000000000000D84DD9DADBDCDDD3
:10695800DEDFE0E1E2E3E4E5E6E700000000000056
:10696800000000000000000024FFFFFFFFFFFFFF02
:10697800FFFFFFFFFFFFFFFFFFFFC0FFE0FFE0FF9C
:10698800F0FFF8FFFCFFFEFFFEFF00FF00FF00FF27
:10699800007F00BF00FF00EF00FF00FF00FF00FACC
:1069A80000FD00F700FF00FF00BD007F00FF00FFB3
:1069B80000FA00FF00FF004E00D5007E00F500BC85
:1069C80000DB006D00FA00D700400090004800A4EA
:1069D8000028004000D8002400000000000000004B
:1069E8000000000000000000000D0002000400018B
:1069F8000002000100000000007F00FF00BD025FF0
:106A080000AF003F00AF005F00DD22728DED12B3D2
:106A18004CDF20AE51F9067F8048B7B04F48B7B673
:106A280049906F6A95AA5548B700FF20DF00FF001C
:106A3800FF40BF20DF00FF20DF0BFF21FF10FF001A
:106A4800FF00FF04FF08FF00FF06FF22FF85FFA0ED
:106A5800FF15FF50FF25FF18FF52FFADFF7BFFC456
:106A6800FF2AFF95FF4BFFC5FF7FFF9FFF6FFFD7F3
:106A7800FFAFFF57FF97FFEBFFFFFFFFFFFFFFFF92
:106A8800FFFFFFFEFFFFFFFFFFFFFFFFFFFFFFFF0F
:106A9800FFFFFFBFFFEFFF7FFFFF00FF80FFC0FF8B
:106AA800E0FFF0FFF8FEFCFFFCFF00FF00FF00FF27
:106AB80000FF00FF00FF00EF00FD00FF00FF00FEE9
:106AC80000FF00FD00FF00FE00EC00D700FE00FF05
:106AD800003D00DF00EE00F700D000B000EE0054EB
:106AE800005900BF00FD00F6000000000000008013
:106AF800004000A4004800A20000000000000000C0
:106B0800000000000000004000000000000000003D
:106B1800000100000001004000AB005F003F00974B
:106B280000DF00AB00D700AF00FA05DB24FF00FF51
:106B380000FA05FF00FD02FA05AA5545BACC333024
:106B4800CFF60935CA43BCB847807F02FD807F0174
:106B5800FE20DF00FF40BF827D00FF02FF00FF0034
:106B6800FF00FF00FF00FF00FF40FF02FF01FF0CD6
:106B7800FF00FF02FF10FFACFF35FFCBFF5CFF03F8
:106B8800FFB4FF4EFFA9FF24FFF7FF0BFFF5FF152A
:106B9800FFAFFF53FF6FFFD5FFCFFFBDFF4AFFB524
:106BA800FF56FF89FF86FF88FFFFFFFFFFFFFFEF0C
:106BB800FFBFFF3FFF49FFB6FFFF00F780EFC0FFB1
:106BC800F0FFF0FFF87FFEBBFFFF00F700FF00FFBC
:106BD80000FF00FF00FF00FF00FF00F600EF00FFCE
:106BE80000FF00BD00FF00EF00FF00EE00F7005FB0
:106BF80000FF00B7007B00B7005D00F6007900D504
:106C080000FB00DC00EF00BB00B500740029007534
:106C180000AA00D700FB00ED00120025005A00E58D
:106C2800009A006500FD0057005F009700FD005FB7
:106C380000FF00BF00FF00FF00FF00FF00FF00FD96
:106C480002FA05FF00FD02DE216B94C837EE1196AB
:106C580069F10E4AB5C53AFF00758A827D847B507A
:106C6800AF20DF906F04FB48B702FF00FF00FF0171
:106C7800FF00FF00FF04FF02FF11FF08FF0CFF11D8
:106C8800FF08FF35FF4CFFA2FF52FF4DFF04FFBD79
:106C9800FF52FFADFF52FFB5FF9BFF6BFF97FF77DA
:106CA800FF6BFF9BFFEFFF5FFFA0FFC1FFC0FFE08F
:106CB800FFF0FFF0FFF8FFFCFF49FF0AFF00FF0AA3
:106CC800FF00FF00FF00FF24DB75FFAAFF55FF87C9
:106CD800FF38FF42FF20FF01FF7FC0FFE0BFF05FEA
:106CE800FC37FE8DFF72FF05FFFA00FF00FF00FF73
:106CF80000FF007F80BFC05FE07E00FF00FF00FE56
:106D080000FF00FF00FF00FF00FD00FB00FD00FF8B
:106D180000FF00FF00FB00FF00F6007B00DE00FF25
:106D280000EF00FF00FF00FB00FD00DF00FF00DFB9
:106D3800003F00FD00FF00FF00EF00FF00EF00FF35
:106D480000FF00FF00FF00FF00FB04EF10DD22EB57
:106D580014DD22FF00B44B6F90B8474EB1A956D44A
:106D68002B2AD5F6096996D42B926DA05F50AF02F5
:106D7800FDA05F00FF00FF807F01FF02FF01FF040D
:106D8800FF01FF28FF01FF0AFF01FF52FF41FFAB90
:106D9800FF34FF4EFF53FFA9FF4FFFBAFF6BFF1AE7
:106DA800FFEFFFBFFF74FFABFFEFFF9FFF7FFFFF0A
:106DB800FF7FFFFFFFFFFFFFFFFEFFFEFFFEFFFF5E
:106DC800FFFFFFFFFFFFFFFFFF08F7946B6A95A126
:106DD800DEDDE2E1FEFDF2FAFD00FF10EF00FFA8A4
:106DE8005750AF22DDA85753AC28FF00FF00FF0122
:106DF800FF00FF00FFC03F4AB5E7F82BFE44FF0A3B
:106E0800FF00FF04FF00FF807FFF00FF00FF003F3F
:106E1800C0AFF067F813FC21FFFF00FF00FF00BFC1
:106E280040FB04EF10BD42FF00FF00FF00FF00FF22
:106E380000FF00DF207F80FF00FF00FF00FF00FF52
:106E480000FF00FF00FF00FF00FF00FF00FF00F74A
:106E580008FB04FF00F708EB14FD02AD527A85DE4B
:106E680021E9167D82ED12728D689731CEC837817F
:106E78007EB04F40BF41BE946B00FF20DF00FF0093
:106E8800FF00FF01FF06FF01FF01FF48FF14FF336A
:106E9800FF48FF2BFF59FF47FF5FFF73FF53FFB505
:106EA800FF7FFFBBFFFFFFFFFF7DFFF7FF5FFFBF18
:106EB800FFDFFFFFFF7FFFFFFFFDFEFDFEFFFFFF80
:106EC800FFFFFFFFFFFFFFFFFFAD52FF00A758FFC7
:106ED80080EFD0FFF0FFF0FFF8D02F25DAEA15D5C4
:106EE8002A6E91BD42EF10FF0002FD00FF8A757502
:106EF8008ACA35F9062AD5FD0202FF00FF00FF56AF
:106F0800A950AFC03F36C9D12E7D8207F805FA01D6
:106F1800FE00FF20DF0CF351AEFF00FF005FA0FF73
:106F280000CE3131CE0FF005FAFF007F80EB145709
:106F3800A8EF10BF407B84AA55F708FF009669EFB9
:106F48001055AAF609EB14B44BAD52F20DD02FA28E
:106F58005D5DA2AC53A45B50AFA85700FF906FA033
:106F68005F40BF00FF42BF04FF04FF53FF2AFF97A3
:106F7800FF09FFCAFF2DFFD6FF16FFEBFF57FF5F84
:106F8800FFEFFF5FFFFFFFFFFFBFFFFFFF7FFFFF79
:106F9800FFFFFFFFFFFFFFFFFFFFFEFFFFFFFFFFFA
:106FA800FFFFFFFFFFFFFFFFFFCF30FF80FFC0FFA6
:106FB800E0FEF0FDFCFFFFFFFFFF00EF10FF00FF0A
:106FC80000FF00FA00FF00D680AF50DA25F609FF6F
:106FD80000FE01FF00FF007D0012EDEC13FD0252E0
:106FE800ADEB14FE01FF007F0043BC887710EFC4AF
:106FF8003B728DAD52FA05F6095DA25AA525DADA7B
:107008002525DA1AE5A15EBC43EE1159A66A954911
:10701800B626D950AF16E956A9827D906F689710A9
:10702800EF40BFA85700FF50AF817F0AFF05FF1D43
:10703800FF03FF5DFF26FF15FF2DFFDEFFFFFF7F2C
:10704800FFFFFFFFFFFFFFFFFFEBC0FCE0FEF8FEC6
:10705800FEFFFFFFFFFFFFFFFFF1000500A900048F
:107068000040008080E0E0F8F8DF007A004D002260
:10707800000100000000000000FF00BF005F00DF0B
:10708800005F0005000100000043BC946BFB04BFD7
:1070980040FF00FF007F003D00A956649B926D45AC
:1070A800BAB44B6996F609FB04A05F40BF807F40E5
:1070B800BFA05F11EFE81752ADABFF37FFDFFF3F0F
:1070C800FFFFFF7FFFFFFF7FFFFFFFFFFFFFFFFFC8
:1070D800FFFEFFFDFFF3FFEDFFFCFCDFFFBFFFFF3F
:1070E800FF7FFFBFFFFFFFFFFF000000008080E081
:1070F800E0F8F8FCFCFFFFFFFF00000000000000C4
:1071080000000000000000C0C00B000200010000E9
:107118000000000000000000007D02FF00AF0077C3
:10712800000900020001000300F10EF50AFD02F754
:1071380008FE01DD02AE0133007FFFBF5FDF2FA72E
:107148005FC837B748DA25F50AFFFFFFFFFFFFFFE3
:10715800FFFFFFFF7F3FFFDF2FFFFFFFFFFFFFFF67
:10716800FFFFFFFFFFFFFFFEFFFFFFFEFFFDFFFA30
:10717800FFE8FFF4FF08FF01FFD6FF27FF59FF2DA7
:10718800FF2AFF29FFD4FF23FFFFFFBFFFDFFFBF59
:10719800FF7FFFFFFF7FFF6FFFE0E0F8F8FEFEFFD5
:1071A800FFFFFFFFFFFFFFFFFF0000000000008060
:1071B80080C0C0F0F0F8F8FFFF00000000000000F9
:1071C800000000000000009000B30055000E00030E
:1071D800000500010002000100FB04F609FF006F32
:1071E800007F007F00BB005F006F979769E51AFB7F
:1071F80004EE11FF00F609FF00FFFFFFFFFFFF7F0E
:10720800FF9F7FDF2F2BD7DD23FFFFFFFFFFFFFF50
:10721800FFFFFFFFFFFCFFFCFFFDFFF2FFF0FFC0D9
:10722800FF80FF00FF00FF02FD02FF81FF00FF0556
:10723800FF10FF00FF00FF00FF08FF25FF02FF0906
:10724800FF02FF01FF14FF0AFF95FF6AFFB9FF4D18
:10725800FF37FF01FF4AFF10FFFFFFFFFF6FFFD758
:10726800FF6FFFFFFF93FFEFFF0400E2C0FCF0FF9A
:10727800FCFEFEFFFFFFFFFFFF4E002100AE0055A2
:1072880000AB00DD80FFE0FEF8FA004F00B5007E9D
:1072980000FD007E00DF00FF00FF00FE01FF00BFD1
:1072A800005F00FF00F700DF00D7297E81FB04ECB8
:1072B80013FF00EB147E81FF00FFFFFF7F5FBF9F7E
:1072C8006F57AFC73FAF5352ADFFFFFFFFFFFFFF41
:1072D800FFFFFFFFFEFEFFFCFFFAFDF8F7D2EDC54A
:1072E800FA8AF5807F2AD5D52A00FF0AF500FF0023
:1072F800FF10EF807F04FB807F00FF00FF00FF0886
:10730800F7A05F807F54ABA85704FF00FF00FF0081
:10731800FF00FF01FE00FF827D03FF4CFF12FF010B
:10732800FF00FF00FF00FF00FF3FFF4DFF52FF0D72
:10733800FF22FF10FF42FF00FFFFFF7FFFCFFF3B51
:10734800FFCDFF55FF2AFF85FFFFFFFFFFFFFFFF70
:10735800FF7FFFFFFFDDFF7BFFFFFFFFFFFFFFFF5B
:10736800FFFFFFFFFFFFFF5FFFFDFCFFFEFFFFFFCB
:10737800FFFFFFFFFFFFFFFFFF7F00F700FFC0F7E2
:10738800E0FFF0FFFCFFFEFFFFFF00DF007F00FFD4
:1073980000FF00BF00FF00FF80FF00FE01FF00FFAD
:1073A80000FD02FF00FF00FF006F90D42B6A95F6E6
:1073B80009F20DBD42718EDA25FF7F7FBF9F7F7F67
:1073C8009F8F7F976F6997B44BFCFFFAFDF8F7E141
:1073D800FEE8F7F4CBF3CC8BF428D7D62928D75678
:1073E800A96B94AA5557A8A9569C6328D7D728AD46
:1073F8005245BADE21EB147A8546B9B94652AD3DFD
:10740800C242BDBC434BB4F40B20DF43BCA45B5168
:10741800AEB44BE21D3FC0F40B00FF44BB06F9D6E7
:107428002908F735CAD82757A800FF807F00FF0032
:10743800FF8C7320DF10EF51AE08FF04FF01FF003F
:10744800FF00FF00FF00FF00FFEAFF1FFF62FF15BC
:10745800FF26FF41FF06FF11FFAFFFF7FFFFFF6A9F
:10746800FF95FF6AFF15FF56FFFFFFFFFFFFFFB7FE
:10747800FFFFFF9FFF7FFF9AFFFFFFFFFFFFFFFF59
:10748800FFFFFFFFFFEBFFDFFFFFC0FFE0FFF8FF9D
:10749800FEFFFFFFFFFFFF7FFFFF00FF00FF00FE73
:1074A80001FF00FEC1FFE0FFF0AC53DB24F50AFF4B
:1074B80000ED12AE51FF00F20DD22D08F740BF4586
:1074C800BABA45C13ED42BC936FFFF7FFF3FFF3F05
:1074D800FFBF7F5FBF1FFF0FFFFA85AFD0F48BCFD1
:1074E80030FF002BD4D629BF40FF00E9165FA0B7B4
:1074F800485FA0AF50EF107F80DB247F80DE21BF84
:1075080040FF007F80FF00FF00BF40DA25E718BB7F
:1075180044FE01F50AFE01FF00DB24FD02FE015FC7
:10752800A0ED12FA05FD02FF00EE1159A66E91DDDD
:10753800227986B7487D82FF0024DBD22DAC53D652
:10754800296897DF20FF00ED1200FF906F44BB41D0
:10755800BE54ABF50AD52A4AB501FF00FF00FF006B
:10756800FF807F52AD04FBD82786FF51FFA0FF04A0
:10757800FF00FF00FF00FF00FFBBFF56FF13FF2DBA
:10758800FF12FF80FF00FF08FF7FFF9EFF7DFFCAFD
:10759800FF1FFFB5FF4AFFB7FFFFFFBFFF5FFFFFFA
:1075A800FFB7FF7AFF97FF7DFFFFFCFFFEFFFFBFDE
:1075B800FFFFFF7FFFFFFFFFFFFD02FA05F50AFE51
:1075C80081EDD2FFF0FAFDDBFCB04F54ABCA358435
:1075D8007B7A85A15ED02F0AF50FFF07FF0BFF0707
:1075E800FF03FF03FF03FF05FFFFFEFFFEFFFEFE95
:1075F800FFFFFEFEFFFFFEFFFF7F80FF00FB04FF93
:1076080000FF00FF00FF00FF00FF007F80FF00FF7A
:1076180000FF00FF00FF00FF00FF00FF00FF00FF6A
