:020000040800F2
:10000000000002206921000881050008850500081C
:10001000890500088D050008910500080000000012
:10002000000000000000000000000000990500082A
:1000300095050008000000009D050008A1050008C6
:10004000B1210008B1210008B1210008B121000848
:10005000B1210008B1210008A5050008B121000860
:10006000B1210008B1210008B1210008B121000828
:10007000B1210008B1210008B1210008B121000818
:10008000B1210008B1210008B1210008B121000808
:10009000B1210008B1210008B1210008B1210008F8
:1000A000B1210008B1210008B1210008B1210008E8
:1000B000B1210008B1210008B1210008B1210008D8
:1000C000B1210008B1210008B1210008B1210008C8
:1000D000B1210008B1210008B1210008B1210008B8
:1000E000B1210008B1210008B1210008B1210008A8
:1000F000B1210008B1210008B1210008B121000898
:10010000B1210008B1210008B1210008B121000887
:10011000B1210008B1210008B1210008B121000877
:10012000B1210008B1210008B1210008B121000867
:10013000B1210008B1210008B1210008B121000857
:10014000B1210008B1210008B1210008B121000847
:10015000B1210008B1210008B1210008B121000837
:10016000B1210008B1210008B1210008B121000827
:10017000B1210008B1210008B1210008B121000817
:08018000B1210008B1210008C3
:1001880008B540F27040074BC2F200001B1A062B5C
:1001980000D808BD40F20003C0F20003002BF8D0DD
:1001A8009847F6E77304002008B540F2704040F223
:1001B8007043C2F20003C2F200001B1A9B1003EB4B
:1001C800D373591000D108BD40F20002C0F20002FA
:1001D800002AF8D09047F6E710B540F27044C2F212
:1001E8000004237873B9FFF7CBFF40F20003C0F295
:1001F80000032BB142F2F840C0F60800AFF30080CC
:100208000123237010BD00BF08B540F20003C0F2FF
:1002180000034BB142F2F84040F27441C0F60800C6
:10022800C2F20001AFF3008040F26C40C2F200005D
:1002380003682BB140F20003C0F2000303B19847F2
:10024800BDE80840B0E700BF134B002B08BF114BB7
:100258009D46A3F5803A00218B460F461148124A65
:10026800121A02F001F80D4B002B00D098470C4BE6
:10027800002B00D098470020002104000D000B48F7
:1002880001F094FF01F0C2FF2000290001F048FFAF
:1002980001F092FF000008000000000000000000CC
:1002A80000000000700400209C840020E121000868
:1002B80030B54FF4804085B0012100F0D1FD002118
:1002C800022000F0C1FE0823012500240DEB0300E5
:1002D8008DF80D3002958DF80E508DF80C4000F019
:1002E8005BFA062301A88DF807508DF805408DF8B4
:1002F80006408DF8043001F0FBFD05B030BD00BFAD
:1003080070B50420012100F073FD40F28C43C2F265
:1003180000030726032502244FF4006000221E6014
:100328005D71DC711946C4F20200BDE870401A71B3
:100338009A7100F03BBB00BF70B51020012100F09E
:1003480057FD40F28C43C2F200034FF47F46032569
:1003580002244FF4805000221E605D71DC71194642
:10036800C4F20200BDE870401A719A7100F01EBB19
:1003780070B50820012100F03BFD40F28C43C2F229
:1003880000034FF6FF76032502244FF44060002255
:100398001E605D71DC711946C4F20200BDE8704050
:1003A8001A719A7100F002BB70B50120014600F085
:1003B8001FFD40F28C43C2F20003002006460325CD
:1003C800022401229E715D71DC711946C4F202009B
:1003D800BDE870401A601A7100F0E8BA4FF4605333
:1003E800C4F202030022196841F0010119609A6001
:1003F800186843F2100120F08470C2F2004120F422
:10040800803018605960196882B021F48021196021
:10041800DA60009201921A6842F480321A601A4631
:1004280003E0009BB3F5A06F09D0136803F4003311
:100438000193009B01330093019B002BF1D04FF4F3
:100448006053C4F202031B6813F4003318BF01237E
:100458000193019B012B08D04FF46D43CEF20003AA
:100468004FF000629A6002B070474FF46053C4F2D4
:1004780002034FF4E042196CC4F2000241F08051CB
:100488001964116841F4804111609A689A609A6809
:1004980042F400429A60996845F2084241F4A0513A
:1004A800C0F2407299605A601A6842F080721A600D
:1004B80019460A684FF460539201C4F20203F8D552
:1004C8004FF47052C4F2020240F2056111609A685A
:1004D80022F003029A609A6842F002029A609A68CF
:1004E80002F00C02082AFAD1B6E700BF4FF46053B5
:1004F800C4F202039A6802F00C02042A36D0082AD1
:1005080012D04FF41051C0F2F4014FF46052C4F20B
:10051800020240F204039268C2F20003C2F303121B
:100528009A5CD1401961704758685A6810F4800F76
:10053800586815BF4FF490534FF41053C0F27A0324
:10054800C0F2F40302F03F02B3FBF2F14FF4605340
:10055800C4F20203C0F388105B68C3F3014301339C
:1005680001FB00F15B00B1FBF3F1CEE74FF49051D2
:10057800C0F27A01C9E700BF704700BFFEE700BFBD
:10058800FEE700BFFEE700BFFEE700BF704700BF01
:10059800704700BF704700BF704700BF4FF47053EB
:1005A800C4F201031A685B69D9074BD5D30749D54B
:1005B80000BF00BF00BF00BF00BF00BF00BF00BF3B
:1005C80000BF00BF4FF440624FF40063C4F2020260
:1005D800C4F202031169186980078AB235D41B690D
:1005E800580732D54FF48053C4F202030020C5F2F5
:1005F8005550B2F5804F1860C0F08C80090400F1A6
:10060800A18040F29640C2F2000042F2C041007858
:10061800013802EB8032C0F600018A5C12025A618E
:1006280000BF00BF00BF00BF00BF00BF00BF00BFCA
:1006380000BF00BF00BF00BF4FF48053C4F20203E5
:1006480000221A60012000F017B900BF00BF00BFE8
:1006580000BF00BF00BF00BF00BF00BF00BF00BF9A
:1006680000BF00BF00BF00BF00BF00BF00BF00BF8A
:1006780000BF00BF00BF00BF00BF00BF00BF4FF4F6
:100688008053C4F2020302F5C040196983B2B3F57E
:10069800005FC1F3072115D3A2F500539BB2B3F550
:1006A800005F21D240F29643C2F2000301F01F011D
:1006B8001A7822F01F020A4309B942F001021A709F
:1006C80000BFBFE740F29540C2F2000040F29843F5
:1006D8000078C2F2000303EB40331A44A2F520422B
:1006E8000120117000F0C8B8B2F5C04FAAD240F28C
:1006F8009743C2F200031B78E3B140F29643C2F27B
:10070800000301F007011A7802F01F0242EA4111C2
:10071800197097E742F2C041C0F600018A5C1202E4
:100728005A6100BF00BF00BF00BF00BF00BF00BFCD
:1007380000BF75E740F29543C2F2000301F00301E0
:1007480019707FE702F5C04189B2B1F5005FBFF4C7
:1007580067AF40F29540C2F2000040F2984100783D
:10076800C2F2000101EB40310A44A2F5204212789E
:1007780012025A6154E700BF4FF47053C4F20103E8
:100788004FF6FF710022C0F27F011A605A609A602A
:10079800DA605961704700BF837970B443B34FF48E
:1007A8007053C4F2010301681E6802794579CC438D
:1007B80026401E605E6802F1804202F59E32344097
:1007C8005C6014682143116002689868D14308404E
:1007D8009860D868102D01EA0001D96014D005F19D
:1007E800804505F59E352B681A432A6070BC704712
:1007F8000379016803F1804303F59E3370BC1A68DE
:1008080022EA01021A607047996811439960D96811
:100818000A43DA6070BC704700230C2242710360FF
:1008280003718371704700BF4FF47053C4F2010322
:100838001A691043186170474FF47053C4F20103EA
:100848005B6918420CBF0020012070474FF47053B9
:10085800C4F20103586170474FF47053C4F20103A6
:100868001A685B69034004D010420CBF00200120C5
:1008780070471846704700BF4FF47053C4F2010325
:100888005861704708B50023C4F2020398423CD06F
:100898004FF48063C4F20203984240D04FF40063DF
:1008A800C4F20203984244D04FF44063C4F20203F6
:1008B800984248D04FF48053C4F2020398424CD077
:1008C8004FF4A053C4F20203984250D04FF4C053DF
:1008D800C4F20203984254D04FF4E053C4F2020326
:1008E800984258D04FF40053C4F20203984200D003
:1008F80008BD4FF48070012100F0C0FA4FF48070F9
:100908000021BDE8084000F0B9BA0120014600F016
:10091800B5FA01200021BDE8084000F0AFBA022076
:10092800012100F0ABFA02200021BDE8084000F0E8
:10093800A5BA0420012100F0A1FA04200021BDE895
:10094800084000F09BBA0820012100F097FA08201F
:100958000021BDE8084000F091BA1020012100F004
:100968008DFA10200021BDE8084000F087BA202049
:10097800012100F083FA20200021BDE8084000F0A2
:100988007DBA4020012100F079FA40200021BDE81D
:10099800084000F073BA8020012100F06FFA80202F
:1009A8000021BDE8084000F069BA00BF00222DE927
:1009B800F00713460E6801274FF0030804E00133DF
:1009C800102B02F102022ED007FA03F404EA0605FE
:1009D800A542F4D1D0F8009091F804C008FA02F4C6
:1009E800E44304EA0909C0F80090D0F800900CFA32
:1009F80002FA0CF1FF3C5FFA8CFC4AEA0909BCF1E7
:100A0800010FC0F8009011D9C56891F807C02C40B3
:100A1800C460C5680CFA02F401332C43102BC4607F
:100A280002F10202D0D1BDE8F0077047D0F808A063
:100A380091F8059091F806C004EA0A0AC0F808A0DF
:100A4800D0F808A009FA02F949EA0A09C0F808909A
:100A5800D0F8049029EA0505456045680CFA03FCBE
:100A68001FFA8CFC4CEA05054560CDE700234FF6DC
:100A7800FF720260037143718371C371704700BFD5
:100A880082B04FF480330193019B0B430193019B88
:100A9800C361C161019BC361C3690193C3690193C8
:100AA80002B07047036919420CBF0020012070474B
:100AB800006980B2704700BF436919420CBF00202B
:100AC80001207047406980B2704700BF01837047BA
:100AD800418370470AB9418370470183704700BF5B
:100AE800416170474369594041617047CB0800EB49
:100AF800830001F0070110B48900046A0F238B40BA
:100B080024EA03030362036A5DF8044B8A40134333
:100B1800036270474FF46053C4F20203002219685D
:100B280041F0010119609A60186843F2100120F041
:100B38008470C2F2004120F480301860596019684E
:100B480021F480211960DA60704700BF43F6020380
:100B5800C4F2020300221A701870704782B0002392
:100B68004FF460520193C4F2020213689B030FD43E
:100B7800019B01330193019BB3F5A06FF5D14FF4AD
:100B88006053C4F202031868C0F3404002B07047D3
:100B9800019B01330193019BF1E700BF4FF46053C0
:100BA800C4F202031A6822F0F80242EAC000186090
:100BB800704700BF0023C4F247231860704700BF86
:100BC80043F67003C4F20203002201281A701A7057
:100BD80005D0042802D105221A7070477047187092
:100BE800704700BF4FF46863C4F24723186070472A
:100BF80010B4019C40EA04605B0801434FF4605460
:100C0800C4F20204013B41EA821242EA03436360F0
:100C18005DF8044B704700BF6023C4F24723186097
:100C2800704700BF4FF460530907C4F2020341EA5A
:100C38008010C3F8840070476823C4F24723186003
:100C4800704700BF4C23C4F247231860704700BFA9
:100C58004FF46053C4F202039A6822F0EC62114325
:100C680008439860704700BF4FF46053C4F2020312
:100C78009A6822F07842114308439860704700BF91
:100C88004FF46053C4F202039A6822F0030210433F
:100C9800986070474FF46053C4F20203986800F0FC
:100CA8000C0070474FF46053C4F202039A6822F0B4
:100CB800F0021043986070474FF46053C4F2020387
:100CC8009A6822F4E0521043986070474FF46053DA
:100CD800C4F202039A6822F4604242EAC0009860B3
:100CE800704700BF4FF46053C4F2020310B49A680F
:100CF80002F00C02042A24D0082A28D04FF41051FC
:100D0800C0F2F40101604FF46052C4F2020240F2F2
:100D18001C039468C2F20003C4F303141C5DE14091
:100D280041609468C4F382241C5D21FA04F4846051
:100D380092685DF8044BC2F342329B5CD940C160B3
:100D480070474FF49051C0F27A010160DBE75C68AC
:100D58005A6814F4800F5C6815BF4FF490534FF431
:100D68001053C0F27A03C0F2F40302F03F02B3FB5F
:100D7800F2F14FF46053C4F20203C4F388145B68C1
:100D8800C3F30143013301FB04F15B00B1FBF3F151
:100D98000160B8E700F44073B3F5407F0CD14FF41D
:100DA8006053C4F2020320F070419A6821F4407144
:100DB80022F4F8120A439A604FF46053C4F2020313
:100DC800C0F30B001A6F10431867704740F63C6376
:100DD800C4F24723186070474FF46463C4F2472392
:100DE800186070474FF4AE73C4F247231860704719
:100DF8004FF46053C4F202031A6B19B922EA0000D7
:100E08001863704710431863704700BF4FF460536E
:100E1800C4F202035A6B19B922EA000058637047FA
:100E280010435863704700BF4FF46053C4F2020385
:100E38009A6B19B922EA00009863704710439863C7
:100E4800704700BF4FF46053C4F202031A6C19B91B
:100E580022EA00001864704710431864704700BF06
:100E68004FF46053C4F202035A6C19B922EA000025
:100E78005864704710435864704700BF4FF460537C
:100E8800C4F202031A6919B922EA0000186170470E
:100E980010431861704700BF4FF46053C4F2020357
:100EA8005A6919B922EA000058617047104358611D
:100EB800704700BF4FF46053C4F202039A6919B92E
:100EC80022EA00009861704710439861704700BF9C
:100ED8004FF46053C4F202031A6A19B922EA0000F7
:100EE8001862704710431862704700BF4FF4605390
:100EF800C4F202035A6A19B922EA0000586270471C
:100F080010435862704700BF4FF46053C4F20203A5
:100F18001A6D19B922EA0000186570471043186560
:100F2800704700BF4FF46053C4F202035A6D19B9F9
:100F380022EA00005865704710435865704700BFA3
:100F48004FF46053C4F202039A6D19B922EA000003
:100F58009865704710439865704700BF4FF4605319
:100F6800C4F202031A6E19B922EA00001866704723
:100F780010431866704700BF4FF46053C4F2020371
:100F88005A6E19B922EA000058667047104358662D
:100F9800704700BF43F60D03C4F202031A7819B96B
:100FA80022EA00001870704710431870704700BF9D
:100FB8004309012B0ED0022B4FF46053C4F20203F5
:100FC80000F01F000CBF1B6F5B6F23FA00F000F0EE
:100FD800010070474FF46053C4F2020300F01F0091
:100FE8001B6823FA00F000F0010070474FF46053CB
:100FF800C4F202035A6F42F080725A67704700BF0A
:101008004FF46053C4F20203DB6818420CBF00209F
:101018000120704743F60E03C4F2020318707047AC
:1010280008B54FF480400121FFF760FF4FF480407E
:101038000021BDE80840FFF759BF00BF4FF46053D7
:10104800C4F201031860704701F0FC0303F1804308
:1010580003F59C3301F0030110B489009C680F224A
:101068008A4024EA02029A609A685DF8044B884034
:1010780002439A60704700BFDC23C4F2272318603C
:10108800704700BF4FF48063C4F22723186070478D
:101098004FF46053C4F20103186AC0F3002070478C
:1010A80008B50023C4F2010398425BD0B0F1804F29
:1010B80062D04FF48063C4F20003984266D04FF4C4
:1010C8000063C4F2000398426AD04FF44063C4F24C
:1010D800000398426ED04FF48053C4F20003984244
:1010E80072D04FF4A053C4F20003984276D04FF464
:1010F8008063C4F2010398427AD04FF48043C4F26B
:10110800010398427ED04FF48843C4F20103984209
:1011180000F084804FF49043C4F20103984200F039
:1011280089804FF4C053C4F20003984200F08E80C7
:101138004FF4E053C4F20003984200F091804FF45A
:101148000053C4F20003984200D008BD4FF48070E9
:101158000121FFF7BDFE4FF480700021BDE8084073
:10116800FFF7B6BE01200146FFF7C0FE01200021AF
:10117800BDE80840FFF7BABE01200146FFF7A8FE08
:1011880001200021BDE80840FFF7A2BE022001218E
:10119800FFF79EFE02200021BDE80840FFF798BE39
:1011A80004200121FFF794FE04200021BDE8084037
:1011B800FFF78EBE08200121FFF78AFE08200021D4
:1011C800BDE80840FFF784BE10200121FFF780FE2C
:1011D80010200021BDE80840FFF77ABE2020012139
:1011E800FFF776FE20200021BDE80840FFF770BE1B
:1011F80002200121FFF77AFE02200021BDE8084005
:10120800FFF774BE4FF480300121FFF76FFE4FF4F3
:1012180080300021BDE80840FFF768BE4FF4003079
:101228000121FFF763FE4FF400300021BDE80840BC
:10123800FFF75CBE4FF480200121FFF757FE4FF403
:1012480080200021BDE80840FFF750BE4020012162
:10125800FFF73EFE40200021BDE80840FFF738BEFA
:1012680080200121FFF734FE80200021BDE80840DE
:10127800FFF72EBE70B400224FF48064C4F201025E
:101288000388C4F20104904218BFA0429BB214BF65
:101298000022012208D04FF48064C4F20004A04266
:1012A80018BFB0F1804F23D14FF68F754C881D4081
:1012B80045EA04034FF4A0564FF48055C4F20005E4
:1012C800C4F20006B04218BFA8421FBF0D894FF6EE
:1012D800FF441C4044EA05034D680C880380C5623E
:1012E80004850AB18B7A03860123838270BC704718
:1012F8004FF400654FF44064C4F20005C4F20004E2
:10130800A04218BFA842D5D1CEE700BF00234FF0B6
:10131800FF3242600380038143808372704700BFBD
:1013280001858282704700BF038823F070031B0485
:101338001B0C19430180704741627047C1627047B6
:10134800406A7047008D80B2704700BF038829B992
:1013580023F002031B041B0C038070479BB243F06D
:1013680002030380704700BF038829B923F00403F0
:101378001B041B0C038070479BB243F004030380DB
:10138800704700BF038829B923F080031B041B0C96
:10139800038070479BB243F080030380704700BF0F
:1013A800038823F008031B041B0C038003889BB2EB
:1013B80019430180704700BF038823F440731B045E
:1013C8001B0C038003889BB219430180704700BF40
:1013D800038829B923F001031B041B0C0380704701
:1013E8009BB243F001030380704700BF2DE9F00171
:1013F800048C8D89B1F802C00F8824F001042404FC
:10140800240C0484028C8488038B4CEA050C22F09B
:10141800020223F073034FF48066002512041B04B4
:10142800C4F20106C4F20105120C1FFA8CFC1B0C55
:10143800A84218BFB0424CEA0202A4B243EA07032A
:1014480017D14FF6F775B1F80EC0B1F812800E8AB1
:101458008F88154045EA0C0C4FF6FB7248EA0606E1
:101468004FF6FF450CEA0202B6B225403A4346EA77
:101478000504896884800383BDE8F0014163028420
:10148800704700BF2DE9F003048C8D89B1F802C0C4
:101498000F8824F010042404240C0484028C84880B
:1014A800038B22F02002120423F4E643120C42EAD2
:1014B80005121B044FF4806600251B0CC4F20106BC
:1014C800C4F2010542EA0C1243EA0723A84218BFF6
:1014D800B04292B2A4B29BB219D14FF67F76B1F85E
:1014E8000E90B1F81080B1F804C04F8A16404FF240
:1014F800FF3546EA09164FF6BF722540324045EAE5
:10150800880442EA0C1244EA870492B2A4B28968B9
:1015180084800383BDE8F00381630284704700BFC1
:101528002DE9F003048C8D89B1F802C00F8824F4EA
:1015380080742404240C0484028C8488838B22F411
:1015480000721204120C42EA052223F073034FF4CE
:10155800806600251B04C4F20106C4F2010542EAB4
:101568000C221B0CA84218BFB04292B2A4B243EAA4
:10157800070319D14FF2FF76B1F80E90B1F8108039
:10158800B1F804C04F8A16404CF6FF7546EA0926A2
:101598004FF6FF322540324045EA081442EA0C2251
:1015A80044EA071492B2A4B2896884808383BDE8B0
:1015B800F003C16302847047F0B4048C8D890F88EE
:1015C800B1F802C024F480542404240C0484028C4E
:1015D8008488838B22F400521204120C42EA0532EA
:1015E8004FF480660025C4F20105C4F20106A84242
:1015F80018BFB04223F4E64308BF0E8A8968A4B234
:1016080008BF4BF6FF754FEA034308BF25404FEA72
:10161800134308BF45EA861443EA072342EA0C321B
:1016280008BFA4B292B29BB284808383F0BC0164E9
:101638000284704700230380438083808360838112
:10164800C38103824382704730B4058C0124ADB254
:101658008C404FF6F77325EA04040B4004841830D5
:1016680073B10439C1F34E0148F6FF730C58234097
:101678000B5012020B5892B21A430A5030BC7047F2
:1016880049084FF68F7344582340435043581A4330
:10169800425030BC704700BF416370478163704758
:1016A800C163704701647047038B23F070031B0408
:1016B8001B0C194301837047038B23F4E0431B047D
:1016C8001B0C43EA01218BB203837047838B23F001
:1016D80070031B041B0C194381837047838B23F40D
:1016E800E0431B041B0C43EA01218BB28383704740
:1016F800038B23F008031B041B0C19430183704759
:10170800038B23F400631B041B0C43EA01218BB2F7
:1017180003837047838B23F008031B041B0C1943B6
:1017280081837047838B23F400631B041B0C43EAFB
:1017380001218BB283837047038B23F004031B04BE
:101748001B0C194301837047038B23F480631B042C
:101758001B0C43EA01218BB203837047838B23F070
:1017680004031B041B0C194381837047838B23F4E8
:1017780080631B041B0C43EA01218BB283837047EF
:10178800038B23F080031B041B0C19430183704750
:10179800038BC3F30E0343EA01218BB20383704723
:1017A800838B23F080031B041B0C19438183704730
:1017B800838BC3F30E0343EA01218BB28383704703
:1017C800038C23F002031B041B0C1943018470478C
:1017D800038C23F008031B041B0C19430184704776
:1017E800038C23F020031B041B0C43EA01118BB26A
:1017F80003847047038C23F080031B041B0C43EA0B
:1018080001118BB203847047038C23F400731B040B
:101818001B0C43EA01218BB203847047038C23F429
:1018280000631B041B0C43EA01218BB2038470473D
:10183800038C23F400531B041B0C43EA01318BB2C5
:1018480003847047038C10B401248C409BB223EAB4
:1018580004030384038C5DF8044B8A4013439BB252
:1018680003847047038C10B404248C409BB223EA91
:1018780004030384038C5DF8044B8A4013439BB232
:10188800038470470B88F0B4002B32D0042B59D056
:10189800082B4E88038C00F084808F880D89CC88B3
:1018A80023F480510904090C0184828B038C22F4EF
:1018B800407223F4005312055B04120D5B0C42EADC
:1018C800072243EA063342EA05329BB243F48053C7
:1018D80092B282830384838B23F440631B041B0C22
:1018E8008383838B9BB243EA04239BB28383F0BC3C
:1018F8007047038C4E888D880F89CC8823F00101AE
:101908000904090C0184028B038C22F0F3021204EF
:10191800120C23F00A0342EA07121B0446F00101E5
:1019280092B21B0C2A430B4302830384038B23F0DC
:101938000C031B041B0C0383038B9BB223430383FD
:10194800F0BC7047038C4E888D880F89CC8823F0B3
:1019580010010904090C0184028B038C22F44072E3
:10196800120523F0A003120D1B0442EA07321B0CD8
:1019780043EA061392B242EA05229BB243F01003EF
:1019880092B202830384038B23F440631B041B0C71
:101998000383038B9BB243EA04239BB20383F0BC0B
:1019A80070478D880F89CC8823F480710904090C4D
:1019B8000184828B038C22F0F30223F42063120447
:1019C8001B04120C1B0C42EA071243EA062392B2CC
:1019D8009BB243F480732A4382830384838B23F06E
:1019E8000C031B041B0C8383838B9BB223438383CD
:1019F8007DE700BF00230122828003804380C380EB
:101A0800038170472DE9F0014A888B880C88002AE9
:101A18000CBF02260026012B14BF01270227002C29
:101A280054D0058CB1F80880B1F806C025F010052F
:101A38002D042D0C0584048B018C24F4407424059A
:101A480021F0A001240D090444EA0834090CA4B2C9
:101A580041EA021244EA032392B29BB242F0100216
:101A680003830284018B21F440610904090C01837A
:101A7800038B9BB243EA0C239BB20383018C21F0B6
:101A880001010904090C0184028B038C22F0F30282
:101A9800120423F00A03120C1B0442EA08121B0C5E
:101AA80043F0010392B21E43174307830684038B56
:101AB80023F00C031B041B0C0383038B9BB243EA28
:101AC8000C0CA0F818C0BDE8F0017047048CB1F800
:101AD80008C0CD8824F001010904090C0184018B98
:101AE800048C21F0F3010904090C24F00A0441EAEA
:101AF8000C11240442F0010289B2240C14430B4354
:101B080003830484038B23F00C031B041B0C038343
:101B1800038B9BB22B430383038C23F010031B041A
:101B28001B0C0384028B038C22F44072120523F0F1
:101B3800A003120D1B0442EA0C321B0C43F01003E5
:101B480092B243EA061642EA072707830684038B04
:101B580023F440631B041B0C0383038B9BB243EAEF
:101B68000525ADB20583BDE8F0017047406B7047AD
:101B7800806B7047C06B7047006C7047038B23F015
:101B88000C031B041B0C0383038B9BB219430183B7
:101B9800704700BF038B23F440631B041B0C0383B3
:101BA800038B9BB243EA01218BB20383704700BFCA
:101BB800838B23F00C031B041B0C8383838B9BB246
:101BC80019438183704700BF838B23F440631B0450
:101BD8001B0C8383838B9BB243EA01218BB28383E3
:101BE800704700BFB1F802C00B888A89F0B48F88AB
:101BF800CE880D894C894CEA03033B4333432B437E
:101C0800234313439BB2A0F84430F0BC704700BF95
:101C18000023038043808380C380038143818381C1
:101C2800704700BFB0F8443021B9C3F30E03A0F8E1
:101C3800443070476FEA43436FEA53439BB2A0F8BE
:101C480044307047838829B923F004031B041B0C14
:101C5800838070479BB243F004038380704700BFC2
:101C6800838829B923F001031B041B0C8380704768
:101C78009BB243F001038380704700BF83899BB206
:101C88001AB923EA0101818170471943818170479C
:101C980081827047038A19420CBF002001207047D7
:101CA800C94389B201827047038A828911420CBFF5
:101CB8000020012019420CBF002000F001007047ED
:101CC800C94389B2018270470A43A0F84820704787
:101CD80083899BB21AB923EA0101818170471943AC
:101CE80081817047838829B923F008031B041B0CE2
:101CF800838070479BB243F008038380704700BF1E
:101D0800038923F007031B041B0C0381704700BFE2
:101D1800038923F070031B041B0C194301810389F9
:101D28009BB243F007030381704700BF602970B47A
:101D380027D0068C26F001063604360C0684058B5F
:101D4800048C25F0F3052D0424F00A042D0C24043A
:101D580045F00105240C45EA031344F001049BB245
:101D6800224303830284038923F070031B041B0CA2
:101D78000B43038103899BB243F00703038170BCC3
:101D88007047048C24F010042404240C0484058B6C
:101D9800048C25F4407524F0A0042D0524042D0D91
:101DA800240C45F4807544F0100445EA033344EAF2
:101DB80002129BB292B203830284D4E710B404895E
:101DC80042EA0323E4B223439BB219430181038906
:101DD8005DF8044B23F077031B041B0C43F07703D7
:101DE8000381704710B4048942EA0323E4B2234311
:101DF8009BB21943018103895DF8044B9BB243F4FC
:101E080080430381704700BF038923F070031B04DC
:101E18001B0C194301817047838823F070031B044E
:101E28001B0C838083889BB219438180704700BF55
:101E3800038923F007031B041B0C038103899BB24E
:101E480019430181704700BF038923F080031B04F5
:101E58001B0C038103899BB219430181704700BFA2
:101E680010B40489E4B221430A4342EA03239CB232
:101E780004815DF8044B704770B40589048B068CA7
:101E880024F4407426F0220624F003043604360CA9
:101E980025F00705240432432D04240C2D0C44F4AA
:101EA800807442EA0313294344F001049EB201817D
:101EB8000483068470BC7047838829B923F08003A3
:101EC8001B041B0C838070479BB243F08003838004
:101ED800704700BFA0F85010704700BF4FF46D4323
:101EE80040F0BF60CEF2000340F40030D860704785
:101EF800C37870B47BB902784FF46143510920313B
:101F080002F01F020120CEF2000300FA02F243F8A9
:101F1800212070BC70474FF46D43CEF20003467821
:101F2800DA6884780378D243C2F30222C2F104014A
:101F38000F25C9B206FA01F145FA02F2C9B22240E8
:101F48000A4303F1604303F561431201D2B283F8F7
:101F5800002302784FF4614302F01F010120520967
:101F6800CEF2000300FA01F143F8221070BC70476A
:101F780021F060414FF46D4321F07F01CEF2000360
:101F880008439860704700BF4FF46D43CEF20003DA
:101F98001A6919B922EA00001861704710431861DC
:101FA800704700BF4EF21003CEF2000304281A68EF
:101FB8000CBF42F0040222F004021A60704700BF0E
:101FC80030B542F2C044C0F60804054683B054F860
:101FD8002000012104EB4504FEF70AFF40F22C0320
:101FE800228AC2F20003009253F82500022201233C
:101FF800002469468DF804308DF807308DF80640C6
:102008008DF80520FEF7D2FC03B030BD42F2C04384
:10201800C0F6080340F22C0203EB4003C2F20002B0
:10202800198A52F820301983704700BF42F2C04322
:10203800C0F6080340F22C0203EB4003C2F2000290
:10204800198A52F820305983704700BF40F22C0398
:10205800C2F2000342F2C042C0F6080253F8203030
:1020680002EB40025969128A4A405A61704700BF20
:1020780030B50446012087B00D460146FEF7B8FE8C
:102088004FF480400121FEF7EBFE06AB40F22C0234
:102098000121C2F2000202EB840243F8101D002461
:1020A80010698DF80C4019468DF80F40FEF77EFC3C
:1020B800012D01D007B030BD21462046FEF7C4FFF0
:1020C800082304A88DF8153004958DF814408DF870
:1020D8001650FEF761FB0F23062201A88DF8075062
:1020E8008DF804208DF805308DF80630FFF700FFD5
:1020F80007B030BD08B540F22C03C2F2000303EB71
:10210800800001210069FEF7CDFC08BD28250808DC
:10211800000000206C040020700400209C84002033
:1021280008B5FEF709F940F29644FEF721F9FEF7E3
:10213800E7F8FEF7BDF840F2954040F2944140F2CE
:102148009743C2F20004C2F20000C2F20001C2F2D8
:10215800000300220125257002700A701A70FEE73C
:10216800002103E00B4B5B58435004310A480B4BEA
:1021780042189A42F6D30A4A02E0002342F8043B86
:10218800084B9A42F9D3FEF729F900F03FF8FFF718
:10219800C7FF704728250808000000206C040020AD
:1021A800700400209C840020FEE700000146002007
:1021B8000246034600F0A2B808B50021044600F024
:1021C800FFF842F2F443C0F608031868C36B03B182
:1021D8009847204680F09AF938B542F2285442F2DE
:1021E8002455C0F60805C0F60804641BA41018BFDF
:1021F80005EB840505D0013C55F8043D9847002CB3
:10220800F9D1BDE8384080F07BB900BF70B542F223
:102218001C5642F21C55C0F60805C0F60806761B87
:10222800B6101CBF043D002405D0013455F8043F06
:102238009847A642F9D142F2245642F21C55C0F6FC
:102248000805C0F60806761B80F054F9B6101CBFC6
:10225800043D002406D0013455F8043F9847A642AF
:10226800F9D170BD70BD00BFF0B4840743D0541ECF
:10227800002A3ED0CDB2034603E0621E002C38D0BF
:10228800144603F8015B9A07F7D1032C2AD9CDB27B
:1022980045EA05250F2C45EA054515D9A4F110078F
:1022A8003F0903F1100606EB07161A46156055603C
:1022B8009560D5601032B242F8D104F00F040137AE
:1022C800032C03EB07130DD91E462246043A032AB2
:1022D80046F8045BFAD8221F22F0030204321344A2
:1022E80004F003042CB1C9B21C4403F8011BA34237
:1022F800FBD1F0BC704714460346C6E7F0B542F27E
:10230800F444C0F6080485B02668D6F84841074664
:10231800002C44D065681F2D21DD40F20004C0F276
:1023280000041CB94FF0FF3005B0F0BD4FF4C87081
:10233800039102920193AFF300800399029A019BE3
:1023480004460028EED0D6F8485100202560606089
:102358000546C6F84841C4F88801C4F88C013FB95D
:10236800AB1C00200135656044F8231005B0F0BDB2
:1023780004EB85004FF0010CC0F88820D4F8886180
:102388000CFA05F21643022FC4F88861C0F8083128
:1023980002BFD4F88C311A43C4F88C21E0E706F563
:1023A800A674C6F84841B5E740F20003C0F200033E
:1023B8002BB142F2E110C0F60000FFF7F7BE7047FC
:1023C8002DE9F04F42F2F443C0F6080385B01B68CC
:1023D800029040F200020193C0F2000203F5A473D8
:1023E8000F46039300924FF00109019AD2F84881F1
:1023F800B8F1000F1AD0DDF80CA0D8F804305C1E34
:102408005FBF08F188059E1C05EB830508EB86066F
:102418000AD477B1EB6FBB420BD0013C631CA5F12A
:102428000405A6F10406F4D1009B7BBB05B0BDE80A
:10243800F08FD8F8042056F8043C013AA24216BF9F
:102448000022C8F8044046F8042C002BE5D0D8F840
:102458008811D8F804B009FA04F20A4210D0D8F862
:102468008C110A420ED1029855F8041C9847D8F8E6
:1024780004305B45B9D1DAF800304345CDD0B4E734
:102488009847F4E755F8040C9847F0E7D8F8043073
:102498006BB9D8F8003063B14046CAF80030AFF3E2
:1024A8000080DAF80080B8F1000FA6D1BEE7D8F8AE
:1024B8000030C2469846F6E7C372280000FFFFFFC7
:1024C800FFFFFFFFFFFFFFFFFFFFFFFFFFFFFFFF14
:1024D800FFFFFFFFFFFFFFFFFFFFFFFFFFFFFFFF04
:1024E800FFFFFFFFFFFFFFFFFFFFFFFFFFFFFFFFF4
:1024F800FFFFFFFFFFFFFFFFC32505FFFFFFFFFFF4
:10250800C3E203FFFFFFFFFFD9FFFFFFFFFFFFFF4E
:10251800D9FFFFFFFFFFFFFFD9FF21006911A08945
:10252800181621306911D089180E21D04911D08987
:10253800180621A04911A089013000CDC528AFE0B7
:1025480090E0923E0CEA0021C9FFFFFFFFFFFFFF6A
:10255800FFFFFFFFFFFFFFFFFFFFFFFFFFFFFFFF83
:10256800FFFFFFFFFFFFFFFFFFFFFFFFFFFFFFFF73
:10257800FFFFFFFFFFFFFFFFFFFFFFFFFFFFFFFF63
:10258800FFFFFFFFFFFFFFFFFFFFFFFFFFFFFFFF53
:10259800FFFFFFFFFFFFFFFFFFFFFFFFFFFFFFFF43
:1025A800FFFFFFFFFFFFFFFFFFFFFFFFFFFFFFFF33
:1025B800FFFFFFFFFFFFFFFF00C35001CEED666680
:1025C800CC0D000B03730083000C000D0008111FD5
:1025D8008889000EDCCC6EE6DDDDD999BBBB67636C
:1025E8006E0EECCCDDDC999FBBB9333E5A454C44AA
:1025F800410000000000000000000000000000038F
:1026080004020101026A3AEECD812831FFDFAFE012
:1026180047E048E049210080010018CD9929CDA85C
:1026280028CD8A293E01EA0021CD197DCDC0FFCDF4
:10263800CE40CD6B2B3E44E0413E4FE0453E01EAA3
:10264800AFDB3E01E0FF3E01EA0021CD0F463E1F11
:10265800EA0021CD00403E18E0B5FBC3BD033E01B2
:10266800E0FDFA00C5A7280EFA95DBFE0B2007F05F
:10267800E70FE68018062156C1F09786E042F096EB
:102688002155C18621BFC186E043FAFED6A720079F
:10269800FAFFD6FE00282AFA95DBFE09280FFE0667
:1026A800380BFE0B200DFA96DBFE073006CD4408EA
:1026B800CD4408F3CDA104FBCD4408CD4408C3BDE7
:1026C80003FAFDD6E67F5FF040E680B3E04021E7FD
:1026D800FF34FA95DBFE00200FFA96DBFE08380877
:1026E8003E01EA0021CDB76DFA7FC1A7CA52033C6B
:1026F800200B3E17EA0021CDA646C352033C28F220
:102708003E14EA0021FA80C13CEA80C1FEC02014D0
:10271800FA7FC1FE022003CD1B54AFEA7FC1EACA8B
:10272800C3C35203FE60384CF5E607200BFACAC350
:10273800FE0C283F3CEACAC3FACAC35FF0E7E603C7
:10274800835F1600FA7FC1FE032815216A54197E9B
:10275800EA97DBEA99DB217A54197EEA98DB1813A9
:10276800218A54197EEA97DBEA99DB219A54197E6B
:10277800EA98DBF1CB3FCB3FE0D7FA80C100E6E037
:102788005FFA7FC1FE0320047BEEE05F7BE0D82187
:102798007CC1AF222222F041E60320FA1600FA7E1D
:1027A800C13CEA7EC1E60120F5FA7CC1C601EA7C9B
:1027B800C1FA7DC1CE00EA7DC1FA7CC1FE58CA3E8D
:1027C800030E00FA7FC1FE0128010C217CC1F0D75D
:1027D80086E61F21D8FFB65F21AA5419FA80C1A145
:1027E8007E28022F3CF52196FF86E043F12197FFD2
:1027F80086E042C3DE02CD4408FA97DBE047FA9848
:10280800DBE048FA99DBE049186BFA9ADBE04AFA10
:1028180097DBE047FA98DBE048FA99DBE049CD44DA
:1028280008CDFE27F0902191FFB6210EC1B62045B4
:10283800FA0300A7282CFAFCD6A72006F0CBE60F4F
:10284800281AF0CCE6402814FAFCD6EE01EAFCD6A9
:102858002023FA7BC1EE10EA7BC11819FAFCD6A72F
:1028680020133E01CDB907CDF05CCD900A3E01EAB8
:102878000021CD035D3E1FEA0021CD807F3E0CEA9A
:102888000021AFE0FD76F0D1A728FBAFE0D1C3A6C9
:1028980001203040600030566800F3F5E5D5FA9520
:1028A800DBFE012013FA96DBFE052005FA00D0189E
:1028B80002F097E042C35204FE00204BFA05C15FC4
:1028C80016002100C1197E2196FF86E043FA96DBA7
:1028D800FE06381021DE03197EE0457B3CE603EA5C
:1028E80005C1182621D903197EE0457B3CFE052049
:1028F80001AFEA05C100FE04200BFA06C1E0422F31
:102908003CC660E0451803AFE043D1E1F1FBD900D4
:1029180000A56213730F6F016F1E70547151D6C2F8
:102928006E93735975C0742B723776B77600780B2F
:102938007A8A7BAF547056816E10536563CE66A158
:1029480067E568346A206BDD6BDD6B735A295CC8F8
:102958005D675F06610E58AD59FAFED6A7284EF599
:10296800CD8128F1CDB10418653DC76C2EA8286B20
:102978002B9F2B7E2CC42B7E2CA128882D22050171
:102988002D2205732DDB379828C22CF02C282D56C4
:102998002D1E2D262AA22A9D2A982AF72AF22ABF16
:1029A8002AF22A652AFA29172A232D392DCD8128BA
:1029B8002157040600FAFFD6CB274F097E5F237EF6
:1029C800573E08EA0021CDDE283E0CEA0021AFEA96
:1029D800FFD6EAFED6FAFDD6E040C90709F5C5D507
:1029E800E5F3F0FDA7C2B605FA9FC1E67F282FFEE2
:1029F80001282BFE053009CDDF21219FC134186E37
:102A0800FE0A2005CDA5251865FE0B2011FA72C116
:102A1800A728063DEA72C11805CDF9251850FAFE17
:102A2800D6A7204AF090E0E82191FFB6210EC1B662
:102A38002811CDC005F0E8FE083003CDCC1CCDC070
:102A4800FF182BF0BBA728133DE0BB5F160021231E
:102A580005197EEAF8D6CDEE1D18E0CDA91A1101A8
:102A6800D6CDD828AFEA00D6EA01D6CDC0FFFBE123
:102A7800D1C13E01E0D1F1D9F090A7CA8806FE077E
:102A8800CA6007FE03CA6200FE04CA6A00FE05CADD
:102A98007200FE06CA7A00FE08D28307FAA5DBA7F1
:102AA8002859F090FE02CAC9073E0DEA0021F092AB
:102AB8004F0600CB21CB10CB21CB10CB21CB10CB99
:102AC80021CB10CB21CB10CB21CB1021009009E5D5
:102AD800D1210050F094C6506709F0BBA72807F031
:102AE800923DFE023806014000CDC528F0923CE038
:102AF80092FE042005AFE090E092C9210021360F34
:102B0800F0924F0600CB21CB10CB21CB10CB21CBA1
:102B180010CB21CB10CB21CB10CB21CB1021009097
:102B280009E5D1F094C640672E0009014000CDC5E3
:102B380028F0923CE092FE082005AFE090E092C9B0
:102B4800F091A72867FA97C15F16002193C1197EF3
:102B5800F5E63F571E00F1CB371F1FE6034F06006F
:102B680021842D097EEA0021F0934F0600CB21CB6A
:102B780010CB21CB10CB21CB10CB21CB10CB21CB31
:102B880010CB21CB102100400919E5FA97C1572134
:102B980000840919E5D1E1014000CDC528F0933C36
:102BA800E093FE042005AFE091E093C9FA0DC15F00
:102BB80016002193C1197EF5E63F571E00F1CB3769
:102BC8001F1FE6034F060021842D097EEA0021FA23
:102BD8000FC14F0600CB21CB10CB21CB10CB21CB83
:102BE80010CB21CB10CB21CB10CB21CB1021004017
:102BF8000919E5FA0DC1572100840919E5D1E10148
:102C08004000CDC528FA0FC13CEA0FC1FE042007D9
:102C1800AFEA0EC1EA0FC1C93E01EA0021CDC57B6A
:102C2800C38B006069A069C06900424042604200ED
:102C38008240826082008240826082D608CB275F11
:102C48001600216B0719E5217707195E2356E12A3B
:102C5800666F3E0CEA0021014000CDC528F090FEC9
:102C68000A280AFE0D2806F0903CE090C9AFE090D3
:102C7800C9EA0021EAAFDBC9F5FAAFDBEA0021F1C6
:102C8800C93E12EA0021F092FE08383F200D3E02AC
:102C9800EA0021CDB86B2192FF34C9FE09200D3E10
:102CA80002EA0021CD926B2192FF34C9FE0A200D61
:102CB8003E02EA0021CD6C6B2192FF34C93E02EA44
:102CC8000021CD466BAFE090E092C94F0600CB21C2
:102CD800CB10CB21CB10CB21CB10CB21CB10CB21D0
:102CE800CB10CB21CB1021008D09E5D121007E0925
:102CF800014000CDC528F0923CE092C93E1FEA0091
:102D080021CD0640F0F3A72025FA0BC1A7280FFE16
:102D1800022008F0E7E60120151803CD66083E1BDF
:102D2800EA0021CD06403E1EEA0021CD0640C9FF3B
:102D3800FFFFFFFF3E02EA0021CDEF19C3C00721C4
:102D480050C4180821F0C2180321E0C2097EA7C99F
:102D58003EAFCD013CF0982100C21977F0992110BF
:102D6800C21977C93E1DE0F2C921E145180321E1E6
:102D7800463E1CEA0021097E2100213601C93E0C8D
:102D8800EA0021014000CDC5283E01EA0021C92101
:102D9800F4FF360C2102C53604C92110C4097EA7E8
:102DA800280135C9F5FA8FC1A72014EACFC13CEA3A
:102DB8008FC1EAA6C5FA9DC1A720043E02E0F2F140
:102DC800C93E30E0A818173E30E0A81815FA01D41B
:102DD800FE0120EDFAA5DBA728E73E01E0BC3E0690
:102DE800E0F43E03EA1CC1AFEA6BC1EA6CC1EA78C1
:102DF800D4A7C9AFEA21C1EA22C1AFEA4BC1EA4A66
:102E0800C1C9F09FE098F0A0E099C9F51E0F16001F
:102E18002110C5197EA728181D7BFEFF20F221C0AE
:102E2800C5357EFEFF20053E0FEAC0C5FAC0C55F66
:102E3800F12110C51977F0D82140C51977F0D721AD
:102E480030C519772120C519360FC9FA40C1D608EF
:102E5800E0D7FA42C1D608E0D83E07E0F23E05C303
:102E680053093E08EA0021FAA5DBA72827F0F65FF8
:102E78001600214040F0F7FE1A3005FE06380124FE
:102E880019F0945F7EBB280AE094FEFF28043E01F7
:102E9800E090182DF0F6FE0720013C57CB3FCB3FC2
:102EA800E6F85F7ACB3FE607B35F160021004019CA
:102EB800F0945F7EBB280AFE0F2806E0943E01E0EE
:102EC80090AFE0D7F0F65F1600214042FAA5DB5735
:102ED800F0F7FE1A3005FE06380114195E7AA720AD
:102EE8001A7BFE232008FAC9D8E62028011C7BFE9D
:102EF800212008FAFDD8E62028011C1600CB23CB98
:102F080012CB23CB12214045FAA5DBA72803218841
:102F1800471916000193C15E0ABB28217BFEFF28D2
:102F28001C02F0D7A7280B7AEA0DC13E01EA0EC1B0
:102F3800180B3CE0D77AEA97C13E01E091230314CD
:102F48007AFE0420D2C3C007FA95DBFE073837FEA5
:102F58000B2007FA96DBFE07202CFA6BC1FE042033
:102F680025FA9FC12167C1B62124C1B62018F0CB2C
:102F7800FEF02012AFEA6BC1EA6CC1EA9FC1EA9683
:102F8800DB3E06EA95DBFA95DBC7050B080B340B2D
:102F9800370B3A0B3D0B020BFC0AF00AF60AEA0A59
:102FA800400BCDBC67C3320CCD4C65C3320CCDBBD6
:102FB8005FC3320CCD6E54C3320CC30040C33E6EA7
:102FC8003E17CDB907CD2A48C3320C3E03EA00218B
:102FD8003E17F5CD4338F1C3B9073E03EA00213E59
:102FE8000118EF3E03EA00213E0218E6C31147C369
:102FF8004B49C3E64BC3344E3E14EA0021CD265359
:10300800CD3C523E01CDB907C31E433E02CDB907A0
:10301800FA9FC1A7203C21B4FF7EA7281BFA9ADBA0
:10302800FE802014FA4FC1A7200E35200B3E01EA7E
:103038000021CDA65FCDC007FA9FC1A72014FABC16
:10304800C1A7280E21A1FF36023DEABCC12003C357
:10305800090921C7DB7EA7280135F098E09FF09980
:10306800E0A021A2FF96E0B3CDD55DAFEA40C1EA6A
:103078003CC1EA3BC1211DC1CBBE211EC1CBBECD87
:1030880031573E02CDB907CD5526CD400CFA5CC16B
:10309800EACFC3AFEA4EC1EA4DC1EAA4C1EA5CC1B6
:1030A800EAAEC1FA44C1A728043DEA44C13E19CD9D
:1030B800B907CD9B76CD43383E02CDB907CD9A529C
:1030C8002101D6F0E7E603B62018FA1CC1FE02304B
:1030D800110E0106001E00F0E7E60428020D1DCDC2
:1030E800ED613E14CDB907CDB0593E0FCDB907CD2E
:1030F8003321C9080E9928ECF09921A2FF96EA45D8
:10310800C1FAA9C1A7283DFA9FC1A7202521AAC1B4
:10311800357EFE022010FAA9C15F1600213A0C196B
:103128007ECD97213E01A72009AFEAA9C1EAA8C12F
:103138001812FAA9C1EAA8C13DC718502350235054
:1031480023501850F0CBE6B0204CF0CBE640284690
:10315800FA5FD43CEA5FD4FE04383FF0A1FE0228AF
:1031680035F09DFEFF282FFA1CC1FE02302821678A
:10317800C1FA9FC1B6201FAFEA6BC1EA6CC1EA96DB
:10318800DB3E07EA95DB3E02EA0021CD1B78CDCC79
:103198001CCD4338F1C9AFEA5FD4F0B7A728033D87
:1031A800E0B7F0B6A728033DE0B6FA9FC1A7C29BD7
:1031B80014FA24C1A7C2490DFA1CC1FE07282BFA2C
:1031C8005ADB210AC5B6214FC1B6201B3E07EA1CAF
:1031D800C13EBFE0B73E10EACCC3AFEAC7DBE09C14
:1031E800CDD2273E08E0F3FA1CC1C75F0D924D0E01
:1031F80049B3153217004D304F570DA2504F0DFFF0
:103208004ECD9B14C3CC1C3E19CDB907C3A95C3E57
:1032180001CDB907C384413E02CDB907CD6E42C97D
:10322800FA0AC52167C1B621A4C1B6C0FA4AC1A726
:103238002833FA01DBFE01281AFA00DBFE01281305
:10324800FA01DBFE042807FA00DBFE042015CD3462
:103258000F1810FA37C13DFE0438083E05EA37C199
:10326800EA6AC11807AFEA5BC1EA5AC1FA17C1A7EF
:10327800C2D00EFA5CC1A7C2D00EFA37C1A7280B7C
:10328800FE032007FA38C1FE033006F0A1A7C2D01A
:103298000EFA00DBFE08200FF0CBE6202805CD0C47
:1032A800141804AFEA4BC1FA01DBFE08200FF0CB7B
:1032B800E6102805CD0C141804AFEA4BC1FA01DB5F
:1032C800FE04201AFA44DBEA5AC1F0CBE610280EB5
:1032D800FAADC1FE012807FE022803CD340FFA001B
:1032E800DBFE04200FFA44DBEA5AC1F0CBE62028C3
:1032F80003CD340FF0CCE620280DFAADC1FE02282C
:1033080006FA00DBCD7F0EF0CCE6102811FAADC12D
:10331800FE01280AFE022806FA01DBCD7F0EF0CB5B
:10332800E6202806FA00DBCD050FF0CBE6102806CC
:10333800FA01DBCD050FC94FFE01CA2F12FE04CAE0
:10334800D10EFE02CA760FFE03CA0710FE05CA791F
:1033580010FE0DCA0E10FE06CAFC0EFE0ACAD111D6
:10336800FE09CAE641FE0CCA5111FE0BCADB0EFE6D
:103378000720152137C1FA9BC1B6200CFA4DC1FEB2
:103388000230053E8EEA9BC1C9FA44C1A7C03E1669
:10339800E0F4C9FAC7C12146C1B6C0CD354C3006E4
:1033A8003E07E0F218043E0EE0F43E01EAC7C1AF62
:1033B800EAC8C1C9FAA4C1A7C0CD3B42C9FE01C031
:1033C8002137C1FAADC1E603B6C0FA60C1A7C0AFE4
:1033D800EAACC13E05EA37C1EAB0C5C91000080821
:1033E800030308080808000D080803043E01EA5B07
:1033F800C1FA44DBEA5AC1F09E5F160021240F1976
:10340800F09886EA40C121280F197EEA41C1212C93
:103418000F19FA45C186EA42C121300F197EEA43E5
:10342800C1AFEAB0C5C908F800000000FD04FA4EB3
:10343800C1FE01D0FA4DDBA7CAAC08D60127EA4D78
:10344800DB3E02CDEB10D821F0C2193610FAC0C10C
:10345800A7CAAC0FAFEAC0C1FAC2C14F422190C29D
:10346800093601C93E06EAC0C17BEAC1C13E0CEA81
:103478009BC121E0C21936A021B0C319722180C4B2
:10348800193603F0F9A720063E09E0F218052110C5
:10349800C319722140C219722150C219722120C366
:1034A8001972F09E4F42216E0F09F098862100C2D2
:1034B800197721720F09F099862110C21977C9C9A5
:1034C80018E800E81800FA4DC1A7C03E01CDEB107E
:1034D800D821E0C21936280E040600F0CBCB3F30C5
:1034E80001040D20F878FE023826F0CBE6034F06DB
:1034F80000210710097E2140C21977F0CBCB3FCBC2
:103508003FE6034F0600210A10097E2150C21977B1
:10351800C9000000000000000020E000000000E0FA
:103528002030D0000040C000000000D0300000C0B3
:1035380040FA4CC1A7C0FA4DC1FE0230653E10EA00
:103548004CC1FA45DBA7CAAC08D60127EA45DBCD52
:1035580083123E00CDEB10D87BEAC2C1FAC0C1A7E6
:103568002813FAC1C14F422180C209702190C219A3
:103578003601AF18063E0AE0F43E06EAC0C1F09EE6
:103588004F0600FA7CD4FE01200479C6044F216955
:1035980010097E2140C21977217110097E2150C27D
:1035A8001977C9CD013CD83E0CEA9BC1C5F09E4FA6
:1035B800060021591009F098862100C21977215D6B
:1035C8001009F099862110C21977F0A23C2110C386
:1035D8001977216110097E2140C2197721651009E8
:1035E8007E2150C21977F09E21B0C319772180C37C
:1035F800197721D0C5197721F0C4193601C1373F91
:10360800C90EF200000000F40CFA9BC1A7C0FA4BE7
:10361800DBA7280FF0A2A7C03E02EAA9C13E2AEA0A
:10362800AAC1C9FA4CDBA7CAAC083E08CD013CD8F0
:103638003E05E0F23E0EEA9BC1FA4CDBD60127EAD2
:103648004CDB20122100DB7EFE0C20023600237E9C
:10365800FE0C20023600C5F09E4F21491109F09852
:10366800862100C21977214D1109F099862110C2CF
:103678001977F0A22110C3197721E0C2193617C1B2
:10368800C91CE400000000E41CFA30C1FE07C8FAB7
:1036980046C1A7C03E01EA46C1AFEA52C1EA53C1DA
:1036A8003E0DE0F2F0F9A7281ECD0F12F0CBE6038D
:1036B8003EEA28023EE8E09BAFE0A3CDD6203E02DA
:1036C800CDB907CDB16FC93E20E0A3FA4AC1A7C85A
:1036D800F09E5F5021C911197EE09A21CD11197E03
:1036E800E09BC902141518FA6DC12121C1B6C03E6C
:1036F80003EA38C13E01EA37C1EAB0C5AFEA60C1A2
:10370800EAACC1CDED27E6035F1600212B12197E26
:10371800E0F4CD8312FA46C1A72006CD3B09CD952A
:1037280014FA4DC1A7C0FAA9C5A7C8FA4EDBFE0214
:10373800C03EDFCDEB10AFEA9BC1C9F0CBE60F5F0F
:10374800160021B348197EFE0F2802E09EC916FA1A
:103758000808161608FAFAFA08160808FA160816D3
:10376800161608FAFAFACDB6123E02C3B907FAC419
:10377800C1A7C0FA4AC1A72006FA6AC1FE05C8FA5D
:1037880021C1A72807FA36C1C6041802F09E5F16A1
:103798000021961219F09886D608E6F0E0CECB37CD
:1037A8004F21A21219F09986D610E6F0E0CDB15F4C
:1037B8002111D7197CFED7C0D57EE0AF5FFAA5DB13
:1037C80057CDDB29D1FED0DA1713FED4DAC913FEA0
:1037D80090D2C913FE01CAC9130E00FAA5DBA7F0DF
:1037E800AF2805FEDD280FC90CFED32809FE5C288A
:1037F80005FE0AC00EFF79E0F1CDA620FA4AC1A75E
:103808002010FA6AC1FE052009AFEA22C13E0CEA7F
:103818006DC13E05CDEB103822AFEA9BC12100C235
:1038280019F0CEC608772110C219F0CDC61077213D
:10383800B0C319F0F177D5C1CD0338CDED27E60730
:10384800C0F0AFFED3C8CDED271F3E2E30023E2D6F
:10385800CD013CD82100C219F0CEC608772110C28C
:1038680019F0CDC610772150C419368021F0C2193D
:1038780036182120C3193610C912EEFC040404EED0
:10388800124FFA6DC1A7C8F09E5F160021C1131927
:10389800F09886E0D721C51319F09986E0D83E0440
:1038A800EA02C5CDA1093E10EAC4C179E6F0FE904E
:1038B80028053E07E0F2C93E17E0F4C920E0000001
:1038C8000000E020F0F9A72809F09CA7C0F09EE6C8
:1038D80002C0FA4AC1A7C0F0A22146C1B6C0FA2068
:1038E800C1C602EA20C1CD5D14FA4BC13CEA4BC106
:1038F800FE20C0EA4AC1AFEA21C1EA22C1F09E5FB8
:103908001600210414197EE09A210814197EE09B00
:10391800AFEAACC1C9F0E7E60721A2FFB621A1FFD3
:10392800B62146C1B6C0F098E0D7FA81C1FE052895
:103938000F3E07E0F4F099C606E0D83E0BC35309E2
:10394800F099E0D83E0EE0F23E0CC35309AFE09A7E
:10395800E09BC9CDFA77FA1CC1FE01C8FA6AC1A773
:1039680028380110C0FA45C1213BC186E0D7F0983C
:10397800E0D821DAFF3600FA22C1FE283807F0E73E
:103988001717E61077FA39C167FA3AC16FFA36C1E4
:10399800E0D9F099FE88D0C34015FA9BC1F5CB7FDA
:1039A800CA1B153E02CDB907CD4B51FA9BC1E67F24
:1039B800FE0C201F219FC1FA24C1B62016CD831208
:1039C8003E04CDEB10380C3E0DE0F43E02CDB907B5
:1039D800CDC651F1EA9BC1C908060C0AFF040A0CBE
:1039E80006080A0CFF040C0A202060600000404012
:1039F8000000000040402020E5F0D7840203F0D802
:103A0800850203212015F0D9CB275F1600197E0205
:103A1800FEFF20050B3EF0020303213015197E211D
:103A2800DAFFB60203E1F0D7840203F0D885C608AE
:103A38000203212115197E0203213115197E21DA8D
:103A4800FFB602C910F008080C0CF010F09E5F16C3
:103A580000218C1519F09886EA79C121901519F082
:103A68009986EA7AC13E02EA78C1C9CD0F78FAC9C7
:103A7800C3A72807AFEAC9C3C30909CD7617AFEAB8
:103A880057C13CEAA8C1FA6BC1FE04C22D17AFE0CA
:103A980096E097E0B41E102180C2221D20FCFA098E
:103AA800C5A7281AF53E04CDB907F1CDFA79216EDC
:103AB800DB342146DB343E01EA7ED4AFE09DF0F9E9
:103AC800E0E43E0BEA95DBAFEA96DBEACBC3E0F92C
:103AD8002101D4FAA5DBE0E6A7202A2116D40E009E
:103AE800F098CB37E60F5FF099D608E6F0B3BE281A
:103AF80007230C79FE0420E879CB27CB27815F16B2
:103B0800002101D419E52AEAA5DBFE02200AE0F922
:103B18003DEAA5DB3E01E09C2AE0F7FAA5DBA72AEF
:103B2800E0F6200BF0E6A72804AFEA7CD4185D4F36
:103B38003E14CDB907E5F0F7CB375F1600CB23CBA2
:103B480012CB23CB1221004219F0F7FE06200AFA05
:103B58006BDBE604280321C0441E002AB928061C92
:103B68007BFE4020F67BEAAEDBF0E6A7201DAFEA3D
:103B78007CD4F0F7FE0A30133E02CDB907CD9B6A1C
:103B88003E30E0B4AFEAFBD6EAF8D6E12AEA9DDB9C
:103B98007EEA9EDBE1F0F9A7204CF0E4A72046FA84
:103BA800A5DBA72829F0F7FE0A30235FCB27CB2710
:103BB800835F160021E553193E14EA0021CD16173C
:103BC800D5F0F75F1600211254197ED112C93E00B4
:103BD800E0D7115FDB2A1213F0D73CE0D7FE0520AF
:103BE800F4FAAEDB12C9AFE09EC9CD0F78FA74D4EF
:103BF800A72815AFEA74D43E30EA80C13E03EA7FB5
:103C0800C13E04EA6BC1180ACDC317FA6BC1FE04A2
:103C1800201BFA63D4FE0128023E00EA1CC1FA7E8A
:103C2800D4A72809AFEA7ED43E36CD9721C9216CA6
:103C3800C134FA6CC1E6032035216BC17EFE04282D
:103C48002D34AFE0D7F0D7FE0328232197DB5F168A
:103C580000197E4F060079E60328010DCB09CB0930
:103C68000478FE0420F0797721D7FF3418D7C900EB
:103C78000102030003010000010203216CC134FAB0
:103C88006CC1E6032044216BC17E34FE0428DFAFFB
:103C9800E0D7F0D7FE0328322197DB5F1600197EA4
:103CA800E54F0600F0D7CB27CB27B05F21B7171910
:103CB80079E603BE28010CCB09CB090478FE042061
:103CC800E379E17721D7FF3418C8C9000202001050
:103CD80002120004060604080A0C0E180A1C0E0A32
:103CE800080E0C0A180E1C20222426282A2A2830FE
:103CF80032202234362426383A282A3A382A2840CC
:103D08004042424446484A4C4E50524E4C525080D3
:103D18000282008486888A8C8E90929496989A9CC7
:103D28009E9AA2A408A60CA8AAACAEB0B2B4B6B02B
:103D3800B2B4B604C006C25A585E5C585A5C5E44B7
:103D4800466E6E404056567A787E7C787A7C7E74D1
:103D580076767470727270CAC8D6D4C8CAD4D6CCF3
:103D6800CED8DAC4C4C6C6DCDCDEDEEAECEEF0F29D
:103D7800F4F6F6F8FAE0E2E4E6E8E81012141618A9
:103D88001C121016141C1866686A6C686668666CE3
:103D98006A666860606262646462626464606054F7
:103DA800543C3EFEFE181A1C1E2C2EB8BA2E2CBAF5
:103DB800B8BCBED0D2A0FCFCA000002020000000AF
:103DC800200000202000000000000000002020202B
:103DD80020202020200000000000002020000000FB
:103DE800000000000000000000202020200020002B
:103DF800200000000000000000202020200000001B
:103E0800200000000000000000000000000000206A
:103E1800000020002000000000000000000000005A
:103E280000000020002020202000000000000000EA
:103E3800200020002020202020000000000000207A
:103E4800200000202020202020000000000000008A
:103E580000002000200020002000000000000000DA
:103E680020000000000000002000000000000020EA
:103E7800202020202000000000606020202020401A
:103E8800400020002000204060406040600020008A
:103E9800000020000000000000000020202020007A
:103EA80000000000002020FA20C1CB2FCB2FCB2F01
:103EB800E60157F09ECB27B24F060021F648FA1CC0
:103EC800C1FE01200AF09CA7280321FE48184FF0E4
:103ED800F9A7280BF09CFE022005210649183FFA95
:103EE8005CC1FE012835F0B2A72006FA44C1A7201C
:103EF80025FA5AC1A7200521BE48182221C648FE26
:103F080002200321D648FA5BC1A728087DC6086F9E
:103F18007CCE0067180821E648180321EE48097E80
:103F2800E09DC9FA01D6A7C03E10EA00212100652C
:103F3800110095F0E7E60F2806FE08C02E405DF058
:103F4800E7E6304F0600CB21CB10CB21CB10CB219D
:103F5800CB1009014000C3C5282060A0E0E0E0A024
:103F680060FA95DBFE0928BBFE00202BFA01D6A7D4
:103F7800C2DE1AF0E7E60FFE04381B3E10EA002105
:103F8800FA06D06FFA07D067FA08D05FFA09D05757
:103F9800012000CDC528C9FA95DBFE012006F0A551
:103FA800A72030C9FE0BDA141DFA9ADBFE80C21472
:103FB8001DFA4FC1A7C2CC1C2124C1FA01D6B6C232
:103FC800CC1CFAF8D6A72806CDEE1DC3CC1CF0A54C
:103FD800A7284BFE01CABD3FFE02CAD33FFE03CA53
:103FE800CF1DFE04CAD61DFE08CA8C1DFE09CABE16
:103FF8001DFE0ACA541DFE0BCAAD1DFE0CCA5C1D6F
:10400800FE0DCA2D1DFE0E280DFE0FCA1C1DFE102A
:10401800CA151DC3CC1C3E17EA0021C36040F0A698
:104028003CE0A6F0A4C75A1C901BAA1BAE1BCD1BD4
:10403800F11BF51B101C211C301C3F1CB61BB21BAE
:104048004A1C561C4E1C521CF0A6E607C25A1C3EBF
:1040580001EA0021CD625F3E0CEA0021C3CC1C6F4F
:10406800183B266B180A266C180626731802266A4F
:10407800F0A6E60FC25A1CCD431CC3A71B00408004
:10408800C0C0C08040F0A6E607C25A1CF0A61F1F99
:104098001FE6075F160021C51B196E266D11C09615
:1040A800014000CDC528C3CC1C266E18C3F0A6E677
:1040B80007C25A1CF0A61F1F1FE6075F160021C57E
:1040C8001B196E266FC3E51BF0A63CE603C2CD1B89
:1040D80021C0DC11C090C3E81B2670F0A6E607C219
:1040E8005A1CCD431CC3A71B2671F0A6E603C25A6F
:1040F8001CCD431CC3A71B267218EFF0A7C640E0CF
:10410800A7C9267518E4267418D1267718CD2676FF
:1041180018C9F09DFEFFCACC1C211318CB274F06E7
:1041280000095EE521011909FA1DC1E69FB6EA1DDD
:10413800C123FA1EC1E69FB6EA1EC11600CB23CBE7
:1041480012CB23CB12CB23CB12CB23CB122100587B
:1041580019E5C121008016200A03221520FAE1235F
:104168005E1600CB23CB12CB23CB12CB23CB12CBA7
:1041780023CB1221005819E5C121208016200A03FB
:10418800221520FAF09D3C2843FAC7DB1717E610E2
:10419800EA35C12108C0FA3BC14FFA45C181FE8802
:1041A800302AF522FA3CC14FF09881223E0022FACB
:1041B80035C157FA1DC1B222F122F09881C60822F2
:1041C8003E0222FA35C157FA1EC1B222C921004F58
:1041D8003E0E18053E12218060EA0021110084017C
:1041E8004000C34D1EFA0EDBFE02DA501ED60257FF
:1041F8001E00CB2ACB1BCB2ACB1B2100441911A0B4
:10420800890140003E0CEA0021C34D1E21C06811FF
:10421800E08818683E11EA0021FA00D0CB37E6F0B2
:104228005F1600CB23CB12CB23CB1221008D19E5CF
:1042380021005019D1014000CDC528AFE0A53E0CA2
:10424800EA0021C93E13EA0021FA00D0CB37E6F094
:104258005F1600CB23CB12CB23CB1221008D19E59F
:1042680021004D18CE21E04811E0883E0CEA0021DB
:10427800012000C34D1E21E06811A08C3E0CEA000D
:1042880021012000C34D1E21007F3E121805214048
:104298004C3E0DEA0021114091C34A1E4068406817
:1042A800006880680068210021360C21A1FF3601D2
:1042B80021FBD65E16003CFE03200AF5FAFBD6EE7B
:1042C80002EAFBD6F1EAF8D6FE04200521E41D181F
:1042D80007FE08200921E81D191140901818FE064C
:1042E800200521E41D180BFE0A2014AFEAF8D62198
:1042F800EA1D191180900140002A666FC3C528C3C2
:10430800CC1C014000CDC528AFE0A53E0CEA002139
:10431800C3CC1C0C0308080A0A051036383A3C02BC
:10432800010804FC04000000000400CD7B1E3E02CE
:10433800C3B907214AC1FA5CC1B621A2FFB6211C44
:10434800C1B6C2A520F09E5F1600215B1E19F09829
:1043580086D608E6F0E0CECB374F215F1E19F099DC
:1043680086D610E6F0E0CDB15FE0D82111D7197CF0
:10437800FED7C27C207EE0D75FFAA5DB57CDDB29CC
:10438800E0DCF0D7FE9A2840F0DCFE00CA7C20FE74
:1043980001281DFE50CA7C20FE51CA7C20FE11DA7D
:1043A8007C20FED4D27C20FED03005FE7CD27C203E
:1043B800F0D75FFE6F2809FE5E2805FED4C2A11F54
:1043C800FAA5DBA77BC2A11F5FF09EFE02C2FD1FFC
:1043D8003E02EAADC1F0CCE630CAFD1F7BFE5E3E70
:1043E8008E286B7BFE6F282BFED42827FA73DBA759
:1043F80028083E78CD8E21C3FD1FFA4EDBA7F0F6C4
:1044080020061EFFFEA328081EFCFEFA28021EFD39
:104418007B1841F0F65F16003E14EA002121FF5593
:1044280019FA49DB5F7EFEA92006CB4328023EAF7E
:10443800FEAF2016CB432012F0CECB37E60F5FF04D
:10444800CDE6F0B3EA73D4C3FD1FFE832806CD85FD
:1044580021C3FD1FCD9721185CFEA02058FA8EC1FC
:10446800E61FFE0D284FF09EFE022049EAADC1F07E
:10447800CCE6302840F0F9A72006F09EFE02203551
:104488003E14EA0021F0F65FFAA5DB57F0F7FE1AB2
:104498003005FE06380114210045197EFE20200B48
:1044A800FA4EDBFE023E2038023E1CE0DF3E02EA06
:1044B8000021CDBA41FA00DBFE032007F0CBE6204D
:1044C8002010C9FA01DBFE03C2A520F0CBE610CA12
:1044D800A5203E02EA0021CD5E483E01E0A1F09E03
:1044E8005F160021631E197EE09D21671E19F0CB1F
:1044F800A62841216B1E197EEA3CC1216F1E197E38
:10450800EA3BC1219DFF341E08FA7CD4FE0120023B
:104518001E03215FC1347EBB3819AFE0E5F0D7FE3A
:104528008E2816FE202812FAA5DBA72006F0D7FE53
:104538005C2814C9AFEA5FC1C9CD93203E14EA00D4
:1045480021CDAA55C3C0073E01E0E5F0D85FF0D7FA
:10455800E0AFCDA620F09EEA5DC1CDB120C93E14E2
:10456800EA0021CDDE59C3C0073E05CDEB10381D4A
:104578003E02E0F32180C219360721B0C319F0E5E5
:1045880077D5C11E013E03CDB907CDEF57C9FA4F04
:10459800C1A7C00E01CDE4200E00E0D70600219A85
:1045A800FF097EF5CB37E6F0211AC1098677CB12D1
:1045B8002198FF09F11E00CB7F28021EF0CB37E6B9
:1045C8000FB3CB1A8E77C9F0A3F5CB37E6F02149A4
:1045D800C18677CB1221A2FFF11E00CB7F28021ED5
:1045E800F0CB37E60FB3CB1A8E77C9FA9FC1A7C8AD
:1045F8005FFA95DBFE013E7E20023E7FE0E8FA642A
:10460800C1A7FA70C12004FE203804E60FF610EAAC
:1046180071C17BE67F3DC77D21C221C221C22153E2
:104628002220235923B5232125A025F42595221FCF
:1046380026CE22C3213E14EA0021C32459CD972156
:104648003E01EA12C1C9CD97213E02EA12C1C9F55D
:10465800AFEA77C1F1EA73C1AFEA6FC1EA70C1EAA4
:1046680064C1EA08C1EA12C13E0FEAABC5F099FE7F
:10467800481FE680F601EA9FC1C9C9AFEA9FC13E5B
:1046880018EA34C1C9002448002448989898999990
:10469800992161A14181C1FA9FC1CB7F2804E67F9E
:1046A800C6035F160021CB21197E4F06002100D5D5
:1046B80009E5C121D72119FA2FC1866FE0D721D189
:1046C8002119FA2EC18667F0D76FAF5F577E0203B4
:1046D8007DC601E61F20067DE6E06F18012C1C7BD5
:1046E800FE1220E91E00F0D7C620E0D73001246F63
:1046F800147AFE0220D7C961418121A18161A141BB
:10470800C198989898989999999999FA9FC14FFA48
:104718006FC1FE052832CB792802C6054F06001E58
:10472800011600FA2EC121492209862100D6192234
:10473800E5FA2FC1213F220986E1223E5122F0E805
:10474800223600216FC134C9219FC134C9FAABC1D7
:10475800A72014F0CCE630280EAFEA6FC1FA9FC14B
:10476800E6F0F60EEA9FC1C9A121814161C141A1CC
:1047780061819898989898999999999948003612CA
:10478800244800361224FA9FC14FFA6FC1FE05284B
:10479800B7CB792802C6054F06001E011600FA2E6F
:1047A800C121BA2209862100D61922E5FA2FC12192
:1047B800B0220986E1223E1122E521C422097E4F5A
:1047C80006002100D509E5C1E11E120A03221D20B9
:1047D800FA3600216FC134C93E1CEA0021FA72C1C1
:1047E800A728053DEA72C1C9FA70C1E61F5F160025
:1047F8000E010600212145197E2100D60922E52156
:104808000145197EE1223E4F223EFF223600C39029
:10481800223E1CEA0021FA9FC14FFA71C1CB7928C8
:1048280002C6204F06001E011600FA2EC12161455E
:1048380009862100D61922EA75C1E521A145097E1C
:10484800E6E0C6205FFA2FC18657BB38047AD62027
:10485800577AEA76C1E122AF22E5FA70C1E61F4F26
:10486800214145097EE122CD9022C3B5233E1CEAB1
:104878000021FA70C1E61F4F06001E05160021210F
:1048880045097E2100D61922E5210145097EE1224C
:104898003E0F22E5FA12C157FA73C15FCB23CB1240
:1048A800210140192A5F56D5FA73C15FFA12C15720
:1048B80021E146197EE61FEA0021E1FA70C15FFA9C
:1048C80064C157192A5F7EEAC3C3CDC0077BE0D70E
:1048D800FEFE2014E1AFEA01D6FA9FC1E6F0F60D1C
:1048E800EA9FC13E15E0F2C9FEFF2015E1AFEA01DB
:1048F800D6FA9FC1E6F0F60CEA9FC1C955494A4667
:1049080047FE20281FF5FAABC5571E01FE0F2808E1
:104918001E07FE1928021E03FA70C1C604A320034D
:104928007AE0F3F11600FE232022FA08C15F3CFE6C
:10493800052001AFEA08C1214FDBFA6EDBA7280387
:10494800214424197E3DFEFF20023E20E0D85F3E30
:104958001CEA002121E145195E1600CB23CB12CBBE
:1049680023CB12CB23CB12CB23CB12CDC0072100F4
:104978005019E5C1E11E100A22031D20FA3600E590
:104988003E1CEA0021F0D85F1600AFE1A728185FA7
:10499800FA75C122FA76C1D620223E00223EC9CB42
:1049A8001B38013D223600FA70C1C601EA70C1FA0F
:1049B80064C1CE00EA64C1AFEACCC1FA71C1FE1F7E
:1049C8002810FA9FC1E6F0F606EA9FC13E00EA7297
:1049D800C1C9C3902222429899FA70C1E61F2045A6
:1049E800FAC3C3FEFFCA3924FEFECA2124FACCC189
:1049F800A720073CEACCC1CD2B24CD4D26F0CCCB4B
:104A0800672022CB6F28513E1CEA0021FA95DBFE75
:104A180007CA1726FA73C15FFA12C15721E146196E
:104A2800CB7ECA17261E00FA9FC1E68028011C16F5
:104A380000211F2519FA2EC186EA01D6211D251944
:104A4800FA2FC186EA02D63E4FEA03D6F0E8EA0416
:104A5800D6AFEA05D6CD9022C9628298991E00FA8F
:104A68009FC1E68028011C160021A32519FA2EC132
:104A7800864721A12519FA2FC1864F1E1079D62005
:104A88006F600A77C579C6204F7DC6206F0A777D8B
:104A9800C6206FF0E877C10379E61F200479D62095
:104AA8004F1D20D93E08EA72C1C39022C9426298BC
:104AB800991E00FA9FC1E68028011C160021F725DF
:104AC80019FA2EC1864721F525CDBD25C30A253EF5
:104AD80002EA77C1C3A122F0CCCB6F20F2E610C264
:104AE8004926F0CCE643280C2177C17E3CE60177C5
:104AF8003E0AE0F2F0E7E610C83E17EA0021C35785
:104B08007BCDA122C93E17EA0021C3077B3E02CD17
:104B1800B907CD747BC9010120209393131310109A
:104B2800010108080A0A01FFF01000000300021E34
:104B3800C0403E08EA0021CD8626CDC007C9FA2B21
:104B4800C1FE0028053DEA2BC1C9FA25C14F060060
:104B58003E01EA2BC1FA2AC1E0D9215E2609FA27CB
:104B6800C1EA02D686CB12EA19D6FA26C1F698EA25
:104B780001D6CB1ACE00EA18D6216226097EEA03AE
:104B8800D6EA1AD63E00EA2FD63EEEEA14D6EA1541
:104B9800D6EA16D6EA17D6EA2BD6EA2CD6EA2DD6C6
:104BA800EA2ED606D60E0416D61E1BC5D5F0D94F4A
:104BB80006002111D70906004ECB21CB10CB21CB03
:104BC80010218C49FAA5DBA7280321604D09D1C122
:104BD800FA25C1E602280E2A02032A02032A121322
:104BE8007E1213180C2A022A1203132A027E1203B9
:104BF80013C5FA25C14F060021662609F0D986E0BB
:104C0800D9C1FA28C13DEA28C120A0FA25C14F061A
:104C180000216A26097EEA28C1216E2609FA2AC1DE
:104C280086EA2AC121762609FA27C186CB1AE6DF49
:104C3800EA27C121722609FA26C1CB128EE603EAB9
:104C480026C1FA29C13DEA29C12003C39727C9FA19
:104C580024C13CEA24C1C9FFFFFFFFFFFFFFFFFF9C
:104C6800EA68D3E0BF3E38E0ABAFE0A8C9E5210071
:104C780000360AE1C93E02EA0021C5CD4641C1C35A
:104C8800C0073E38E0A8AFE0ABC9F0BCA720083E9B
:104C98001FEA0021CD0340C3C0073E01EA0021CD31
:104CA800CF5BC3C007E5F0E7213DC1862144FF86FD
:104CB8000FEA3DC1E1C9FA24C1A720343E20E00033
:104CC800F000F0002FE60F473E10E000F000F00083
:104CD800F000F000F000F000F000F000CB372FE615
:104CE800F0B04FF0CBA9A1E0CC79E0CB3E30E000AA
:104CF800C9C5F0CD2197FF86E6F8CB3FCB3FCB3F28
:104D08001100005F2100980620190520FCE5F0CE6F
:104D18002196FF86E1E6F8CB3FCB3FCB3F11000061
:104D28005F197CE0CF7DE0D0C1C95F1600CB23CBF3
:104D380012E1195E2356D5E1E9F0FFE0D2CB87F006
:104D480044FE9120FAF040E67FE040F0D2E0FFC94F
:104D58003E01CDB907CDF37CC93E7E01000418059C
:104D68003E7F010008572100987A220B78B120F97C
:104D7800C9EA0021CDC5283E01EA0021C92A12133B
:104D88000B78B120F8C913671A6F131A13CDF228DC
:104D9800FA24C1A7200F1AA720ECC913671A6F13AA
:104DA8001A13CD48291AA720F2C9F5E63F4704F19E
:104DB8000707E60328083D28193D282A18351A222E
:104DC8007DE61F20087DD6206F7CDE006713052056
:104DD800EDC91A227DE61F20087DD6206F7CDE00F3
:104DE800670520EE13C91A771378012000094705D3
:104DF80020F4C91A777801200009470520F513C95E
:104E0800F5E63F4704F1E68020181AFEEE280E2248
:104E18007DE61F20087DD6206F7CDE006713052005
:104E2800E9C91AFEEE280177137801200009470521
:104E380020F0C901001618160100131811012F00DF
:104E48001803016D002190FFCD992901001F210051
:104E5800C0AF220B78B120F9C9FFFFFFFFFFFFFFAA
:104E6800FFFFFFFFFFFFFFFFFFFFFFFFFFFFFFFF4A
:104E78003E14EA0021210045197EC3C007FAACC5DB
:104E8800A720043E2DE0F4C93E01EA0021CD0758D1
:104E9800C3C0073E08EA0021211051197EC3C0078C
:104EA8003E08EA0021211051197EF53E03EA00214F
:104EB800F1C93E13EA0021210068110090010008A1
:104EC800CDC528210070110088010008C3C528CD70
:104ED800262A110084210076010001C3C5283E134B
:104EE800EA0021210040110080010018CDC5283EAC
:104EF8000CEA002121E05711F097011000CDC528D8
:104F08003E12EA0021210075110080014000CDC544
:104F18002811008D210075010002C3C5283E0CEA46
:104F28000021210050110090010008CDC5283E1233
:104F3800EA0021210060110080010008CDC5283E4B
:104F48000FEA0021210060110088010008C3C5286C
:104F5800210040180821004818032100603E13EA88
:104F68000021110080010008CDC52821005811003A
:104F780088010010C3C528CD44082100683E10CD23
:104F8800FC2ACD44083E12EA002121006611008067
:104F9800018000CDC528CD44083E0CEA002121201F
:104FA80042110081012000C3C5282100781803217F
:104FB80000483E13EA0021110080010008CDC528F1
:104FC8003E13EA0021210070110088010008CDC5B8
:104FD80028210068110090010008C3C528C53E14A7
:104FE800EA0021210042F0F7FE0B3032CB374F06A2
:104FF80000CB21CB10CB21CB1009F0F7FE06200AFD
:10500800FA6BDBE604280321C044197E5F1600F022
:10501800F7FE1A3005FE063801142100D919CDC053
:1050280007C1C93E0CCDB90721004011008001001D
:1050380004CDC5283E0CCDB90721004811008801D0
:105048000010CDC52821A04711008E012000CDC534
:10505800283E01CDB907C9CD6B2B3E0FCDB907212D
:105068000040110088010004CDC5283E0FCDB907C6
:10507800210050110090010008C3C5283E01CDB998
:1050880007F0F75F1600D521647F19662E003E0DE4
:10509800CDB907110091010001CDC52821004011AB
:1050A8000092010006CDC5283E01EA0021D1D52194
:1050B800847F19662E00CDC007110092010002CD31
:1050C800C5283E0CEA002121C04711C0DC01400080
:1050D800CDC528CDA12C3E01EA0021D121A47F19FC
:1050E800662E003E12CDB90711008F010001CDC513
:1050F8002821007DF0F7FE0A38083E0CCDB90721BB
:10510800004C11008C010003CDC528FA4BDBA72801
:1051180003CD541DFAA5DBA72806F0F7FE0A380AC6
:10512800FA15DBFE063803CDBE1DFA0EDBFE02388B
:10513800043E0DE0A5C93E0CCDB90721005211006F
:1051480092010006CDC52821004C11008C010004F5
:10515800CDC528CDA12CC3532CAFE0A6E0A7CD6BBD
:105168001B210048110088010008CDC528210042F4
:10517800110082010001CDC528C93E01CDB9072122
:10518800317D110087018000CDC5283E10CDB907BB
:10519800210054110080010006CDC52821004011CE
:1051A8000088010010C3C5283E0FCDB9072100496A
:1051B800110088010007C3C5283E0CCDB90721009E
:1051C8007811008F010008CDC528210050110082F8
:1051D800010001C3C52821007018082100781803B0
:1051E8002100583E10CDB907110090010008C3C531
:1051F800283E13EA002121007C11008C010004CD17
:10520800C528210068110090010004C3C5283E107C
:10521800CDB907210067110084010004CDC52821FC
:105228000060110090010006C3C5283E0FCDB907E4
:10523800210044110088010005C3C52800110E1281
:10524800AFE0D72193C15F160019A72042FAA5DB6A
:10525800A72819F0F9A72037F0F7FE142831FE0A1D
:10526800382DF0F6FEFD2827FEB12823FA56DBFE7E
:10527800013EA42818FA79DBA73ED82010FA7BDB78
:10528800A73EDD2008FA73DBA728043E8F18017EAD
:10529800F5E63F470E00F1CB371F1FE6035F160008
:1052A80021842D197EEA0021F0D7571E00210084A1
:1052B80019E5D121004009010001CDC528F0D73CEE
:1052C800FE04C2892D110090FAA5DBA7283F3E0DE8
:1052D800EA0021F0F9A72822210070F0F7FE06283D
:1052E8000FFE0A30052100781806F0F6FEE928F5C9
:1052F800110090010008CDC528C9210050F094FE86
:10530800FF2809C65067010001CDC528C93E0FEA2C
:105318000021F094FE0F280BC640672E0001000202
:10532800CDC528C93E08CDB9071100982111D70E5F
:1053380080D5E5C57E4F0600CB21CB10CB21CB1005
:10534800218C49FAA5DBA7280321604D092A1213ED
:105358002A127BC61F5F7ACE00572A12137E12C10B
:10536800E1D1237DE60FFE0B20067DE6F0C6116F26
:105378007BC6025FE61FFE14200A7BE6E0C6405F9C
:105388007ACE00570D20AA3E01EA0021C3C17D3E16
:1053980001E0FF217FD4343E09EA0021AFE0E6EACC
:1053A8009CC1EA04C5EAC8DBEAC9DBEAA2C1EAC6CD
:1053B800C1EAFAD6EA0AC5E0ACEA13C1EA60D4EA5F
:1053C800BEC1EA0EC5EAC8C3EAA6C5EA62D4EACDF8
:1053D800C33EFFEA01D4EA0FC5FAA5DBA728693E58
:1053E80014EA0021E0E8F0F7FE0B302B210042CB55
:1053F800375F1600CB23CB12CB23CB1219F0F7FE65
:1054080006200AFA6BDBE604280321C044FAAEDB67
:105418005F1600197EE0F6F0F64F0600F0F7FE1A68
:105428003005FE06380104210040097EEA8EC1AF2E
:10543800EA8AC1EA8BC1EA90C1EA8FC15F21B5DB74
:10544800AF221C7BFE1120F8F0F65F16002100D871
:10545800FAA5DBA728102100D9F0F7FE1A3007FEBD
:105468000638032100DA19F0F9A77E2003F68077C1
:10547800E0F8F0F64F0600CB21CB10FAA5DBA72801
:10548800393E0AEA0021E0E8F0F7FE1F2013F0F6A3
:10549800FEF5200DFA0EDBFE0E2006015378C37DC3
:1054A80030210040F0F7FE1A3075FE0638713E0BC9
:1054B800EA0021E0E82100401865F0F6FE0E200C15
:1054C800FA0ED8E610285501F047185EFE8C200C1D
:1054D800FA8CD8E6102845015643184EFE79200C60
:1054E800FA79D8E610283501FD64183EFE06200C2E
:1054F800FA06D8E6102825019644182EFE1B200C23
:10550800FA2BD8E610281501134C181EFE2B200C78
:10551800FA2BD8E610280501AC50180E21004009D6
:105528002A4F7E47FAA5DBA7200BF0F6FE80380548
:105538003E1AEA00210AFEFE284FE0A403FAA5DB82
:10554800A728100AE60FCDCF360ACB37E60FCDC90C
:105558003718040ACDCF36030AE6FCFEE02020F017
:10556800E65F16002101D4190AE60322030A220382
:105578000A22030A22030A227BC605E0E618D80A93
:10558800FEFE2805CDDC3018CE3E01EA0021CDDE36
:105598007CC3C007AFE0D70ACB7F2807CB672003BF
:1055A800E0D70303F0F85FFAA5DBA720180AD6F5C1
:1055B800383EC7383325344534EF335F347934986F
:1055C80034C234DC340AD6ECDAFD31C7EB340635A4
:1055D80021353C35553568357B358E35A335D23583
:1055E800E635FA350E364636553664368A369E36F0
:1055F800C6F5F557FEE92003EA0EC5FE5E2004CB8A
:105608006B2065FE912009CB6B2805F13E5E57F5AE
:10561800FEDC2009CB6B2805F13E9157F5FED82812
:1056280008FED92804FEDA2009CB632805F13EDB01
:1056380057F5FEC22009CB632805F13EE357F57AFA
:10564800FEBA2009CB532805F13EE157F57AFED37F
:10565800201BCB632817F0F6FE75280CFE072808D8
:10566800FEAA2804FE4A2005F13EC657F57AE0E076
:10567800FEC22820FEE1281CFECB2818FEBA2814FA
:10568800FE612810FEC6280CFEC52808FEE2280484
:10569800FEE32012FA9CC15F3CEA9CC11600211669
:1056A800D4190B0A7703F0E0FEC5CAAA32FEC6CAAF
:1056B800AA32C3FB32C6ECE0E0F5FECF3808FED3D1
:1056C800300421A5C134FEAB2022AFEACBC3F0F6EB
:1056D800FEC4F0E0281621C9DB34EACBC3F5FACDC5
:1056E800C3C604EACDC33E04EA6BC1F1FE8E28139B
:1056F800FEAA280FFEDC2804FEDB200C21FAD63691
:1057080002180521FAD63601FE3F2804FE47200478
:10571800CB53200CFE402804FE482008CB5B28040D
:10572800F13E3DF5FE412804FE492004CB4B200CF8
:10573800FE422804FE4A2008CB432804F13E3EF5E9
:10574800FEA12008CB632004F1F0E9F5FEBF200696
:10575800CB632002F1C9FEBE2808FEBF2804FECB99
:1057680020190B3E01E0AC0AE6F0C610E0AE0ACB09
:1057780037E6F0C608E0AD03C3FB32FED62804FEC8
:10578800D52008CB632004F13E21F5FED72804FE7E
:10579800D82008CB632004F13E22F5F0F7FE0AF08A
:1057A800E03804FEA92804FEDE2008CB732804F1A3
:1057B8003E0DF5FEA02008CB632804F13EA1F516A6
:1057C80000F0D7A7281F0B0A5F2111D719F0D7E6D9
:1057D8000F5FF1577A22F0D7E64028047DC60F6F95
:1057E8001D20F103C90B0A5F2111D719F17703C9ED
:1057F8000B0AC6115FE60F20047BD6105F16002146
:1058080000D719F0D7A72819E60F5FCD69330BF039
:10581800D7E64016F12802160F7D826F1D20EC0393
:10582800C97EFE103E253802C604227EFE103E26A2
:105838003802C604327DC6106F7EFE8A300AFE101A
:105848003E2738063E2A18023E82227EFE8A300A09
:10585800FE103E2838063E2918023E837703C9E524
:10586800D50A5F160019D11AFEE12808FEE22804BD
:10587800FEE3201AF5E5D57DD611F5FA9CC15F3C0B
:10588800EA9CC116002116D419F177D1E1F17713FA
:1058980003E10AA7FEFF20C7C1C9000102101112C7
:1058A800FFB6B76667E368C5CDFC3301E23311E99B
:1058B80033C3A7330B0A5F16002111D719C900019A
:1058C80002030410111213142021222324FF555A15
:1058D8005A5A5657595959585BE25BE25BC5CDFC99
:1058E80033010634111634C3A73300010210111214
:1058F800202122FF555A565759585BE25BC5CDFC0B
:1059080033013234113C34C3A733000102101112A1
:10591800FFA4A5A6A7E3A8C5CDFC330152341159AD
:1059280034C3A73300011011FFBBBCBDBE09090970
:1059380009C5CDFC33016C34117134F0F8E6042844
:1059480003117534C3A73300011011FFB6B7CDCECC
:10595800C5CDFC33018F34119434C3A73300010241
:105968001011121F20212223303132FF2B2C2D370A
:10597800E8380A332F340A0A0A0AC5CDFC3301A5D0
:105988003411B434C3A733000102101112FF52526C
:10599800525BE25BC5CDFC3301CF3411D634C3A7CB
:1059A800332D2E1E00CD2736F0F8E604C2A335C5E8
:1059B800CDFC3301C93611E934C3A7332F301E019A
:1059C800CD2736F0F8E608C2D235C5CDFC3301C97B
:1059D80036110435C3A73331321E02CD2736F0F80D
:1059E800E602C2E635C5CDFC3301CC36111F35C3FE
:1059F800A73333341E03CD2736F0F8E601C2FA3553
:105A0800C5CDFC3301CC36113A35C3A7331E04CDBE
:105A18002736FA8AC1F601EA8AC1EA8BC1C3A335DF
:105A28001E05CD2736FA8AC1F602EA8AC1EA8BC179
:105A3800C3D2351E06CD2736FA8AC1F604EA8AC1D2
:105A4800EA8BC1C3E6351E07CD2736FA8AC1F608A8
:105A5800EA8AC1EA8BC1C3FA3543443E04CDB53561
:105A6800C5CDFC3301C93611A135C3A733F5F0F60E
:105A78005F1600F0F7FE1A3005FE06380114210003
:105A8800D919F1B677E0F8C98C083E08CDB535C507
:105A9800CDFC3301C93611D035C3A733090A3E02FC
:105AA800CDB535C5CDFC3301CC3611E435C3A733AC
:105AB8000B0C3E01CDB535C5CDFC3301CC3611F804
:105AC80035C3A733A4A51E08CD2736F0F8E604C2CF
